:1000000002C1000031C100002FC100002DC100005D
:100010002BC1000029C1000027C1000025C100003C
:1000200023C1000021C100001FC100001DC100004C
:100030001BC1000019C1000017C1000015C100005C
:1000400013C1000011C100000FC100000DC100006C
:100050000BC1000009C1000007C100000C945F083B
:1000600003C1000001C10000FFC00000FDC000008E
:10007000FBC00000F9C00000F7C00000F5C00000A0
:10008000F3C00000F1C00000EFC00000EDC00000B0
:10009000EBC00000E9C00000E7C000000C94A90814
:1000A000E3C00000E1C00000DFC00000DDC00000D0
:1000B000DBC00000D9C00000D7C00000D5C00000E0
:1000C000D3C00000D1C00000CFC00000CDC00000F0
:1000D000CBC00000C9C00000C7C00000C5C0000000
:1000E000C3C0000000002100240027002A002D00CA
:1000F0003000330001010000040107010A01000083
:100100002200250028002B002E00310034000201BF
:100110000000050108010B0100002000230026005B
:1001200029002C002F00320000010000030106010D
:10013000090105050505070508080808020202026D
:100140000A0A080804040404010101010101010173
:100150000303030303030303040707070C0C0C0C3E
:100160000C0C0C0C02020202060606060606060627
:100170000B0B0B0B0B0B0B0B0102102020080810B4
:100180002040102040800201020108040201010207
:1001900004081020408080402010080402018004E0
:1001A000020180402010080402010804020101023B
:1001B0000408102040800102040810204080000044
:1001C0000A0B02090C0D0E080703040100000000D1
:1001D000000000000000000000000000000000001F
:1001E00000000000000000000000121110000000DC
:1001F00000000000000000000000000000000000FF
:1002000000000000CC0911241FBECFEFD1E2DEBFF9
:10021000CDBF00E00CBF24E0AEE5B3E001C01D920D
:10022000A43BB207E1F713E0A0E0B2E0E2E3F2E2C0
:1002300000E00BBF02C007900D92AE35B107D9F7B1
:1002400011E0C3E0D1E000E006C021970109802F52
:10025000FE010E94FE0EC230D10780E00807A9F718
:100260000E94580A0C941711CBCE982F20911C0491
:1002700081E0213208F043C08091F8038111FCCF66
:1002800080911B0432E03093F8039093F7039FEFC3
:100290009093F6031092F5032093F403ABEFB3E0D1
:1002A000E4EDF3E090E0291331C01092D303909174
:1002B000D303880F892B8093D3038091D20381309D
:1002C00049F51092D2038091D3038093BB008091B3
:1002D000BC0083FDF8CF85EC8093BC008091F803CF
:1002E0008230E1F38091F6038F3FB1F08091F60305
:1002F0008032A1F08091F603803391F084E0109277
:10030000FA0310921C041092F90308953D91319361
:100310009F5FC9CF85EEE0CF80E0F1CF82E0EFCFE5
:1003200083E0EDCF96E0899FD0011124AF5BBB4FF6
:1003300090967C936E935F9791E091969C939197A2
:10034000E091AE04F091AF049091AD04992339F09F
:10035000309751F0811108C080915D041994309755
:1003600019F05C968C91FACF08958091AE0390912C
:10037000AF03891B990B089508950895AF92BF921A
:10038000CF92DF92EF92FF920F931F93CF93DF9361
:100390006C017B018B01040F151FEB015E01AE1890
:1003A000BF08C017D10759F06991D601ED91FC91B2
:1003B0000190F081E02DC6011995892B79F7C501CF
:1003C000DF91CF911F910F91FF90EF90DF90CF9031
:1003D000BF90AF900895FC01448155816081718187
:1003E00089E294E0CBCF8150823108F05AC0E82FE7
:1003F000F0E08827E150FE4F8F4F0C94FE0E1F0255
:100400002302110217021B02510226022C023002A3
:1004100036023A023E024402480251024C025202A3
:100420005602809180008F7780938000089580919C
:1004300080008F7DF9CF80918000877FF5CF84B5D4
:100440008F7784BD089584B58F7DFBCF8091B000F8
:100450008F778093B00008958091B0008F7DF9CFA1
:10046000809190008F778093900008958091900004
:100470008F7DF9CF80919000877FF5CF8091A0008C
:100480008F778093A00008958091A0008F7DF9CF91
:100490008091A000877FF5CF809120018F77809396
:1004A00020010895809120018F7DF9CF8091200156
:1004B000877FF5CFCF93DF93282F30E0F901E25407
:1004C000FE4F8491F901E858FE4FD491F901EE5C9A
:1004D000FE4FC491CC2399F0811185DFEC2FF0E021
:1004E000EE0FFF1FE85EFE4FA591B491EC91ED2356
:1004F00081E090E009F480E0DF91CF91089580E001
:1005000090E0FACF862FD6CF1F93CF93DF93282F7B
:1005100030E0F901E254FE4F8491F901E858FE4FB2
:10052000D491F901EE5CFE4FC491CC23A1F0162FBB
:10053000811159DFEC2FF0E0EE0FFF1FE250FF4F6B
:10054000A591B4918FB7F894EC91111108C0D09592
:10055000DE23DC938FBFDF91CF911F910895DE2BB7
:10056000F8CF862F642FD0CFCF93DF9390E0FC019C
:10057000E858FE4F24918E5C9E4FFC0184918823A5
:10058000C9F090E0880F991FFC01EC51FF4FA59135
:10059000B491FC01E250FF4FC591D49161110DC09F
:1005A0009FB7F8948C91209582238C93888128237F
:1005B00028839FBFDF91CF910895623051F49FB798
:1005C000F8943C91822F809583238C93E8812E2B85
:1005D000EFCF8FB7F894EC912E2B2C938FBFEACFEF
:1005E000862F642FC1CF3FB7F8948091A6039091D6
:1005F000A703A091A803B091A90326B5A89B05C0A5
:100600002F3F19F00196A11DB11D3FBFBA2FA92F91
:10061000982F8827BC01CD01620F711D811D911D8E
:1006200042E0660F771F881F991F4A95D1F70895FA
:100630008F929F92AF92BF92CF92DF92EF92FF92F2
:100640004B015C01D0DF6B017C01CDDF6C197D09B2
:100650008E099F09683E734081059105B0F321E042
:10066000821A9108A108B10888EEC80E83E0D81E4E
:10067000E11CF11C81149104A104B10431F7FF9035
:10068000EF90DF90CF90BF90AF909F908F900895A4
:100690002FB7F8946091A2037091A3038091A403F3
:1006A0009091A5032FBF08950F931F93CF93DF93CE
:1006B000C82FD62F86E0C89FF0011124EF5BFB4FB7
:1006C00011A2878D90A181309105E1F058F0823020
:1006D0009105D1F1039709F43CC0DF91CF911F91AF
:1006E0000F9108956623C9F361E070E08C2F1ADE44
:1006F000CFDF6093990470939A0480939B04909346
:100700009C04EBCFC5DF0091990410919A042091CD
:100710009B0430919C04AB01BC01401B510B620B4C
:10072000730B8091AB049091AC04B0E0A0E084170F
:100730009507A607B70740F462E070E08C2FDF91C1
:10074000CF911F910F91EECD63E070E0D111C5CF35
:10075000F5CF70E060E0F2CF6F927F928F929F9220
:10076000AF92BF92CF92DF92EF92FF920F931F93BF
:10077000CF93DF9381E08093AD048ADF00919D04E5
:1007800010919E0420919F043091A004AB01BC0104
:10079000401B510B620B730B8091A9049091AA042A
:1007A000B0E0A0E084179507A607B70708F00CC1D2
:1007B000C0E08091A704C81758F4E091A304F09119
:1007C000A404EC0FF11D62E08081CEDECF5FF1CF9B
:1007D000712C812C912C540183948091A80478165B
:1007E00008F05AC0072D10E0E091A504F091A6048E
:1007F000E00FF11F61E08081B7DEE091A504F09188
:10080000A604E00FF11F60E080817EDED501C40107
:10081000072C04C0880F991FAA1FBB1F0A94D2F788
:100820006C017C01E094F094612C8091A70468161F
:10083000F0F4C62DD0E0E091A304F091A404EC0FF5
:10084000FD1F808137DE2496CC0FDD1FCF5BDB4F91
:10085000892B41F4888199818C299D2999838883EA
:100860006394E3CF888199818E219F21F7CFE09116
:10087000A504F091A604E00FF11F61E0808144DE41
:100880008091A5049091A604080F191F60E0F8015B
:1008900080816ADE7394A1CFC1E4D4E0FE018FEFC2
:1008A0009FEF278D30A1232B21F4148E968F858FF7
:1008B00011A2369624E0ED37F20799F7F12C96E075
:1008C000D92E8091A704F81608F04FC0E12C0F2D07
:1008D00010E0000F111F075B1B4F2091A804E216C8
:1008E00008F041C0F801608171810E2C02C076953C
:1008F00067950A94E2F7F29E900111242E0D311DA6
:10090000E1E4F4E080E0458D568D2417350709F4C5
:100910005FC08F5F36968A30B1F760FF22C0E1E496
:10092000F4E090E080E0448D411116C0E091A10414
:10093000F091A204E20FF31F4081D89EF001D99EEE
:10094000F00D1124EF5BFB4F448F368F258F10A2E3
:10095000178E61E0A9DE05C0019636968A309105B2
:1009600011F7E394BACFF394ACCF10E089A18111D1
:10097000182F2696F4E0CD37DF07C1F789DE6093A4
:100980009D0470939E0480939F049093A004112370
:10099000D9F0809162048823B9F08091600490912D
:1009A0006104019789F480915D04DF91CF911F91DB
:1009B0000F91FF90EF90DF90CF90BF90AF909F90FE
:1009C0008F907F906F9008951092AD0480E0EDCFEE
:1009D0006170C0CFC1DE8823E9F3089585ED80936F
:1009E000BC008091BC0084FDFCCF1092F8030895F8
:1009F00020917E03260F3327331F21323105ECF47B
:100A00002091F803FC0190E080E0243069F082E05E
:100A10000895A0917E032191AC01425A5C4FA40F2E
:100A2000B52FB11D2C930196861798F380917E0304
:100A3000680F60937E0380E0089581E00895089533
:100A4000E091AF038091AE03E81730F4F0E0E05599
:100A5000FC4F808190E008958FEF9FEF0895909173
:100A6000AF038091AE032FEF3FEF981748F4E92FC3
:100A7000F0E0E055FC4F208130E09F5F9093AF03A2
:100A8000C9010895CF92DF92EF92FF920F931F93C7
:100A9000CF93DF937C01CB018A012091F9032223BC
:100AA00089F0EB016B01C40ED51ECC15DD0561F09C
:100AB0006991D701ED91FC910190F081E02DC70182
:100AC0001995F3CF642F94DFC801DF91CF911F9167
:100AD0000F91FF90EF90DF90CF900895CF93DF9329
:100AE0001F92CDB7DEB769832091F9032223F9F075
:100AF00020911C04203258F021E030E0FC013383C7
:100B0000228390E080E00F90DF91CF910895809153
:100B1000FA03E82FF0E0E550FC4F998190838F5F56
:100B20008093FA0380931C0481E090E0ECCF61E0B5
:100B3000CE0101965DDFF8CFCF93C82F81E080937F
:100B4000F90380E580931B041092FA0310921C04B1
:100B500060E08DE194E0C2DF60E08DE194E0BEDF13
:100B60006C2F8DE194E0BADF81E07FDB6AE070E01A
:100B700080E090E0CF915CCD089590E080E0089512
:100B80008F929F92AF92BF920F931F93CF93DF9359
:100B9000CDB7DEB7A1970FB6F894DEBF0FBECDBFBD
:100BA00019A2423008F44AE08E010F5D1F4F842ED7
:100BB000912CB12CA12CA50194010E94DC0EE62FF2
:100BC000B901CA01EA303CF5E05DD801EE938D0130
:100BD000232B242B252B79F790E080E0109761F0F0
:100BE000FD0101900020E9F73197AF014A1B5B0B33
:100BF000BD0189E294E0C2DBA1960FB6F894DEBF96
:100C00000FBECDBFDF91CF911F910F91BF90AF90DD
:100C10009F908F900895E95CD8CFFC01019000204F
:100C2000E9F73197AF01481B590BBC0189E294E009
:100C3000A5CBCF93DF93EC0160E08E8165DC61E0B2
:100C40008E8162DC60E08E815FDC8BE891E0019751
:100C5000F1F7DF91CF910895CF92DF92EF92FF925B
:100C60000F931F93CF93DF936C017C0187E0E80E15
:100C7000F11CD0E0C0E0062F10E0B8010C2E02C03D
:100C8000759567950A94E2F76170F70181917F018C
:100C90003BDC2196C430D10581F7C601DF91CF91AD
:100CA0001F910F91FF90EF90DF90CF90C2CFCF9226
:100CB000DF92EF92FF920F931F93CF93DF93EC019C
:100CC000F62E642F8C8120DC8D818F3F11F060E047
:100CD0001BDC0F2D10E08F8584FF23C06E0187E0A1
:100CE000C80ED11CF12CE12CB8010E2C02C0759558
:100CF00067950A94E2F76170F60181916F0104DC57
:100D0000FFEFEF1AFF0A88E0E816F10469F7CE0159
:100D1000DF91CF911F910F91FF90EF90DF90CF90D7
:100D200088CFB80184E0759567958A95E1F7CE0183
:100D300093DF6F2DCE01DF91CF911F910F91FF9027
:100D4000EF90DF90CF9088CF40E0682F89E294E069
:100D5000AECF81E0F9DF8BE39FE10197F1F70895D2
:100D6000CF93DF93823029F4909138049860909368
:100D7000380480933C0410923D0480E480933E0448
:100D800080E180933F0480E58093400461E080919E
:100D90002D04EADB80912E048F3F11F061E0E4DB4B
:100DA00061E080912F04E0DBC9E2D4E09E0129528A
:100DB00034408091380484FD0AC084E090E021969C
:100DC000281739073CF461E08E81CEDBEFCF88E055
:100DD00090E0F5CF8BE39DE00197F1F760E0809123
:100DE0002D0492DB60E080912F048EDB80912E0435
:100DF0008F3F11F060E088DB8091380484FD2CC0C7
:100E000063E089E294E028DFCBE4D6E4CE010197E9
:100E1000F1F763E089E294E01FDF2197F1F763E0E7
:100E200089E294E019DF83E592E00197F1F762E04F
:100E300089E294E011DF80913804806285DF84E0EC
:100E4000809339048CE080DF84DF82E080933A0471
:100E500086E0DF91CF9178CF806276DF8BE496E4F5
:100E60000197F1F78091380480626EDF83E592E0AC
:100E70000197F1F780913804806266DFDCCF82E071
:100E800063DF8BE39FE10197F1F7089590913C04B4
:100E9000891710F08FEF890FE82FF0E0E75DFB4F27
:100EA0008489806851CF41E002DF81E090E00895BD
:100EB000CF92DF92EF92FF926C01990FEE08FF083C
:100EC000F7FE14C041E06DE289E294E0F0DE6627AF
:100ED0007727CB016C197D098E099F094AE050DE06
:100EE0000196FF90EF90DF90CF9008954AE0C70100
:100EF000B601FF90EF90DF90CF9042CE0F931F93FB
:100F0000CF93DF93EC0188819981009759F02A8172
:100F10003B812617370730F081E0DF91CF911F9199
:100F20000F9108958B016F5F7F4F0E942B100097E8
:100F300059F0998388831B830A832C813D81232B5D
:100F400059F7FC011082E8CF80E0E7CFEF92FF92E3
:100F50000F931F93CF93DF936115710541F480E0E8
:100F6000DF91CF911F910F91FF90EF900895411560
:100F70005105A9F07B01EC010C811D81040F151FA7
:100F8000B801BCDF882359F3288139818C819D8188
:100F9000B701820F931F0E9410111D830C8381E003
:100FA000DFCFCF93DF93EC0188819981009709F01F
:100FB000C9D7198218821D821C821B821A82DF9176
:100FC000CF910895CF93DF93EC01FB0144815581CC
:100FD00060817181BBDF811102C0CE01E2DFCE01F1
:100FE000DF91CF910895EF92FF920F931F93CF93CC
:100FF000DF93EC017B018A01BA0180DF81110AC015
:10100000CE01CFDFCE01DF91CF911F910F91FF90E5
:10101000EF9008951D830C83B701888199810E9408
:101020001011F0CFEF92FF920F931F93CF93DF93A6
:10103000CDB7DEB762970FB6F894DEBF0FBECDBF57
:101040008C01CB01F8011182108213821282158269
:1010500014824AE09E012F5F3F4F7901B90164D6A7
:10106000F70101900020E9F73197AF014E195F09B0
:10107000B701C801B8DF62960FB6F894DEBF0FBEA5
:10108000CDBFDF91CF911F910F91FF90EF90089509
:10109000FC01118210821382128215821482FB01DC
:1010A00001900020E9F73197AF01461B570B9BCF0A
:1010B000FC0180819181009709F044C708951F9237
:1010C0000F920FB60F9211242F933F938F939F93FC
:1010D000AF93BF938091A2039091A303A091A40327
:1010E000B091A5033091A10323E0230F2D3758F5CC
:1010F0000196A11DB11D2093A1038093A20390939B
:10110000A303A093A403B093A5038091A603909199
:10111000A703A091A803B091A9030196A11DB11D39
:101120008093A6039093A703A093A803B093A90369
:10113000BF91AF919F918F913F912F910F900FBED3
:101140000F901F90189526E8230F0296A11DB11D40
:10115000D2CF1F920F920FB60F9211240BB60F929F
:101160002F933F934F935F936F937F938F939F93AF
:10117000AF93BF93EF93FF938091B900887F803640
:1011800009F44CC008F03FC0883209F4A8C028F523
:10119000803109F49CC0C8F4882309F4FAC088306F
:1011A00009F495C0FF91EF91BF91AF919F918F91FD
:1011B0007F916F915F914F913F912F910F900BBE57
:1011C0000F900FBE0F901F901895883109F487C0BB
:1011D000803241F78093F60314C0803409F49CC038
:1011E00040F48033B9F38833E9F68093F60385EC55
:1011F000AFC0803509F484C0883509F495C08834BF
:1012000089F6ECDBCFCF883909F48CC038F5883704
:1012100029F050F4883611F0803721F683E080936E
:10122000F8031092A00357C0883809F47BC08039B6
:1012300019F0803809F0B6CF8091A003803208F011
:1012400071C0E091A00381E08E0F8093A003809194
:10125000BB00F0E0E058FC4F80833DC0803B39F09C
:10126000E0F4803A09F479C0883A09F09BCF84E031
:101270008093F80310927F0310927E03E091AC03F9
:10128000F091AD03199580917E0381110FC081E02B
:1012900080937E0310925E0309C0803C09F4A7CFBF
:1012A000883C09F4A4CF883B09F07CCFE0917F0310
:1012B00081E08E0F80937F03F0E0E25AFC4F808143
:1012C0008093BB0090917F0380917E0329C0809121
:1012D000D3038093BB0085EC8093BC0063CF9091D7
:1012E000F5038091F403981758F5E091F50381E038
:1012F0008E0F8093F503F0E0EC52FC4F8081E9CF34
:10130000E091F50381E08E0F8093F5038091BB009F
:10131000F0E0EC52FC4F80839091F5038091F40350
:101320009817C8F285E8D8CFE091F50381E08E0FD9
:101330008093F5038091BB00F0E0EC52FC4F80837A
:101340008091F70381115DCF81E08093D20384EA1D
:101350008093BC001092F80325CF85EC8093BC00ED
:101360001092F8038091A003803230F4E091A00342
:10137000F0E0E058FC4F10826091A00370E0E09133
:10138000AA03F091AB0380E893E019951092A003B3
:1013900009CF1092F60335CF1092200410921F044B
:1013A00088EE93E0A0E0B0E08093210490932204C3
:1013B000A0932304B093240487E292E090931E0448
:1013C00080931D0410924304109247041092460427
:1013D0001092480485E492E0909342048093410483
:1013E000EDE5F4E01082148213821582369684E0D3
:1013F000E939F807B9F78DE092E09093A40480935F
:10140000A3048AE092E09093A6048093A50484E06C
:101410008093A70483E08093A80481E192E09093F5
:10142000A2048093A1048AE090E09093AA048093A0
:10143000A90484EF91E09093AC048093AB041092E4
:10144000AF041092AE0410929D0410929E0410926C
:101450009F041092A0041092AD0410922C041092DC
:101460002B0489E392E090932A04809329048DE071
:1014700080932D048FEF80932E048CE080932F04B3
:101480008BE0809330048AE08093310489E080937C
:10149000320488E0809333041092340410923504AF
:1014A00010923604109237041092380481E058CC20
:1014B000CF93DF93CDB7DEB762970FB6F894DEBF58
:1014C0000FBECDBF789484B5826084BD84B5816041
:1014D00084BD85B5826085BD85B5816085BD8091FF
:1014E0006E00816080936E00109281008091810077
:1014F000826080938100809181008160809381006F
:10150000809180008160809380008091B100846030
:101510008093B1008091B00081608093B000809191
:10152000910082608093910080919100816080930E
:101530009100809190008160809390008091A10043
:1015400082608093A1008091A10081608093A100BE
:101550008091A00081608093A00080912101826031
:1015600080932101809121018160809321018091EC
:10157000200181608093200180917A0084608093B3
:101580007A0080917A00826080937A0080917A005C
:10159000816080937A0080917A00806880937A00DD
:1015A0001092C10061E087E00E94B40261E086E031
:1015B0000E94B40261E085E00E94B40261E084E030
:1015C0000E94B40282E0CCDB1092AF031092AE0313
:1015D0001092FA0310921C041092F80381E0809399
:1015E000F7031092D20361E084E10E94840261E07B
:1015F00085E10E9484028091B9008E7F8093B900BA
:101600008091B9008D7F8093B90088E48093B80001
:1016100085E48093BC008CEB91E09093AD038093C4
:10162000AC038DEB91E09093AB038093AA03809180
:10163000080282DA992493948E01095F1F4F28EEE5
:10164000C22E23E0D22EE12CF12C80E5382E22246C
:101650002A9495EC892E9092F90330921B041092F3
:10166000FA0310921C0460E08DE194E037DA60E048
:101670008DE194E033DA81E00E9435018091F80336
:101680008111FCCF9092F8039092F7032092F60319
:101690001092F5031092F4039092D3038091D30338
:1016A000806A8093D3038091D203813009F071C0A6
:1016B0001092D2038091D3038093BB008091BC0031
:1016C00083FDF8CF8092BC008091F8038130E1F374
:1016D0008091F50391E0811102C09091F503E4ED52
:1016E000F3E0A0EBB3E080E0891357C01092AF03A2
:1016F0008093AE03882309F454C08DE194E0AFD900
:1017000090E0909309028093080223DBB8DB8BE41E
:1017100092E083DA8091080290910902C9DB64EFBC
:1017200071E080E090E00E94180313DB89E592E00D
:1017300074DA81E0ABDB8AE692E06FDA4BD9833270
:1017400009F0ACC006DB9BDB8BE792E066DA81E058
:101750009DDB6DE972E0CE010D969ADC3BD98A32B1
:1017600011F1833201F189831A8241E050E0BE0118
:101770006F5F7F4FCE010D96E9DBEBDA80DB8BE705
:1017800092E04BDA81E082DBCE010D960E94EB0104
:10179000E5CF85EE8093BC0097CF21912D938F5F8D
:1017A000A3CF8FEFADCF8D859E85412C512C32017B
:1017B000009711F093D22B0164EF71E080E090E08C
:1017C0000E941803C6DA5BDB8CE892E026DA02D9C5
:1017D000B82E91E389134AC0509207024092060244
:1017E000B8DA1A8219821C821B821E821D82BF8275
:1017F0001886F80101900020E9F73197AF01401BEE
:10180000510BB801CE010196EEDB68E972E0C80128
:101810003FDCBE016F5F7F4FC801D4DB5C0145E058
:1018200050E065E772E092DB811102C0C501B9DBCF
:10183000C5010E94EB01C8013BDCCE01019638DCFA
:1018400081E024DB8EE992E0E8D968EE73E080E085
:1018500090E00E941803CE010D962ADC80E090E013
:10186000892B09F4F8CE0E940000EFCE82E3B81273
:1018700005C05092050240920402B2CF93E3B91220
:1018800005C05092030240920202AACF84E3B8122C
:10189000A7CF5092010240920002A2CF8A3209F0F3
:1018A00018C257DAECDA87EA92E0B7D981E0EEDACB
:1018B00084EB92E0B2D98ED88A3209F0E6C149DAD7
:1018C000DEDA6091080270910902CE010196AADB6E
:1018D00063EC72E0C801DCDBBE016F5F7F4FC801C3
:1018E00071DB0E94EB01C801E3DBCE010196E0DB76
:1018F00068EC70E080E090E00E941803809108029C
:10190000909109028130910509F06BC061E087E098
:101910000E9484020E944803A70196014DD2309391
:10192000D1032093D00315DAAADA81ED92E075D9BC
:101930000E94AC038A3281F40CDAA1DA80EE92E0E4
:101940006CD968EC70E080E090E00E94180360E0E1
:1019500087E00E94840282CF81E098DAA090D003D1
:10196000B090D1030E9448032091060230910702F3
:10197000A20EB31EA70196011FD2B501621B730B05
:1019800077FD1AC0CE0101964DDB68EE72E0C8010A
:101990007FDBBE016F5F7F4FC80114DB0E94EB014C
:1019A000C80186DBCE01019683DB68EC70E080E045
:1019B00090E00E941803B7CF80910802909109022D
:1019C0000196909309028093080260E087E00E94EC
:1019D0008402809108029091090205970CF48ECF41
:1019E0003DCF8230910509F060C061E086E00E9441
:1019F00084020E944803A7019601DED13093D103EF
:101A00002093D003A6D93BDA83EF92E006D90E9457
:101A1000AC038A3271F49DD932DA80EE92E0FDD8BF
:101A200068EC70E080E090E00E94180360E086E0DF
:101A300090CF81E02BDAA090D003B090D1030E9428
:101A400048032091040230910502A20EB31EA701A3
:101A50009601B2D1B501621B730B77FD1AC0CE019E
:101A60000196E0DA68EE72E0C80112DBBE016F5F3A
:101A70007F4FC801A7DA0E94EB01C80119DBCE0134
:101A8000019616DB68EC70E080E090E00E9418039D
:101A9000B9CF8091080290910902019690930902B2
:101AA0008093080260E086E092CF8330910509F0D0
:101AB00061C061E085E00E9484020E944803A701A2
:101AC00096017AD13093D1032093D00342D9D7D94C
:101AD00082E093E0A2D80E94AC038A3279F439D92B
:101AE00080E0D4D980EE92E098D868EC70E080E095
:101AF00090E00E94180360E085E02BCF81E0C6D91A
:101B0000A090D003B090D1030E944803209102021C
:101B100030910302A20EB31EA70196014DD1B5016B
:101B2000621B730B77FD1AC0CE0101967BDA68EE5B
:101B300072E0C801ADDABE016F5F7F4FC80142DAC3
:101B40000E94EB01C801B4DACE010196B1DA68EC6B
:101B500070E080E090E00E941803B8CF8091080206
:101B6000909109020196909309028093080260E027
:101B700085E02DCF049709F02CCF61E084E00E942E
:101B800084020E944803A701960116D13093D10325
:101B90002093D003DED873D981E193E03ED80E9430
:101BA000AC038A3271F4D5D86AD980EE92E035D888
:101BB00068EC70E080E090E00E94180360E084E050
:101BC000C8CE81E063D9A090D003B090D1030E9429
:101BD00048032091000230910102A20EB31EA7011A
:101BE0009601EAD0B501621B730B77FD1AC0CE01D6
:101BF000019618DA68EE72E0C8014ADABE016F5F3A
:101C00007F4FC801DFD90E94EB01C80151DACE0134
:101C100001964EDA68EC70E080E090E00E941803D4
:101C2000B9CF809108029091090201969093090220
:101C30008093080261E087E00E94840261E086E010
:101C40000E94840261E085E00E94840261E084E0F9
:101C50000E9484027ED813D980E293E00E940D0690
:101C600064EF71E080E090E00E94180360E087E09C
:101C70000E94840260E086E00E94840260E085E0C9
:101C80000E94840260E084E0A2CE833211F561D824
:101C9000F6D881E393E00E940D060E94EA04B82E74
:101CA00081E0F4D88B2D0B2C000C990BC09700D938
:101CB00080ED8B0D0E949C054CD8E1D881E493E027
:101CC0000E940D0660ED77E080E090E00E9418032E
:101CD000C5CD3FD8D4D88FE493E0F2CF1F93FC0159
:101CE00099278827BC01E89411911032E9F3193043
:101CF00010F01E30C8F31B3249F01D3241F46894D5
:101D000005C01CD0610F711D811D911D11911053D3
:101D10001A30B8F33EF490958095709561957F4F99
:101D20008F4F9F4F1F910895BB274A3031F499235D
:101D300022F4BDE2909581959F4F16C0592F482FF0
:101D4000372F262F660F771F881F991F660F771F63
:101D5000881F991F620F731F841F951F660F771FBF
:101D6000881F991F0895BB27FB015527AA27880FB5
:101D7000991FAA1FA41710F0A41B83955051B9F7FF
:101D8000A05DAA3308F0A95DA193009779F7B1117E
:101D9000B1931192CB0100C0DC01FC01672F71915E
:101DA0007723E1F7329704C07C916D937083629141
:101DB000AE17BF07C8F30895A1E21A2EAA1BBB1BDA
:101DC000FD010DC0AA1FBB1FEE1FFF1FA217B30707
:101DD000E407F50720F0A21BB30BE40BF50B661F1D
:101DE000771F881F991F1A9469F7609570958095E1
:101DF00090959B01AC01BD01CF010895EE0FFF1F2F
:101E0000881F8BBF0790F691E02D19940F931F93B5
:101E1000CF93DF938230910510F482E090E0E0915F
:101E2000B204F091B30430E020E0B0E0A0E03097DD
:101E300099F42115310509F44AC0281B390B2430C7
:101E40003105D8F58A819B816115710589F1FB0106
:101E500093838283FE0111C04081518102811381ED
:101E600048175907E0F04817590799F4109761F09F
:101E700012960C93129713961C933296CF01DF9112
:101E8000CF911F910F9108950093B2041093B30462
:101E9000F4CF2115310551F04217530738F0A9014D
:101EA000DB019A01BD01DF01F801C1CFEF01F9CFDC
:101EB0009093B3048093B204CDCFFE01E20FF31FE1
:101EC000819391932250310939832883D7CF209170
:101ED000B0043091B104232B41F420911F023091C2
:101EE00020023093B1042093B00420911D02309160
:101EF0001E022115310541F42DB73EB74091210254
:101F000050912202241B350BE091B004F091B104F2
:101F1000E217F307A0F42E1B3F0B2817390778F0C0
:101F2000AC014E5F5F4F2417350748F04E0F5F1F1F
:101F30005093B1044093B004819391939FCFF0E00C
:101F4000E0E09CCFCF93DF930097E9F0FC0132975C
:101F500013821282A091B204B091B304ED0130E07B
:101F600020E01097A1F420813181820F931F2091EE
:101F7000B0043091B1042817390709F061C0F0931B
:101F8000B104E093B004DF91CF910895EA01CE1738
:101F9000DF07E8F54A815B819E0141155105B1F7E4
:101FA000E901FB83EA8349915991C40FD51FEC17CE
:101FB000FD0761F4808191810296840F951FE901EC
:101FC00099838883828193819B838A83F0E0E0E018
:101FD00012968D919C9113970097B9F52D913C9194
:101FE0001197CD010296820F931F2091B00430917A
:101FF000B1042817390739F6309751F51092B30418
:102000001092B204B093B104A093B004BCCFD383B8
:10201000C28340815181840F951FC817D90761F48D
:102020004E5F5F4F88819981480F591F51834083CC
:102030008A819B81938382832115310509F0B0CF7A
:10204000F093B304E093B2049ECFFD01DC01C0CF56
:1020500013821282D7CF4F925F926F927F928F92AC
:102060009F92AF92BF92CF92DF92EF92FF920F9327
:102070001F93CF93DF938C01009791F4CB01DF91F5
:10208000CF911F910F91FF90EF90DF90CF90BF9075
:10209000AF909F908F907F906F905F904F90B6CE53
:1020A000FC01E60FF71F9C0122503109E217F307EC
:1020B00008F4AAC0D901CD91DC911197C617D707B2
:1020C00018F1C530D10570F0CE0104978617970737
:1020D00048F0C61BD70B2297C193D1936D937C9385
:1020E000CF0130DFC801DF91CF911F910F91FF9099
:1020F000EF90DF90CF90BF90AF909F908F907F90A8
:102100006F905F904F9008955B01AC1ABD0A4C012F
:102110008C0E9D1EA091B204B091B304512C412CA1
:10212000F12CE12C109731F58091B0049091B1041D
:102130008815990509F05CC04616570608F058C086
:1021400080911D0290911E02009741F48DB79EB7B9
:102150004091210250912202841B950BE817F90748
:1021600008F052C0F093B104E093B004F901718318
:102170006083B8CF8D919C91119712966C901297B5
:1021800013967C901397A815B90559F56C0142E098
:10219000C40ED11CCA14DB0420F1AC014A195B093E
:1021A000DA011296159780F0628273825183408320
:1021B000D9016D937C93E114F10471F0D70113966A
:1021C000FC93EE9312978ECF22968C0F9D1FF901F0
:1021D00091838083F301EFCFF093B304E093B204D3
:1021E00081CF4816590608F42C017D01D3019ACFFE
:1021F000CB010CDE7C01009739F0AE01B80107D0AD
:10220000C801A0DE87016ECF10E000E06BCFFB01BC
:10221000DC0102C001900D9241505040D8F7089562
:10222000FB01DC0101900D920020E1F70895F89484
:02223000FFCFDE
:1022320002000200020002000100181716191A1B00
:102242001C3132333435363738392A30230000B462
:10225200048000000000006E054205BD051F05B5A3
:10226200012F052005000000005307BE01BD05BC7B
:102272000500000000F002B1028202446566617549
:102282006C74206D6F64653A005072657373202A16
:1022920020746F20737461727400507265737320BE
:1022A2002320666F722074696D6500656E746572B5
:1022B200206E65772074696D65723A00776869638C
:1022C20068206D6F64653F004D6F64652000636830
:1022D200616E6765642E002A203A20636F6E74690E
:1022E2006E75650023203A206368616E676520641D
:1022F20065660043757272656E74206D6F64653A2F
:10230200006D6F646520312072756E6E696E6700B4
:1023120045786974696E670052656D61696E696EB0
:10232200673A006D6F646520322072756E6E696E59
:1023320067006D6F646520332072756E6E696E671B
:10234200006D6F646520342072756E6E696E670071
:1023520046696E69736865642077617368696E6740
:1023620000456E74657220646566206D6F64653A1F
:102372000053617661696E6720646F6E6521004962
:0E2382006E76616C696420696E70757400007F
:00000001FF
