:1000000002C100001FC100001DC100001BC1000093
:1000100019C1000017C1000015C1000013C1000084
:1000200011C100000FC100000DC100000BC1000094
:1000300009C10000FEC1000005C1000003C10000AD
:1000400001C10000FFC00000FDC00000FBC00000B7
:10005000F9C00000F7C00000F5C0000049C2000070
:10006000F1C00000EFC00000EDC00000EBC00000D8
:10007000E9C00000E7C00000E5C00000E3C00000E8
:10008000E1C00000DFC00000DDC00000DBC00000F8
:10009000D9C00000D7C00000D5C00000D3C0000008
:1000A000D1C00000CFC00000CDC00000CBC0000018
:1000B000C9C00000C7C00000C5C00000C3C0000028
:1000C000C1C00000BFC00000BDC00000BBC0000038
:1000D000B9C00000B7C00000B5C00000B3C0000048
:1000E000B1C00000000020002300260029002C00E1
:1000F0002F00320000010000030106010901000089
:100100000A0B02090C0D0E08070304010000000091
:1001100000000000000000000000000000000000DF
:10012000000000000000000000001211100000009C
:1001300000000000000000000000000000000000BF
:100140000000000000002100240027002A002D00EC
:100150003000330001010000040107010A0101021F
:1001600010202008081020401020408002010201C9
:100170000804020101020408102040808040201081
:1001800008040201800402018040201008040201DA
:100190000804020101020408102040800102040842
:1001A0001020408000002200250028002B002E0097
:1001B0003100340002010000050108010B010505B2
:1001C0000505070508080808020202020A0A0808CD
:1001D00004040404010101010101010103030303FB
:1001E00003030303040707070C0C0C0C0C0C0C0C8A
:1001F0000202020206060606060606060B0B0B0B9B
:100200000B0B0B0B020011241FBECFEFD1E2DEBFA0
:10021000CDBF00E00CBF12E0A0E0B2E0EAE0F2E106
:1002200000E00BBF02C007900D92AA36B107D9F7C4
:1002300022E0AAE6B2E001C01D92A339B207E1F7BD
:10024000A1D1E1C7DDCE8150823108F059C0E82F3D
:10025000F0E08827E25DFE4F8F4F97C74E015201B5
:10026000400146014A01800155015B015F016501C2
:1002700069016D017301770180017B0181018501B5
:10028000809180008F778093800008958091800016
:100290008F7DF9CF80918000877FF5CF84B58F77F0
:1002A00084BD089584B58F7DFBCF8091B0008F779A
:1002B0008093B00008958091B0008F7DF9CF809138
:1002C00090008F77809390000895809190008F7DAB
:1002D000F9CF80919000877FF5CF8091A0008F7734
:1002E0008093A00008958091A0008F7DF9CF809128
:1002F000A000877FF5CF809120018F778093200128
:100300000895809120018F7DF9CF80912001877F12
:10031000F5CFCF93DF9390910002891310C0E4E0F2
:10032000F2E0E4919FEF90930002E23009F43FC0C5
:1003300050F5EE2309F432C0E13009F432C0282F21
:1003400030E0F901E250FF4F8491F901E25AFE4F8B
:10035000D491F901E254FE4FC491CC2389F081116C
:1003600072DFEC2FF0E0EE0FFF1FEC55FE4FA59172
:10037000B4918FB7F894EC91D095DE23DC938FBFC6
:10038000DF91CF910895E43049F110F1E530B9F6ED
:10039000909173009D7F90937300D1CF10926E0067
:1003A000CECF90916F009D7F90936F00C8CF9091BA
:1003B00070009D7F9093700091E09093B0009091B9
:1003C000B100987F94609093B1001092B300B7CFC2
:1003D000909171009D7F90937100B1CF90917200C8
:1003E0009D7F90937200ABCF3FB7F89480916F02DE
:1003F00090917002A0917102B091720226B5A89BF3
:1004000005C02F3F19F00196A11DB11D3FBFBA2FA6
:10041000A92F982F8827BC01CD01620F711D811D66
:10042000911D42E0660F771F881F991F4A95D1F7EB
:1004300008951F920F920FB60F9211240BB60F92D0
:100440002F933F934F935F936F937F938F939F93DC
:10045000AF93BF93EF93FF938091870290918802AF
:10046000A0918902B0918A02892B8A2B8B2BE1F112
:1004700090917602E0917702F0917802808189274D
:1004800080838091870290918802A0918902B09127
:100490008A02181619061A061B069CF48091870218
:1004A00090918802A0918902B0918A020197A109D6
:1004B000B1098093870290938802A0938902B09338
:1004C0008A02FF91EF91BF91AF919F918F917F91A0
:1004D0006F915F914F913F912F910F900BBE0F90B5
:1004E0000FBE0F901F9018958091000212DFE9CF88
:1004F0001F920F920FB60F9211242F933F938F9359
:100500009F93AF93BF9380916B0290916C02A091E7
:100510006D02B0916E0230916A0223E0230F2D37F5
:1005200058F50196A11DB11D20936A0280936B02BC
:1005300090936C02A0936D02B0936E0280916F0253
:1005400090917002A0917102B09172020196A11D6A
:10055000B11D80936F0290937002A0937102B093CB
:100560007202BF91AF919F918F913F912F910F9008
:100570000FBE0F901F90189526E8230F0296A11D1D
:10058000B11DD2CFCF93DF9300D000D000D0CDB734
:10059000DEB7789484B5826084BD84B5816084BD03
:1005A00085B5826085BD85B5816085BD80916E0011
:1005B000816080936E001092810080918100826042
:1005C000809381008091810081608093810080917F
:1005D00080008160809380008091B100846080936E
:1005E000B1008091B00081608093B0008091910053
:1005F000826080939100809191008160809391004E
:10060000809190008160809390008091A100826031
:100610008093A1008091A10081608093A1008091CE
:10062000A00081608093A00080912101826080936E
:10063000210180912101816080932101809120011D
:1006400081608093200180917A00846080937A0099
:1006500080917A00826080937A0080917A00816034
:1006600080937A0080917A00806880937A0010925B
:10067000C100E8E6F1E02491E8ECF1E08491882300
:10068000E1F090E0880F991FFC01EC5BFE4FA59113
:10069000B491FC01EC55FE4F859194919A83898326
:1006A0009FB7F8943C91822F809583238C93E981A6
:1006B000FA818081282B20839FBF88248A94982CDC
:1006C0005401E8E0F1E08491E8E6F1E0F491FB8385
:1006D000E8ECF1E0F491F983F11167C025E332E031
:1006E0003A83298381E092E09C838B8306E611E0C4
:1006F00086EC282E81E0382E29E632E089819A8125
:100700002817390709F461C080917B0088608093C5
:100710007B0097E490937C0080917A0080648093C2
:100720007A0080917A0086FDFCCFE0907800F0900E
:100730007900E981FA8161917191FA83E98388EE08
:1007400093E0F4D4072E000C880B990B00D46D8332
:100750007E838F839887EB81FC8161907190FC830D
:10076000EB8380910002883009F037C0E4E0F2E0CA
:10077000F491F987F985F7FF9FC020E030E040E071
:100780005FE36D817E818F8198856DD4B2D36B01DB
:100790007C012ADE2B013C01C114D104E104F104E7
:1007A00009F0CFC288E0B5DDA7CF81114CDD99817A
:1007B000E92FF0E0EE0FFF1FEC51FF4FA591B49130
:1007C0008C91EB81E82309F489CF80E090E0892BBC
:1007D00009F477CF0E94000074CF8F3F71F688E054
:1007E00080930002E4E0F2E0F491F987FF3F09F41E
:1007F000C4CFF23009F442C118F5FF2309F446C012
:10080000F13009F0B7CF10928000109281008091F2
:100810008100886080938100809181008160809355
:100820008100F1018491E82FF0E0EE0FFF1FEC55FD
:10083000FE4F85919491F8018491809379023CC098
:100840002985243009F45AC108F439C1253009F04A
:1008500091CF109220011092210180912101886096
:100860008093210180912101816080932101F10118
:100870008491E82FF0E0EE0FFF1FEC55FE4F8591BD
:100880009491F80184918093730216C014BC15BC36
:1008900084B5826084BD85B5816085BDF101849198
:1008A000E82FF0E0EE0FFF1FEC55FE4F859194917D
:1008B000F801849180937A02F8014491F1018491C6
:1008C000882399F090E0880F991FFC01EC5BFE4FA4
:1008D000A591B491FC01EC55FE4F259134918FB751
:1008E000F8949C91492B4C938FBFB701072E000CB5
:1008F000880B990B2CD320E030E040E450E4B3D3D4
:1009000020E030EC4FE754E48CD220E030E0A90145
:1009100024D26B017C01B301770C880B990B17D3A0
:100920009B01AC01C701B6019ED3E3D26B01F12C50
:10093000E12C60E072E18AE790E0A701960109D41A
:1009400029013A01BA01A90141505109610971090E
:1009500089858D7F09F04AC14F3F510561057105B9
:1009600009F00CF42AC160E472E48FE090E0A70182
:100970009601EFD3BA01A9014150510961097109EA
:10098000F985F23009F0D7C082E04F3F510561058B
:10099000710509F00CF45FC060E970ED83E090E050
:1009A000A7019601D6D3BA01A901415051096109A5
:1009B000710983E04F3F51056105710509F00CF4A1
:1009C0004AC068E478EE81E090E0A7019601C1D3C7
:1009D000BA01A901415051096109710984E04F3FF1
:1009E000510561057105B9F1B4F164E274EF80E07D
:1009F00090E0A7019601ADD3BA01A9014150510978
:100A00006109710985E04F3F51056105710519F1D3
:100A100010F162E17AE780E090E0A701960199D3B6
:100A2000BA01A901415051096109710986E04F3F9E
:100A300051056105710579F070F0B301A2019AE0EA
:100A400075956795579547959A95D1F741505109F6
:100A50006109710987E09091B100987F892B80939B
:100A6000B1008985823009F44BC10CF041C1882363
:100A700009F4ABC0813009F080CED6C01092B0002E
:100A80001092B1008091B00082608093B00080919C
:100A9000B10081608093B100F1018491E82FF0E012
:100AA000EE0FFF1FEC55FE4F8591949190937802C5
:100AB00080937702F801849180937602FDCE1092A4
:100AC0009000109291008091910088608093910035
:100AD00080919100816080939100F1018491E82FD1
:100AE000F0E0EE0FFF1FEC55FE4F85919491F80159
:100AF000849180937502F3E0F987DECE1092A00016
:100B00001092A1008091A10088608093A100809143
:100B1000A10081608093A100F1018491E82FF0E0B1
:100B2000EE0FFF1FEC55FE4F85919491F8018491D3
:100B300080937402C1CE4F3F51056105710509F0E4
:100B40000CF452C068E478EE81E090E0A7019601D1
:100B500000D3BA01A90141505109610971092985E0
:100B600084E0211150CF83E04F3F510561057105AD
:100B700041F13CF162E17AE780E090E0A701960163
:100B8000E8D2BA01A901415051096109710984E013
:100B90004F3F510561057105A1F098F0B301A20125
:100BA0008AE075956795579547958A95D1F7415095
:100BB00051096109710985E004C081E0398531116D
:100BC0004ACF95B5987F892B85BD47BD80928F020E
:100BD00090929002A0929102B092920280916E0047
:100BE000826080936E00C9CD82E0E8CF91E041152C
:100BF000510581E06807710574F068E478EE81E0E2
:100C000090E0A7019601A5D2BA01A901415051096E
:100C10006109710993E0E985E130C1F480918100B7
:100C2000887F892B809381005093890040938800AE
:100C300080928B0290928C02A0928D02B0928E02D2
:100C400080916F00826080936F0097CDF985F330BB
:100C5000C1F480919100887F892B809391005093FB
:100C60009900409398008092830290928402A0920F
:100C70008502B0928602809171008260809371003B
:100C80007CCD29852430C1F48091A100887F892BF7
:100C90008093A1005093A9004093A80080927F0206
:100CA00090928002A0928102B092820280917200A2
:100CB00082608093720061CD3985353009F0D1CEE4
:100CC00080912101887F892B8093210150932901F4
:100CD0004093280180927B0290927C02A0927D0238
:100CE000B0927E028091730082608093730045CD44
:100CF0009985943079F20CF4B2CF953039F33DCD2B
:100D00004093B3008092870290928802A092890259
:100D1000B0928A02809170008260809370002DCD25
:100D2000E1E0CE1AD108E108F108F8EE4F0EF3E049
:100D30005F1E611C711CC114D104E104F10409F4AB
:100D40002BCD52DB6419750986099709683E7340FB
:100D50008105910528F720CD5058BB27AA270ED032
:100D600048C139D130F03ED120F031F49F3F11F429
:100D70001EF42EC10EF4E095E7FB24C1E92F4AD101
:100D800080F3BA17620773078407950718F071F4A8
:100D90009EF562C10EF4E0950B2EBA2FA02D0B012B
:100DA000B90190010C01CA01A0011124FF27591BB0
:100DB00099F0593F50F4503E68F11A16F040A22FB6
:100DC000232F342F4427585FF3CF46953795279527
:100DD000A795F0405395C9F77EF41F16BA0B620B26
:100DE000730B840BBAF09150A1F0FF0FBB1F661F6D
:100DF000771F881FC2F70EC0BA0F621F731F841FB0
:100E000048F4879577956795B795F7959E3F08F0D5
:100E1000B3CF9395880F08F09927EE0F9795879594
:100E200008950CD0E6C0DED040F0D5D030F021F4EB
:100E30005F3F19F0C7C0511110C1CAC0EBD098F381
:100E40009923C9F35523B1F3951B550BBB27AA274B
:100E500062177307840738F09F5F5F4F220F331FBD
:100E6000441FAA1FA9F333D00E2E3AF0E0E830D089
:100E700091505040E695001CCAF729D0FE2F27D08C
:100E8000660F771F881FBB1F261737074807AB075A
:100E9000B0E809F0BB0B802DBF01FF2793585F4FCF
:100EA0002AF09E3F510568F08DC0D7C05F3FECF33C
:100EB000983EDCF3869577956795B795F7959F5F94
:100EC000C9F7880F911D9695879597F90895E1E0E8
:100ED000660F771F881FBB1F621773078407BA0747
:100EE00020F0621B730B840BBA0BEE1F88F7E095A2
:100EF000089598D088F09F5790F0B92F9927B7514F
:100F0000A0F0D1F0660F771F881F991F1AF0BA95CD
:100F1000C9F712C0B13081F09FD0B1E008959CC0F4
:100F2000672F782F8827B85F39F0B93FCCF38695C3
:100F300077956795B395D9F73EF490958095709520
:100F400061957F4F8F4F9F4F0895E89409C097FB9D
:100F50003EF490958095709561957F4F8F4F9F4F90
:100F60009923A9F0F92F96E9BB279395F6958795D4
:100F700077956795B795F111F8CFFAF4BB0F11F497
:100F800060FF1BC06F5F7F4F8F4F9F4F16C088233E
:100F900011F096E911C0772321F09EE8872F762F74
:100FA00005C0662371F096E8862F70E060E02AF0B5
:100FB0009A95660F771F881FDAF7880F96958795A1
:100FC00097F9089597F99F6780E870E060E00895C9
:100FD0009FEF80EC089500240A9416161706180651
:100FE0000906089500240A9412161306140605062D
:100FF0000895092E0394000C11F4882352F0BB0FBE
:1010000040F4BF2B11F460FF04C06F5F7F4F8F4F20
:101010009F4F089557FD9058440F551F59F05F3F5B
:1010200071F04795880F97FB991F61F09F3F79F00A
:1010300087950895121613061406551FF2CF46958C
:10104000F1DF08C0161617061806991FF1CF86950E
:101050007105610508940895E894BB2766277727F2
:10106000CB0197F908950BD0C4CFB5DF28F0BADFD4
:1010700018F0952309F0A6CFABCF1124EECFCADF2D
:10108000A0F3959FD1F3950F50E0551F629FF0019B
:10109000729FBB27F00DB11D639FAA27F00DB11DF4
:1010A000AA1F649F6627B00DA11D661F829F22277D
:1010B000B00DA11D621F739FB00DA11D621F839F04
:1010C000A00D611D221F749F3327A00D611D231FDA
:1010D000849F600D211D822F762F6A2F11249F5728
:1010E00050408AF0E1F088234AF0EE0FFF1FBB1F4B
:1010F000661F771F881F91505040A9F79E3F5105EA
:1011000070F060CFAACF5F3FECF3983EDCF386959A
:1011100077956795B795F795E7959F5FC1F7FE2B94
:10112000880F911D9695879597F9089597FB072E3F
:1011300016F4009406D077FD08D02FD007FC05D018
:101140003EF4909581959F4F0895709561957F4FDE
:101150000895052E97FB16F400940FD057FD05D087
:1011600030D007FC02D046F408C050954095309529
:1011700021953F4F4F4F5F4F089590958095709503
:1011800061957F4F8F4F9F4F0895EE0FFF1F881F70
:101190008BBF0790F691E02D1994AA1BBB1B51E160
:1011A00007C0AA1FBB1FA617B70710F0A61BB70BD7
:1011B000881F991F5A95A9F780959095BC01CD017C
:1011C0000895A1E21A2EAA1BBB1BFD010DC0AA1F88
:1011D000BB1FEE1FFF1FA217B307E407F50720F0A0
:1011E000A21BB30BE40BF50B661F771F881F991F1B
:1011F0001A9469F760957095809590959B01AC0164
:0A120000BD01CF010895F894FFCF5F
:10120A00FF930293029302930293029302930210B2
:10121A00030B024B029302BA02BA02BA02BA02BA28
:10122A0002930293029302930293024B024B02939C
:10123A00024B02100304000400020004000400022E
:10124A000004000400030008000100040004000375
:10125A000008000400040004000800080004000458
:0A126A00000400040002000200006E
:00000001FF
