:10000000F5C0000022C1000020C100001EC1000098
:100010001CC100001AC1000018C1000016C1000078
:1000200014C1000012C1000010C100000EC1000088
:100030000CC100000AC1000008C1000006C1000098
:1000400004C1000002C1000000C10000FEC00000A9
:10005000FCC00000FAC00000F8C00000D5C40000D9
:10006000F4C000009BC4000070C40000EEC000009B
:10007000ECC00000EAC00000E8C00000E6C00000DC
:10008000E4C00000E2C00000E0C00000DEC00000EC
:10009000DCC00000DAC00000D8C00000D6C00000FC
:1000A000D4C00000D2C00000D0C00000CEC000000C
:1000B000CCC00000CAC00000C8C00000C6C000001C
:1000C000C4C00000C2C00000C0C00000BEC000002C
:1000D000BCC00000BAC00000B8C00000B6C000003C
:1000E000B4C0000000000A0B02090C0D0E08070343
:1000F00004010000000000000000000000000000FB
:1001000000000000000000000000000000000000EF
:1001100012111000000000000000000000000000AC
:100120000000000000000000000000002200250088
:1001300028002B002E0031003400020100000501D0
:1001400008010B0100002100240027002A002D00D7
:100150003000330001010000040107010A01050518
:100160000505070508080808020202020A0A08082D
:10017000040404040101010101010101030303035B
:1001800003030303040707070C0C0C0C0C0C0C0CEA
:100190000202020206060606060606060B0B0B0BFB
:1001A0000B0B0B0B01021020200808102040102020
:1001B000408002010201080402010102040810202B
:1001C0004080804020100804020180040201804029
:1001D0002010080402010804020101020408102092
:1001E00040800102040810204080180711241FBE1F
:1001F000CFEFD1E2DEBFCDBF00E00CBF12E0A0E048
:10020000B2E0EAEEF3E100E00BBF02C007900D920E
:10021000A432B107D9F722E0A4E2B2E001C01D92F6
:10022000AF3CB207E1F710E0C6EFD0E000E005C058
:1002300021970109802FFE01A8D6C53FD10780E094
:100240000807B1F72BD40C94F309DACE90E0FC0147
:10025000EC55FE4F2491825A9E4FFC0184918823D5
:1002600099F090E0880F991FFC01EC5BFE4FA5917F
:10027000B491FC01E65DFE4F859194918FB7F8949F
:10028000EC91E22BEC938FBF0895AF92BF92CF9287
:10029000DF92EF92FF920F931F93CF93DF936C0146
:1002A0007B018B01040F151FEB015E01AE18BF0827
:1002B000C017D10759F06991D601ED91FC910190D9
:1002C000F081E02DC6011995892B79F7C501DF91E1
:1002D000CF911F910F91FF90EF90DF90CF90BF9043
:1002E000AF900895FC01538D448D252F30E0842F6D
:1002F00090E0821B930B541710F0CF96089501974E
:100300000895FC01918D828D981761F0A28DAE0F3A
:10031000BF2FB11D5D968C91928D9F5F9F73928FC1
:1003200090E008958FEF9FEF0895FC01918D828DED
:10033000981731F0828DE80FF11D858D90E00895BA
:100340008FEF9FEF0895FC01918D228D892F90E012
:10035000805C9F4F821B91098F73992708958EE2CD
:1003600092E0F1DF21E0892B09F420E0822F08954B
:10037000FC01A48DA80FB92FB11DA35ABF4F2C911A
:10038000848D90E001968F739927848FA689B78911
:100390002C93A089B1898C91837080648C93938D08
:1003A000848D981306C00288F389E02D80818F7DAB
:1003B00080830895EF92FF920F931F93CF93DF9363
:1003C000EC0181E0888F9B8D8C8D98131AC0E88991
:1003D000F989808185FF15C09FB7F894EE89FF8960
:1003E0006083E889F98980818370806480839FBFFE
:1003F00081E090E0DF91CF911F910F91FF90EF90FE
:100400000895F62E0B8D10E00F5F1F4F0F7311270D
:10041000E02E8C8D8E110BC00FB607FCFACFE88949
:10042000F989808185FFF5CFCE01A2DFF2CFEB8D78
:10043000EC0FFD2FF11DE35AFF4FF0829FB7F894A8
:100440000B8FEA89FB8980818062D0CFCF93DF93C5
:10045000EC01888D8823B1F0AA89BB89E889F989E4
:100460008C9185FD03C0808186FD0CC00FB607FC12
:10047000F7CF8C9185FFF2CF808185FFEDCFCE0144
:1004800077DFEACFDF91CF91089580E090E0892B6C
:1004900021F065DF81110E94000080E090E0892B4F
:1004A00049F080E090E0892B29F00E940000811142
:1004B0000E94000080E090E0892B49F080E090E00D
:1004C000892B29F00E94000081110E94000080E029
:1004D00090E0892B49F080E090E0892B29F00E9480
:1004E000000081110C9400000895282F30E0F901DC
:1004F000EC51FF4F9491F901EC55FE4F4491225A73
:100500003E4FF9012491222309F434C0992309F1C3
:1005100091509231F0F4E92FF0E08827EE56FD4F2C
:100520008F4F33C5C302C702A402BB02BF02A90298
:10053000CA02D002D402DA02DE02E202E802EC02CF
:10054000A902F002F602FA02809180008F77809370
:100550008000E22FF0E0EE0FFF1FE65DFE4FA59159
:10056000B4918FB7F894EC91611148C040954E2337
:100570004C938FBF0895809180008F7DE8CF80914C
:100580008000877FE4CF84B58F7784BDE2CF84B5C8
:100590008F7DFBCF8091B0008F778093B000D9CF53
:1005A0008091B0008F7DF9CF809190008F778093FC
:1005B0009000CFCF809190008F7DF9CF80919000F7
:1005C000877FF5CF8091A0008F778093A000C1CF67
:1005D0008091A0008F7DF9CF8091A000877FF5CF1B
:1005E000809120018F7780932001B3CF80912001EB
:1005F0008F7DF9CF80912001877FF5CF4E2BB8CF2B
:1006000090917B00977F90937B00865380648093CA
:100610007C0080917A00806480937A0080917A00D7
:1006200086FDFCCF809178009091790008953FB7C6
:10063000F8948091290290912A02A0912B02B09106
:100640002C0226B5A89B05C02F3F19F00196A11DCD
:10065000B11D3FBFBA2FA92F982F8827BC01CD010C
:10066000620F711D811D911D42E0660F771F881F6B
:10067000991F4A95D1F708958F929F92AF92BF929A
:10068000CF92DF92EF92FF924B015C01D0DF6B01C2
:100690007C01CDDF6C197D098E099F09683E73408E
:1006A00081059105B0F321E0821A9108A108B108F3
:1006B00088EEC80E83E0D81EE11CF11C8114910461
:1006C000A104B10431F7FF90EF90DF90CF90BF907D
:1006D000AF909F908F900895FC0101900020E9F762
:1006E0003197AF01481B590BBC018EE292E0CDCD92
:1006F0000F931F93CF93DF93EC018881998100972B
:1007000059F02A813B812617370730F081E0DF91CD
:10071000CF911F910F9108958B016F5F7F4F68D527
:10072000009759F0998388831B830A832C813D812C
:10073000232B61F7FC011082E9CF80E0E8CFCF9353
:10074000DF93EC0188819981009709F0C8D4198260
:1007500018821D821C821B821A82DF91CF9108951C
:10076000EF92FF920F931F93CF93DF931F921F92ED
:10077000CDB7DEB78C018EE389831A82F801E4805D
:10078000F580FFEFEF1AFF0AB701C801B1DF882338
:10079000C1F0F8012081318184819581BE016F5FB4
:1007A0007F4F820F931F09D6F801F582E482C801BA
:1007B0000F900F90DF91CF911F910F91FF90EF90CD
:1007C0000895C801BCDFF3CFEF92FF920F931F9300
:1007D000CF93DF93EC01FB01E080F180E114F104A1
:1007E00001F1048115810115110599F08C819D811C
:1007F000080F191FB801CE017BDF882391F02881F3
:1008000039818C819D81B701820F931FD6D51D83BD
:100810000C83CE01DF91CF911F910F91FF90EF904C
:100820000895CE018CDFF5CFEF92FF920F931F93C7
:10083000CF93DF93EC017B018A01BA0159DF81116B
:100840000AC0CE017CDFCE01DF91CF911F910F91C5
:10085000FF90EF9008951D830C83B70188819981E3
:10086000ACD5F1CFEF92FF920F931F93CF93DF930D
:10087000CDB7DEB762970FB6F894DEBF0FBECDBF1F
:100880008C01CB01F8011182108213821282158231
:1008900014824AE09E012F5F3F4F7901B901F5D2E2
:1008A000F70101900020E9F73197AF014E195F0978
:1008B000B701C801B9DF62960FB6F894DEBF0FBE6C
:1008C000CDBFDF91CF911F910F91FF90EF900895D1
:1008D000CF93DF931F921F92CDB7DEB7FC01118239
:1008E000108213821282158214822CE329831A82C9
:1008F000BE016F5F7F4FFB0101900020E9F7319748
:10090000AF01461B570B90DF0F900F90DF91CF91F7
:100910000895CF93DF93EC01FB018617970741F011
:10092000608171816115710539F0448155817CDFE9
:10093000CE01DF91CF91089502DFFACFFC018081D3
:100940009181009709F0CBC308951F920F920FB6C3
:100950000F9211240BB60F922F933F934F935F93F7
:100960006F937F938F939F93AF93BF93EF93FF9377
:100970008EE292E0FDDCFF91EF91BF91AF919F91EC
:100980008F917F916F915F914F913F912F910F9038
:100990000BBE0F900FBE0F901F9018951F920F92D5
:1009A0000FB60F9211240BB60F922F938F939F9334
:1009B000EF93FF93E0913E02F0913F028081E0913E
:1009C0004402F091450282FD1DC090818091470252
:1009D0008F5F8F7320914802821741F0E0914702A8
:1009E000F0E0E25DFD4F958F80934702FF91EF911C
:1009F0009F918F912F910F900BBE0F900FBE0F9074
:100A00001F9018958081F2CF1F920F920FB60F9210
:100A100011242F933F938F939F93AF93BF93809114
:100A2000250290912602A0912702B09128023091D0
:100A3000240223E0230F2D3758F50196A11DB11D87
:100A4000209324028093250290932602A0932702EC
:100A5000B09328028091290290912A02A0912B0242
:100A6000B0912C020196A11DB11D80932902909393
:100A70002A02A0932B02B0932C02BF91AF919F91B9
:100A80008F913F912F910F900FBE0F901F9018954F
:100A900026E8230F0296A11DB11DD2CFCF93DF937D
:100AA000CDB7DEB766970FB6F894DEBF0FBECDBFE9
:100AB000789484B5826084BD84B5816084BD85B539
:100AC000826085BD85B5816085BD80916E00816045
:100AD00080936E00109281008091810082608093EB
:100AE00081008091810081608093810080918000ED
:100AF0008160809380008091B10084608093B10018
:100B00008091B00081608093B000809191008260FC
:100B100080939100809191008160809391008091F9
:100B200090008160809390008091A100826080930A
:100B3000A1008091A10081608093A1008091A0001C
:100B400081608093A00080912101826080932101C7
:100B50008091210181608093210180912001816039
:100B60008093200180917A00846080937A00809144
:100B70007A00826080937A0080917A00816080930D
:100B80007A0080917A00806880937A001092C10088
:100B900084E15CDB85E15ADBE0913E02F0913F02AB
:100BA00082E08083E0913A02F0913B021082E09172
:100BB0003C02F0913D028FEC808310924602E0915E
:100BC0004202F091430286E08083E0914002F0917E
:100BD0004102808180618083E0914002F091410276
:100BE000808188608083E0914002F09141028081A1
:100BF00080688083E0914002F091410280818F7D86
:100C000080831FB7F89480912D02811120C0E3E901
:100C1000F1E08491E9EDF1E09491E82FF0E0EE0F3E
:100C2000FF1FEC5BFE4FA591B491EC91E92319F401
:100C300061E085E35ADC85E309DB8CB580618CBD1E
:100C40008CB580648CBD84E301DB83E3FFDA8091A3
:100C50002D028F5F80932D021FBF8CB58C7F81602A
:100C60008CBD8DB581608DBD60E084E13EDC61E0CE
:100C700085E13BDC44244A9483E0582E612C712C9E
:100C80007E018BE0E80EF11C87E3BADC8C0186E381
:100C9000B7DC6C0164E670E080E090E0EDDC26E912
:100CA00030E0D6017AD1A301920122D1CA01B90163
:100CB0006852710981099109CE014196D3DDCE01B7
:100CC000019606DEBE016F5E7F4FCE0101967CDD90
:100CD00047DDBC01CE0141961CDECE0101962EDE21
:100CE00023E630E0D80159D1A301920101D1B90125
:100CF00061507109C701B6DDCE010196E9DDB7018A
:100D0000CE01019661DD2CDDBC01C70102DECE0102
:100D1000019614DE0D891E890115110529F5198228
:100D200088E192E0D9DCCE010196D6DC81E292E046
:100D3000D3DC6AE070E080E090E09EDCFE0131965A
:100D40005F016F01EC14FD0411F1F60181916F0157
:100D50008EBD00000DB407FEFDCF8EB56AE070E0D9
:100D600080E090E089DCEECF0930110510F009E059
:100D700010E069897A89A801CE01019625D3E1E0C6
:100D8000F0E0EC0FFD1FE00FF11F1082C9CF60E013
:100D900085E1ABDB61E084E1A8DB68EC70E080E03A
:100DA00090E06ADC0F85188901151105E1F41982BC
:100DB00088E192E091DCCE0101968EDC81E292E046
:100DC0008BDCAC14BD0411F1F50181915F018EBD86
:100DD00000000DB407FEFDCF8EB56AE070E080E044
:100DE00090E04ADCEECF0930110510F009E010E088
:100DF0006B857C85A801CE010196E6D2E1E0F0E0AA
:100E0000EC0FFD1FE00FF11F1082D2CF60E084E1F4
:100E10006CDB61E085E169DB68EC70E080E090E02C
:100E20002BDCC7018BDDCE01419688DD2EDB2CCF7C
:100E3000EEE2F2E01382128288EE93E0A0E0B0E0EE
:100E400084839583A683B7838AE092E0918380832D
:100E500085EC90E09587848784EC90E0978786877F
:100E600080EC90E0918B808B81EC90E0938B828B77
:100E700082EC90E0958B848B86EC90E0978B868B50
:100E8000118E128E138E148E0895BB274A3031F4C2
:100E9000992322F4BDE2909581959F4F01C0BB2715
:100EA000FB015527AA27880F991FAA1FA41710F026
:100EB000A41B83955051B9F7A05DAA3308F0A95D32
:100EC000A193009779F7B111B1931192CB0100C0B2
:100ED000DC01FC01672F71917723E1F7329704C0A1
:100EE0007C916D9370836291AE17BF07C8F308952C
:100EF000052E97FB16F400940FD057FD05D014D0A3
:100F000007FC02D046F408C05095409530952195D5
:100F10003F4F4F4F5F4F0895909580957095619525
:100F20007F4F8F4F9F4F0895A1E21A2EAA1BBB1B24
:100F3000FD010DC0AA1FBB1FEE1FFF1FA217B307A5
:100F4000E407F50720F0A21BB30BE40BF50B661FBB
:100F5000771F881F991F1A9469F76095709580957F
:100F600090959B01AC01BD01CF010895A29FB001F6
:100F7000B39FC001A39F700D811D1124911DB29FCD
:100F8000700D811D1124911D0895EE0FFF1F881F04
:100F90008BBF0790F691E02D1994E8DFB7FF089515
:100FA000821B930B08950F931F93CF93DF9382308F
:100FB000910510F482E090E0E091CD02F091CE0234
:100FC00030E020E0B0E0A0E0309799F42115310541
:100FD00009F44AC0281B390B24303105D8F58A8121
:100FE0009B816115710589F1FB0193838283FE0169
:100FF00011C0408151810281138148175907E0F0E7
:101000004817590799F4109761F012960C931297AC
:1010100013961C933296CF01DF91CF911F910F91C0
:1010200008950093CD021093CE02F4CF211531051F
:1010300051F04217530738F0A901DB019A01BD01B5
:10104000DF01F801C1CFEF01F9CF9093CE02809379
:10105000CD02CDCFFE01E20FF31F81939193225079
:10106000310939832883D7CF2091CB023091CC022C
:10107000232B41F420910202309103023093CC02E1
:101080002093CB02209100023091010221153105FD
:1010900041F42DB73EB74091040250910502241B44
:1010A000350BE091CB02F091CC02E217F307A0F4EC
:1010B0002E1B3F0B2817390778F0AC014E5F5F4FAE
:1010C0002417350748F04E0F5F1F5093CC02409312
:1010D000CB02819391939FCFF0E0E0E09CCFCF9340
:1010E000DF930097E9F0FC01329713821282A091FE
:1010F000CD02B091CE02ED0130E020E01097A1F4D6
:1011000020813181820F931F2091CB023091CC023C
:101110002817390709F061C0F093CC02E093CB02A5
:10112000DF91CF910895EA01CE17DF07E8F54A81F4
:101130005B819E0141155105B1F7E901FB83EA830B
:1011400049915991C40FD51FEC17FD0761F48081B7
:1011500091810296840F951FE9019983888382818A
:1011600093819B838A83F0E0E0E012968D919C91BD
:1011700013970097B9F52D913C911197CD010296E7
:10118000820F931F2091CB023091CC022817390790
:1011900039F6309751F51092CE021092CD02B093ED
:1011A000CC02A093CB02BCCFD383C28340815181B8
:1011B000840F951FC817D90761F44E5F5F4F888170
:1011C0009981480F591F518340838A819B81938362
:1011D00082832115310509F0B0CFF093CE02E09360
:1011E000CD029ECFFD01DC01C0CF13821282D7CF8A
:1011F0004F925F926F927F928F929F92AF92BF9227
:10120000CF92DF92EF92FF920F931F93CF93DF93D2
:101210008C01009791F4CB01DF91CF911F910F9139
:10122000FF90EF90DF90CF90BF90AF909F908F9006
:101230007F906F905F904F90B6CEFC01E60FF71F46
:101240009C0122503109E217F30708F4AAC0D90122
:10125000CD91DC911197C617D70718F1C530D1058C
:1012600070F0CE0104978617970748F0C61BD70B7E
:101270002297C193D1936D937C93CF0130DFC80146
:10128000DF91CF911F910F91FF90EF90DF90CF9062
:10129000BF90AF909F908F907F906F905F904F9096
:1012A00008955B01AC1ABD0A4C018C0E9D1EA091E5
:1012B000CD02B091CE02512C412CF12CE12C109793
:1012C00031F58091CB029091CC028815990509F0F7
:1012D0005CC04616570608F058C0809100029091F5
:1012E0000102009741F48DB79EB7409104025091DE
:1012F0000502841B950BE817F90708F052C0F0931C
:10130000CC02E093CB02F90171836083B8CF8D9159
:101310009C91119712966C90129713967C9013974C
:10132000A815B90559F56C0142E0C40ED11CCA14C8
:10133000DB0420F1AC014A195B09DA01129615971A
:1013400080F06282738251834083D9016D937C93D4
:10135000E114F10471F0D7011396FC93EE93129708
:101360008ECF22968C0F9D1FF90191838083F3010C
:10137000EFCFF093CE02E093CD0281CF481659060D
:1013800008F42C017D01D3019ACFCB010CDE7C0146
:10139000009739F0AE01B80107D0C801A0DE87017F
:1013A0006ECF10E000E06BCFFB01DC0102C00190CA
:1013B0000D9241505040D8F70895FB01DC01019097
:1013C0000D920020E1F70895FB01DC0141505040EF
:1013D00048F001900D920020C9F701C01D924150C4
:0A13E0005040E0F70895F894FFCFA5
:1013EA000000CF02800000000000DA01450172010E
:1013FA002602A301810195014D61737465723A2039
:04140A00000D0A00C7
:00000001FF
