:1000000002C100002EC100002CC100002AC1000066
:1000100028C1000026C1000024C1000022C1000048
:1000200020C100001EC100001CC100001AC1000058
:1000300018C1000016C1000014C1000012C1000068
:1000400010C100000EC100000CC100000AC1000078
:1000500008C1000006C1000004C10000A2C30000E6
:1000600000C10000FEC00000FCC00000FAC000009B
:10007000F8C00000F6C00000F4C00000F2C00000AC
:10008000F0C00000EEC00000ECC00000EAC00000BC
:10009000E8C00000E6C00000E4C00000E2C00000CC
:1000A000E0C00000DEC00000DCC00000DAC00000DC
:1000B000D8C00000D6C00000D4C00000D2C00000EC
:1000C000D0C00000CEC00000CCC00000CAC00000FC
:1000D000C8C00000C6C00000C4C00000C2C000000C
:1000E000C0C0000000002100240027002A002D00CD
:1000F0003000330001010000040107010A01000083
:100100002200250028002B002E00310034000201BF
:100110000000050108010B0100002000230026005B
:1001200029002C002F00320000010000030106010D
:10013000090105050505070508080808020202026D
:100140000A0A080804040404010101010101010173
:100150000303030303030303040707070C0C0C0C3E
:100160000C0C0C0C02020202060606060606060627
:100170000B0B0B0B0B0B0B0B0102102020080810B4
:100180002040102040800201020108040201010207
:1001900004081020408080402010080402018004E0
:1001A000020180402010080402010804020101023B
:1001B0000408102040800102040810204080000044
:1001C0000A0B02090C0D0E080703040100000000D1
:1001D000000000000000000000000000000000001F
:1001E00000000000000000000000121110000000DC
:1001F00000000000000000000000000000000000FF
:1002000000000000C10411241FBECFEFD1E2DEBF09
:10021000CDBF00E00CBF12E0A0E0B2E0E0EDF9E0FD
:1002200000E00BBF02C007900D92AA31B107D9F7C9
:1002300022E0AAE1B2E001C01D92AB33B207E1F7C0
:1002400011E0C3E0D1E000E005C021970109802F53
:10025000FE01B4D3C230D10780E00807B1F7EBD27A
:10026000B5C3CECEAF92BF92CF92DF92EF92FF9204
:100270000F931F93CF93DF936C017B018B01040FCE
:10028000151FEB015E01AE18BF08C017D10759F06A
:100290006991D601ED91FC910190F081E02DC601AC
:1002A0001995892B79F7C501DF91CF911F910F9196
:1002B000FF90EF90DF90CF90BF90AF900895815066
:1002C000823108F059C0E82FF0E08827E659FE4F48
:1002D0008F4F74C38A018E017C0182018601BC01AB
:1002E000910197019B01A101A501A901AF01B301F2
:1002F000BC01B701BD01C101809180008F7780935F
:1003000080000895809180008F7DF9CF80918000DA
:10031000877FF5CF84B58F7784BD089584B58F7DB1
:10032000FBCF8091B0008F778093B00008958091CB
:10033000B0008F7DF9CF809190008F7780939000EF
:100340000895809190008F7DF9CF80919000877FF4
:10035000F5CF8091A0008F778093A00008958091C1
:10036000A0008F7DF9CF8091A000877FF5CF80918D
:1003700020018F77809320010895809120018F7D47
:10038000F9CF80912001877FF5CFCF93DF93282F7E
:1003900030E0F901E254FE4F8491F901E858FE4F34
:1003A000D491F901EE5CFE4FC491CC2399F08111F8
:1003B00086DFEC2FF0E0EE0FFF1FE85EFE4FA59109
:1003C000B491EC91ED2381E090E009F480E0DF91BD
:1003D000CF91089580E090E0FACF1F93CF93DF9301
:1003E000282F30E0F901E254FE4F8491F901E858DA
:1003F000FE4FD491F901EE5CFE4FC491CC23A1F0E5
:10040000162F81115CDFEC2FF0E0EE0FFF1FE250A2
:10041000FF4FA591B4918FB7F894EC91111108C0DA
:10042000D095DE23DC938FBFDF91CF911F9108958C
:10043000DE2BF8CFCF93DF9390E0FC01E858FE4F1E
:1004400024918E5C9E4FFC0184918823D1F090E032
:10045000880F991FFC01EC51FF4FA591B491FC014D
:10046000E250FF4FC591D49161110EC09FB7F8942F
:100470008C91E22FE0958E238C932881E223E883F0
:100480009FBFDF91CF9108958FB7F894EC91E22B45
:10049000EC938FBFF6CF3FB7F89480911F029091F5
:1004A0002002A0912102B091220226B5A89B05C08E
:1004B0002F3F19F00196A11DB11D3FBFBA2FA92FE3
:1004C000982F8827BC01CD01620F711D811D911DE0
:1004D00042E0660F771F881F991F4A95D1F708954C
:1004E0008F929F92AF92BF92CF92DF92EF92FF9244
:1004F000D2DF4B015C0184EFC82EDD24D394E12CC4
:10050000F12CC9DF681979098A099B09683E734093
:1005100081059105B0F321E0C21AD108E108F10884
:1005200088EE880E83E0981EA11CB11CC114D10472
:10053000E104F10431F7FF90EF90DF90CF90BF908E
:10054000AF909F908F900895089590E080E0089577
:10055000CF93DF93EC0160E08E813FDF61E08E811D
:100560003CDF60E08E8139DF8BE891E00197F1F7A5
:10057000DF91CF910895CF92DF92EF92FF920F9388
:100580001F93CF93DF936C017C0187E0E80EF11C91
:10059000D0E0C0E0062F10E0B8010C2E02C0759527
:1005A00067950A94E2F76170F70181917F0115DF89
:1005B0002196C430D10581F7C601DF91CF911F91FB
:1005C0000F91FF90EF90DF90CF90C2CFCF92DF924C
:1005D000EF92FF920F931F93CF93DF93EC01F62ED0
:1005E000642F8C81FADE8D818F3F11F060E0F5DEA3
:1005F0000F2D10E08F8584FF23C06E0187E0C80EA9
:10060000D11CF12CE12CB8010E2C02C07595679518
:100610000A94E2F76170F60181916F01DEDEFFEF6F
:10062000EF1AFF0A88E0E816F10469F7CE01DF91BE
:10063000CF911F910F91FF90EF90DF90CF9088CFD7
:10064000B80184E0759567958A95E1F7CE0193DF4F
:100650006F2DCE01DF91CF911F910F91FF90EF9001
:10066000DF90CF9088CF40E0682F83E292E0AECF5A
:10067000CF93DF93823029F4909132029860909367
:100680003202809336021092370280E4809338025F
:1006900080E18093390280E580933A0261E08091A5
:1006A0002702C8DE809128028F3F11F061E0C2DE90
:1006B00061E080912902BEDEC3E2D2E09E012352B6
:1006C00032408091320284FD0AC084E090E021969D
:1006D000281739073CF461E08E81ACDEEFCF88E06B
:1006E00090E0F5CF8BE39DE00197F1F760E080911A
:1006F000270273DE60E0809129026FDE809128027C
:100700008F3F11F060E069DE8091320284FD31C0DC
:1007100063E083E292E02FDFCBE4D6E4CE010197E1
:10072000F1F763E083E292E026DF2197F1F763E0DF
:1007300083E292E020DF83E592E00197F1F762E047
:1007400083E292E018DF8091320280628CDF84E0E5
:10075000809333028CE087DF81E085DF8BE39FE1CC
:100760000197F1F782E08093340286E0DF91CF9128
:100770007ACF806278DF8BE496E40197F1F780917D
:100780003202806270DF83E592E00197F1F7809199
:100790003202806268DFD7CF41E018DF81E090E06D
:1007A00008951F920F920FB60F9211242F933F932B
:1007B0008F939F93AF93BF9380911B0290911C02E4
:1007C000A0911D02B0911E0230911A0223E0230F66
:1007D0002D3758F50196A11DB11D20931A02809363
:1007E0001B0290931C02A0931D02B0931E028091E5
:1007F0001F0290912002A0912102B0912202019645
:10080000A11DB11D80931F0290932002A09321028D
:10081000B0932202BF91AF919F918F913F912F9101
:100820000F900FBE0F901F90189526E8230F029689
:10083000A11DB11DD2CF789484B5826084BD84B5EA
:10084000816084BD85B5826085BD85B5816085BDCB
:1008500080916E00816080936E0010928100809183
:10086000810082608093810080918100816080930B
:100870008100809180008160809380008091B10030
:1008800084608093B1008091B00081608093B0005B
:1008900080919100826080939100809191008160AD
:1008A000809391008091900081608093900080916E
:1008B000A10082608093A1008091A100816080935B
:1008C000A1008091A00081608093A000809121010F
:1008D00082608093210180912101816080932101B8
:1008E0008091200181608093200180917A00846052
:1008F00080937A0080917A00826080937A00809160
:100900007A00816080937A0080917A008068809379
:100910007A001092C10060E088E08CDD60E089E040
:1009200089DD60E08AE086DD82E0A2DE4DE050E015
:100930006CE072E083E292E095DC0BE31FE1C0E043
:10094000D0E088E022DD6C0189E01FDD7C018AE0D7
:100950001CDDCA94CD2841F488E185DEC1DD2097F5
:1009600081F30E940000EDCFEA94EF2811F48CE1AE
:10097000F4CF0197A1F781E076DEC8010197F1F786
:10098000EECFE3E2F2E01382128284E092E0918300
:1009900080838CE084838FEF85838BE0868385E082
:1009A000878384E0808783E0818782E08287138663
:1009B000148615861686178681E05ACEEE0FFF1F25
:1009C000881F8BBF0790F691E02D1994F894FFCF04
:1009D00000000000CC033201A502A402417269614B
:0A09E0006E20426F756B616E6900B6
:00000001FF
