:10000000D3C00000FFC00000FDC00000FBC0000026
:10001000F9C00000F7C00000F5C00000F3C0000008
:10002000F1C00000EFC00000EDC00000EBC0000018
:10003000E9C00000E7C00000E5C00000E3C0000028
:10004000E1C00000DFC00000DDC00000DBC0000038
:10005000D9C00000D7C00000D5C0000079C20000A0
:1000600020C30000E8C20000BDC20000CBC00000F9
:10007000C9C00000C7C00000C5C00000C3C0000068
:10008000C1C00000BFC00000BDC00000BBC0000078
:10009000B9C00000B7C00000B5C00000B3C0000088
:1000A000B1C00000AFC00000ADC00000ABC0000098
:1000B000A9C00000A7C00000A5C00000A3C00000A8
:1000C000A1C000009FC000009DC000009BC00000B8
:1000D00099C0000097C0000095C0000093C00000C8
:1000E00091C0000000002200250028002B002E00F7
:1000F0003100340002010000050108010B0100007D
:100100002100240027002A002D00300033000101C7
:100110000000040107010A01050505050705080897
:100120000808020202020A0A080804040404010181
:100130000101010101010303030303030303040796
:1001400007070C0C0C0C0C0C0C0C0202020206062D
:100150000606060606060B0B0B0B0B0B0B0B010220
:1001600010202008081020401020408002010201C9
:100170000804020101020408102040808040201081
:1001800008040201800402018040201008040201DA
:100190000804020101020408102040800102040842
:1001A00010204080EC03190511241FBECFEFD1E2CF
:1001B000DEBFCDBF00E00CBF23E0A2E5B2E001C08E
:1001C0001D92A430B207E1F712E0A0E0B2E0E6E948
:1001D000FEE000E00BBF02C007900D92A235B10710
:1001E000D9F710E0C3EDD0E000E005C02197010988
:1001F000802FFE0126D4C23DD10780E00807B1F769
:100200005CD338C6FDCEAF92BF92CF92DF92EF9211
:10021000FF920F931F93CF93DF936C017B018B01B0
:10022000040F151FEB015E01AE18BF08C017D10700
:1002300059F06991D601ED91FC910190F081E02D8A
:10024000C6011995892B79F7C501DF91CF911F91CF
:100250000F91FF90EF90DF90CF90BF90AF900895F7
:10026000FC01538D448D252F30E0842F90E0821BBC
:10027000930B541710F0CF96089501970895FC0141
:10028000918D828D981761F0A28DAE0FBF2FB11D99
:100290005D968C91928D9F5F9F73928F90E00895F1
:1002A0008FEF9FEF0895FC01918D828D981731F0AB
:1002B000828DE80FF11D858D90E008958FEF9FEFFF
:1002C0000895FC01918D228D892F90E0805C9F4FD5
:1002D000821B91098F73992708958DE592E0F1DFD4
:1002E00021E0892B09F420E0822F0895FC01A48DE0
:1002F000A80FB92FB11DA35ABF4F2C91848D90E048
:1003000001968F739927848FA689B7892C93A0892A
:10031000B1898C91837080648C93938D848D9813B4
:1003200006C00288F389E02D80818F7D8083089547
:10033000EF92FF920F931F93CF93DF93EC0181E035
:10034000888F9B8D8C8D98131AC0E889F9898081DC
:1003500085FF15C09FB7F894EE89FF896083E8890F
:10036000F98980818370806480839FBF81E090E001
:10037000DF91CF911F910F91FF90EF900895F62E8E
:100380000B8D10E00F5F1F4F0F731127E02E8C8D28
:100390008E110BC00FB607FCFACFE889F98980816E
:1003A00085FFF5CFCE01A2DFF2CFEB8DEC0FFD2F55
:1003B000F11DE35AFF4FF0829FB7F8940B8FEA8943
:1003C000FB8980818062D0CFCF93DF93EC01888D51
:1003D0008823B1F0AA89BB89E889F9898C9185FDC8
:1003E00003C0808186FD0CC00FB607FCF7CF8C914F
:1003F00085FFF2CF808185FFEDCFCE0177DFEACF99
:10040000DF91CF91089580E090E0892B21F065DFA6
:1004100081110E94000080E090E0892B49F080E08B
:1004200090E0892B29F00E94000081110E940000B9
:1004300080E090E0892B49F080E090E0892B29F062
:100440000E94000081110E94000080E090E0892B52
:1004500049F080E090E0892B29F00E940000811192
:100460000C9400000895CF93DF9390E0FC01E25AD2
:10047000FE4F2491885E9E4FFC0184918823C9F031
:1004800090E0880F991FFC01E250FF4FA591B491B5
:10049000FC01EC51FF4FC591D49161110DC09FB784
:1004A000F8948C91209582238C938881282328832B
:1004B0009FBFDF91CF910895623051F49FB7F894B8
:1004C0003C91822F809583238C93E8812E2BEFCF54
:1004D0008FB7F894EC912E2B2C938FBFEACFFC01B1
:1004E00001900020E9F73197AF01481B590BBC017F
:1004F0008DE592E088CECF93DF93EC018091FA02F4
:100500009091FB02009759F02091FC023091FD027E
:100510002C173D0720F081E0DF91CF910895BE01B7
:100520006F5F7F4FBBD3009789F09093FB0280935E
:10053000FA02D093FD02C093FC022091FE0230919A
:10054000FF02232B41F7FC011082E5CF80E0E4CFCE
:100550001F920F920FB60F9211242F933F938F93F8
:100560009F93AF93BF938091590290915A02A091AB
:100570005B02B0915C023091580223E0230F2D37CB
:1005800058F50196A11DB11D209358028093590280
:1005900090935A02A0935B02B0935C028091540244
:1005A00090915502A0915602B09157020196A11D5B
:1005B000B11D8093540290935502A0935602B093BC
:1005C0005702BF91AF919F918F913F912F910F90C3
:1005D0000FBE0F901F90189526E8230F0296A11DBD
:1005E000B11DD2CF1F920F920FB60F9211240BB6EE
:1005F0000F922F933F934F935F936F937F938F93BC
:100600009F93AF93BF93EF93FF938DE592E06EDEE0
:10061000FF91EF91BF91AF919F918F917F916F91DA
:100620005F914F913F912F910F900BBE0F900FBE96
:100630000F901F9018951F920F920FB60F921124D2
:100640000BB60F922F938F939F93EF93FF93E091AD
:100650006D02F0916E028081E0917302F09174025C
:1006600082FD1DC09081809176028F5F8F732091F3
:100670007702821741F0E0917602F0E0E35AFD4FF5
:10068000958F80937602FF91EF919F918F912F919B
:100690000F900BBE0F900FBE0F901F90189580818A
:1006A000F2CF1F920F920FB60F9211240BB60F923A
:1006B0000F931F932F933F934F935F936F937F936A
:1006C0008F939F93AF93BF93EF93FF93CF93DF935A
:1006D0001F921F92CDB7DEB78EB58C33E1F481E067
:1006E000809353020F900F90DF91CF91FF91EF9184
:1006F000BF91AF919F918F917F916F915F914F913A
:100700003F912F911F910F910F900BBE0F900FBE35
:100710000F901F901895909153028E3309F039C0B5
:10072000992301F388E492E0DADE4091FE025091D1
:10073000FF026091FA027091FB028DE592E063DDA9
:1007400085E492E0CCDE90E080E0D5DE2091FA02F4
:100750003091FB02811114C02115310511F0C9013E
:1007600014D21092FB021092FA021092FF02109221
:10077000FE021092FD021092FC0210925302B2CFC0
:100780001092FF021092FE0267E472E0C9016BD37F
:10079000F4CF992309F4A6CF89831A820091FE022F
:1007A0001091FF020F5F1F4FC801A5DE882309F4D7
:1007B00099CF2091FA023091FB028091FE02909134
:1007C000FF02BE016F5F7F4F820F931F4CD31093C8
:1007D000FF020093FE0286CF1092600210925F0229
:1007E00088EE93E0A0E0B0E0809361029093620213
:1007F000A0936302B09364028AE092E090935E0259
:1008000080935D0285EC90E090936A028093690288
:1008100084EC90E090936C0280936B0280EC90E00B
:1008200090936E0280936D0281EC90E09093700241
:1008300080936F0282EC90E0909372028093710239
:1008400086EC90E09093740280937302109276028B
:100850001092770210927802109279021092FB02A5
:100860001092FA021092FD021092FC021092FF0206
:100870001092FE0290E080E03EDE2091FA0230917C
:10088000FB02811112C02115310511F0C9017DD182
:100890001092FB021092FA021092FF021092FE02D6
:1008A0001092FD021092FC0208951092FF02109225
:1008B000FE0267E472E0C901D6C2789484B5826012
:1008C00084BD84B5816084BD85B5826085BD85B5F4
:1008D000816085BD80916E00816080936E00109272
:1008E00081008091810082608093810080918100ED
:1008F000816080938100809180008160809380007E
:100900008091B10084608093B1008091B0008160DB
:100910008093B000809191008260809391008091DB
:10092000910081608093910080919000816080931C
:1009300090008091A10082608093A1008091A1002D
:1009400081608093A1008091A00081608093A000CD
:100950008091210182608093210180912101816039
:1009600080932101809120018160809320018091FA
:100970007A00846080937A0080917A00826080930C
:100980007A0080917A00816080937A0080917A0069
:10099000806880937A001092C100E0916D02F0911E
:1009A0006E0282E08083E0916902F0916A02108217
:1009B000E0916B02F0916C028FEC808310927502D3
:1009C000E0917102F091720286E08083E0916F0203
:1009D000F0917002808180618083E0916F02F091DC
:1009E0007002808188608083E0916F02F0917002D4
:1009F000808180688083E0916F02F0917002808135
:100A00008F7D808362E085E32EDD60E083E32BDD74
:100A100060E084E328DD8CB580648CBD8CB5806893
:100A20008CBD88E192E05BDD85E492E058DDEBDC93
:100A3000FECF8091FA029091FB02009709F0A5C0C9
:100A40000895EE0FFF1F881F8BBF0790F691E02DD2
:100A500019940F931F93CF93DF938230910510F475
:100A600082E090E0E0910203F091030330E020E0A7
:100A7000B0E0A0E0309799F42115310509F44AC09F
:100A8000281B390B24303105D8F58A819B816115EB
:100A9000710589F1FB0193838283FE0111C04081BE
:100AA00051810281138148175907E0F0481759070F
:100AB00099F4109761F012960C93129713961C9369
:100AC0003296CF01DF91CF911F910F91089500933E
:100AD000020310930303F4CF2115310551F042179F
:100AE000530738F0A901DB019A01BD01DF01F801CC
:100AF000C1CFEF01F9CF9093030380930203CDCFD1
:100B0000FE01E20FF31F8193919322503109398343
:100B10002883D7CF2091000330910103232B41F488
:100B200020910202309103023093010320930003CD
:100B300020910002309101022115310541F42DB7B9
:100B40003EB74091040250910502241B350BE09101
:100B50000003F0910103E217F307A0F42E1B3F0BF3
:100B60002817390778F0AC014E5F5F4F241735071F
:100B700048F04E0F5F1F5093010340930003819391
:100B800091939FCFF0E0E0E09CCFCF93DF9300976D
:100B9000E9F0FC01329713821282A0910203B09116
:100BA0000303ED0130E020E01097A1F420813181B2
:100BB000820F931F209100033091010328173907FA
:100BC00009F061C0F0930103E0930003DF91CF913E
:100BD0000895EA01CE17DF07E8F54A815B819E019F
:100BE00041155105B1F7E901FB83EA834991599118
:100BF000C40FD51FEC17FD0761F480819181029627
:100C0000840F951FE90199838883828193819B8357
:100C10008A83F0E0E0E012968D919C911397009703
:100C2000B9F52D913C911197CD010296820F931F3A
:100C300020910003309101032817390739F63097C6
:100C400051F51092030310920203B0930103A09395
:100C50000003BCCFD383C28340815181840F951F91
:100C6000C817D90761F44E5F5F4F88819981480F9B
:100C7000591F518340838A819B81938382832115ED
:100C8000310509F0B0CFF0930303E09302039ECF48
:100C9000FD01DC01C0CF13821282D7CF4F925F9249
:100CA0006F927F928F929F92AF92BF92CF92DF927C
:100CB000EF92FF920F931F93CF93DF938C010097D6
:100CC00091F4CB01DF91CF911F910F91FF90EF90A5
:100CD000DF90CF90BF90AF909F908F907F906F905C
:100CE0005F904F90B6CEFC01E60FF71F9C0122509B
:100CF0003109E217F30708F4AAC0D901CD91DC91BC
:100D00001197C617D70718F1C530D10570F0CE017D
:100D100004978617970748F0C61BD70B2297C193F5
:100D2000D1936D937C93CF0130DFC801DF91CF91D8
:100D30001F910F91FF90EF90DF90CF90BF90AF90F9
:100D40009F908F907F906F905F904F9008955B0180
:100D5000AC1ABD0A4C018C0E9D1EA0910203B091ED
:100D60000303512C412CF12CE12C109731F580918B
:100D70000003909101038815990509F05CC046169F
:100D8000570608F058C08091000290910102009728
:100D900041F48DB79EB74091040250910502841B27
:100DA000950BE817F90708F052C0F0930103E093A0
:100DB0000003F90171836083B8CF8D919C911197E5
:100DC00012966C90129713967C901397A815B905FC
:100DD00059F56C0142E0C40ED11CCA14DB0420F1A9
:100DE000AC014A195B09DA011296159780F062820C
:100DF000738251834083D9016D937C93E114F10494
:100E000071F0D7011396FC93EE9312978ECF229632
:100E10008C0F9D1FF90191838083F301EFCFF09335
:100E20000303E093020381CF4816590608F42C010E
:100E30007D01D3019ACFCB010CDE7C01009739F004
:100E4000AE01B80107D0C801A0DE87016ECF10E067
:100E500000E06BCFFB01DC0102C001900D9241501C
:100E60005040D8F70895FB01DC0101900D9200205D
:100E7000E1F7089510E0C3EDD0E000E005C0802F59
:100E8000FE01DFDD2196011DC43DD10780E008078A
:060E9000B1F7F894FFCF5A
:100E960000000403800000000000980103013001F7
:100EA600E40161013F01530169276D2074686520E3
:100EB600736C61766520616E642077616974696E12
:100EC6006720666F72203C48656C6C6F20576F72A6
:100ED6006C64213E000D0A004D61737465723A2000
:020EE60000000A
:00000001FF
