:1000000003C1000032C1000030C100002EC1000059
:100010002CC100002AC1000028C1000026C1000038
:1000200024C1000022C1000020C100001EC1000048
:100030001CC100001AC1000018C1000016C1000058
:1000400014C100000C94FB0A10C100000EC1000096
:100050000CC100000AC1000008C100000C942A0A6B
:1000600004C1000002C1000000C10000FEC0000089
:10007000FCC00000FAC00000F8C00000F6C000009C
:100080000C94CE0AF2C00000F0C00000EEC00000E8
:10009000ECC00000EAC00000E8C00000E6C00000BC
:1000A000E4C00000E2C000000C94A10ADEC0000021
:1000B000DCC00000DAC00000D8C000000C94740A54
:1000C000D4C00000D2C00000D0C00000CEC00000EC
:1000D000CCC00000CAC00000C8C00000C6C00000FC
:1000E000C4C0000000002100240027002A002D00C9
:1000F0003000330001010000040107010A01000083
:100100002200250028002B002E00310034000201BF
:100110000000050108010B0100002000230026005B
:1001200029002C002F00320000010000030106010D
:10013000090105050505070508080808020202026D
:100140000A0A080804040404010101010101010173
:100150000303030303030303040707070C0C0C0C3E
:100160000C0C0C0C02020202060606060606060627
:100170000B0B0B0B0B0B0B0B0102102020080810B4
:100180002040102040800201020108040201010207
:1001900004081020408080402010080402018004E0
:1001A000020180402010080402010804020101023B
:1001B0000408102040800102040810204080000044
:1001C0000A0B02090C0D0E080703040100000000D1
:1001D000000000000000000000000000000000001F
:1001E00000000000000000000000121110000000DC
:1001F00000000000000000000000000000000000FF
:1002000000000000360FED1111241FBECFEFD1E228
:10021000DEBFCDBF00E00CBF12E0A0E0B2E0EEE038
:10022000FAE200E00BBF02C007900D92A23DB107B9
:10023000D9F725E0A2EDB2E001C01D92A634B207C5
:10024000E1F711E0C3E0D1E000E006C02197010929
:10025000802FFE010E94D412C230D10780E008072F
:10026000A9F70E94280B0C94F614CACECF93DF9303
:10027000009789F0EC01E0912005F091210530977D
:1002800031F060911E0570911F05CE011995D09334
:100290001F05C0931E05DF91CF91089596E0899FB9
:1002A000D0011124AE5EBB4F90967C936E935F9706
:1002B00091E091969C939197E0917F04F091800456
:1002C00090917E04992339F0309751F0811108C044
:1002D00080912E041994309719F05C968C91FACF86
:1002E0000895AF92BF92CF92DF92EF92FF920F9359
:1002F0001F93CF93DF936C017B018B01040F151FBC
:10030000EB015E01AE18BF08C017D10759F0699123
:10031000D601ED91FC910190F081E02DC601199577
:10032000892B79F7C501DF91CF911F910F91FF9034
:10033000EF90DF90CF90BF90AF90089581508231C1
:1003400008F05AC0E82FF0E08827E655FE4F8F4F9F
:100350000C94D412CA01CE01BC01C201C601FC0139
:10036000D101D701DB01E101E501E901EF01F30171
:10037000FC01F701FD010102809180008F778093DD
:1003800080000895809180008F7DF9CF809180005A
:10039000877FF5CF84B58F7784BD089584B58F7D31
:1003A000FBCF8091B0008F778093B000089580914B
:1003B000B0008F7DF9CF809190008F77809390006F
:1003C0000895809190008F7DF9CF80919000877F74
:1003D000F5CF8091A0008F778093A0000895809141
:1003E000A0008F7DF9CF8091A000877FF5CF80910D
:1003F00020018F77809320010895809120018F7DC7
:10040000F9CF80912001877FF5CFCF93DF93282FFD
:1004100030E0F901E254FE4F8491F901E858FE4FB3
:10042000D491F901EE5CFE4FC491CC2399F0811177
:1004300085DFEC2FF0E0EE0FFF1FE85EFE4FA59189
:10044000B491EC91ED2381E090E009F480E0DF913C
:10045000CF91089580E090E0FACF862FD6CF1F93FA
:10046000CF93DF93282F30E0F901E254FE4F8491BF
:10047000F901E858FE4FD491F901EE5CFE4FC491AA
:10048000CC23A1F0162F811159DFEC2FF0E0EE0FF5
:10049000FF1FE250FF4FA591B4918FB7F894EC91F4
:1004A000111108C0D095DE23DC938FBFDF91CF916F
:1004B0001F910895DE2BF8CF862F642FD0CFCF93D6
:1004C000DF9390E0FC01E858FE4F24918E5C9E4F34
:1004D000FC0184918823C9F090E0880F991FFC01EA
:1004E000EC51FF4FA591B491FC01E250FF4FC59133
:1004F000D49161110DC09FB7F8948C9120958223FF
:100500008C938881282328839FBFDF91CF91089502
:10051000623051F49FB7F8943C91822F80958323E9
:100520008C93E8812E2BEFCF8FB7F894EC912E2B84
:100530002C938FBFEACF1F93CF93DF93EC01162F3D
:100540008881803308F04FC061E0812FB8DF888157
:10055000282F30E0F901EE0FFF1FE20FF31FEF57D6
:10056000FB4F1F736081607C612B60839EE89983E1
:1005700094E69A832CE0622F0E94C812829FB001F9
:10058000112430E020E0AB01420F531FFA01EE0FBF
:10059000FF1FE40FF51FEF57FB4F908196FD16C02C
:1005A0002F5F3F4F2C30310571F7813009F51092E4
:1005B000800082E080938100109285001092840078
:1005C000B19A80916F00826080936F00E8818E2FD6
:1005D00090E0FC01EE0FFF1FE80FF91FEF57FB4FF4
:1005E0008081806480838881DF91CF911F910895FD
:1005F000823061F4109290008093910010929500E7
:100600001092940088BB80937100E0CF833069F42E
:100610001092A00082E08093A1001092A500109299
:10062000A40089BB80937200D1CF8111CFCF1092EB
:10063000200182E080932101109225011092240173
:100640008ABB80937300C2CF862F642F38CF2FB719
:10065000F8946091DC027091DD028091DE0290914D
:10066000DF022FBF08950F931F93CF93DF93C82FFF
:10067000D62F86E0C89FF0011124EE5EFB4F11A239
:10068000878D90A181309105E1F058F0823091057D
:10069000D1F1039709F43CC0DF91CF911F910F91E5
:1006A00008956623C9F361E070E08C2FF7DDCFDF9A
:1006B00060936A0470936B0480936C0490936D0450
:1006C000EBCFC5DF00916A0410916B0420916C049C
:1006D00030916D04AB01BC01401B510B620B730BDD
:1006E00080917C0490917D04B0E0A0E08417950790
:1006F000A607B70740F462E070E08C2FDF91CF913E
:100700001F910F91CBCD63E070E0D111C5CFF5CF34
:1007100070E060E0F2CFFC01868180FD04C083FBC5
:10072000882780F9089580E00895CF92DF92EF92B4
:10073000FF921F93CF93DF93EC018F8166DE1E81C2
:10074000212F277F2E831695117021E0892B09F424
:1007500020E01217A9F07BDF688379838A839B836B
:100760008E8192E089278E838E8183FB882780F992
:10077000DF91CF911F91FF90EF90DF90CF90089580
:1007800066DFC880D980EA80FB80AB01BC014C19D0
:100790005D096E097F098C819D81B0E0A0E048175A
:1007A00059076A077B0700F38E8181701817E1F201
:1007B0004EDF688379838A839B838E8191E08927CA
:1007C0008860D1CF1F93CF93DF93EC01162F6F83F7
:1007D000862F1BDE1E82812F18DE892B11F083E00D
:1007E0008E8335DF688379838A839B83DF91CF9102
:1007F0001F910895089590E080E008958F929F9250
:10080000AF92BF92FF920F931F93CF93DF93FC01A0
:10081000F0808FE28F1508F44AC0828108E512E06B
:10082000081B110987FD1395000F111F000F111FE1
:100830008181C8E8D0E0C81BD10987FDD395CC0FD2
:10084000DD1FCC0FDD1F4E010D2E000CAA08BB08CA
:100850009801012E000C440B550B281939094A093F
:100860005B09DB010E94911224EB30E040E050E094
:100870000E946B12820E931EA41EB51E8C169D063E
:100880002CF0E801801691060CF4E4012297CC0FBD
:10089000DD1F2FB7F8948F2D90E0FC01EE0FFF1FA6
:1008A000E80FF91FEF57FB4FD283C1832FBFDF91B2
:1008B000CF911F910F91FF90BF90AF909F908F901D
:1008C0000895AF92BF92CF92DF92EF92FF920F9373
:1008D0001F93CF93DF936B017A01EC01CD52DD4F73
:1008E00028813CE0389F8001399F100D1124A09091
:1008F000D202B12C27FF1FC0FB0111821082888118
:100900008F5F888388819801280F311D87FD3A9574
:10091000F6012A153B051CF488818C30BCF18081DE
:100920009181049680349C4908F471C0F60180815D
:10093000918104966EC088819801280F311D87FD32
:100940003A952A153B05DCF68881A801480F511D10
:1009500087FD5A95FA01EE0FFF1FE40FF51FEF57C1
:10096000FB4F808186FFCBCF8881F801E80FF11D16
:1009700087FDFA95CF01EE0FFF1FE80FF91FEF5724
:10098000FB4F808160E08F736ADDB9CF80819181F8
:100990002881A801420F511D27FD5A959A01FA019D
:1009A000EE0FFF1FE20FF31FEF57FB4F2181328144
:1009B000820F931FF7019183808388819801280F0C
:1009C000311D87FD3A95F901EE0FFF1FE20FF31F6E
:1009D000EF57FB4F808186FF21C08881080F111DD2
:1009E00087FD1A95F801EE0FFF1FE00FF11FEF577B
:1009F000FB4F808161E08F73DF91CF911F910F9149
:100A0000FF90EF90DF90CF90BF90AF9028CD80E423
:100A10009CE9F701918380838FEF8883DF91CF91E9
:100A20001F910F91FF90EF90DF90CF90BF90AF900C
:100A30000895FB0192878187DC0116967C936E9363
:100A4000159723853485232B29F41B968D919C9132
:100A500094878387CF01089580912405909125057F
:100A6000009711F00C94F11160E070E0CB01089553
:100A70008F929F92AF92BF920F931F93CF93DF936A
:100A8000CDB7DEB7A1970FB6F894DEBF0FBECDBFCE
:100A900019A2423008F44AE08E010F5D1F4F842EE8
:100AA000912CB12CA12CA50194010E949712E62F44
:100AB000B901CA01EA303CF5E05DD801EE938D0141
:100AC000232B242B252B79F790E080E0109761F001
:100AD000FD0101900020E9F73197AF014A1B5B0B44
:100AE000BD018AE295E0FDDBA1960FB6F894DEBF6A
:100AF0000FBECDBFDF91CF911F910F91BF90AF90EF
:100B00009F908F900895E95CD8CF009761F0FC0129
:100B100001900020E9F73197AF01481B590BBC0148
:100B20008AE295E0DECB90E080E00895CF93DF93FA
:100B3000EC0160E08E8193DC61E08E8190DC60E00E
:100B40008E818DDC8BE891E00197F1F7DF91CF91F9
:100B50000895CF92DF92EF92FF920F931F93CF935E
:100B6000DF936C017C0187E0E80EF11CD0E0C0E06F
:100B7000062F10E0B8010C2E02C0759567950A94F7
:100B8000E2F76170F70181917F0169DC2196C43041
:100B9000D10581F7C601DF91CF911F910F91FF9091
:100BA000EF90DF90CF90C2CFCF92DF92EF92FF9283
:100BB0000F931F93CF93DF93EC01F62E642F8C815C
:100BC0004EDC8D818F3F11F060E049DC0F2D10E08D
:100BD0008F8584FF23C06E0187E0C80ED11CF12CE5
:100BE000E12CB8010E2C02C0759567950A94E2F7C6
:100BF0006170F60181916F0132DCFFEFEF1AFF0A9D
:100C000088E0E816F10469F7CE01DF91CF911F91DA
:100C10000F91FF90EF90DF90CF9088CFB80184E0E4
:100C2000759567958A95E1F7CE0193DF6F2DCE011B
:100C3000DF91CF911F910F91FF90EF90DF90CF90B8
:100C400088CF40E0682F8AE295E0AECF81E0F9DFFF
:100C50008BE39FE10197F1F70895CF93DF93823003
:100C600029F49091390598609093390580933D055A
:100C700010923E0580E480933F0580E1809340051B
:100C800080E58093410561E080912E0518DC80911C
:100C90002F058F3F11F061E012DC61E0809130059B
:100CA0000EDCCAE2D5E09E012A523540809139051A
:100CB00084FD0AC084E090E02196281739073CF4AF
:100CC00061E08E81FCDBEFCF88E090E0F5CF8BE335
:100CD0009DE00197F1F760E080912E05C0DB60E0B8
:100CE00080913005BCDB80912F058F3F11F060E0D3
:100CF000B6DB8091390584FD2CC063E08AE295E083
:100D000028DFCBE4D6E4CE010197F1F763E08AE275
:100D100095E01FDF2197F1F763E08AE295E019DFA4
:100D200083E592E00197F1F762E08AE295E011DF56
:100D300080913905806285DF84E080933A058CE0FC
:100D400080DF84DF82E080933B0586E0DF91CF91F6
:100D500078CF806276DF8BE496E40197F1F780919B
:100D6000390580626EDF83E592E00197F1F78091AB
:100D70003905806266DFDCCF90913D05691710F080
:100D80006FEF690FE62FF0E0E65DFA4F9489890F67
:100D9000806857CF82E055DF8BE39FE10197F1F741
:100DA000089541E001DF81E090E00895CF92DF9265
:100DB000EF92FF926C01990FEE08FF08F7FE14C046
:100DC00041E06DE28AE295E0EFDE66277727CB010E
:100DD0006C197D098E099F094AE04ADE0196FF9051
:100DE000EF90DF90CF9008954AE0C701B601FF90E1
:100DF000EF90DF90CF903CCEFC0124813581232BF6
:100E000039F421E0FB018081882349F020E007C00C
:100E1000808191810E94E61421E0892BB9F7822F0D
:100E20000895CF93DF93EC016FE272E0E5DF81116B
:100E300045C066E372E0CE01DFDF811142C06AE3A4
:100E400072E0CE01D9DF81113FC060E472E0CE01D3
:100E5000D3DF81113CC06DE472E0CE01CDDF8111A2
:100E600039C069E572E0CE01C7DF811136C066E6A0
:100E700072E0CE01C1DF811133C06DE672E0CE01B8
:100E8000BBDF811130C064E772E0CE01B5DF8111B4
:100E90002DC061E872E0CE01AFDF81112AC06FE89A
:100EA00072E0CE01A9DF811127C069E972E0CE01AD
:100EB000A3DF811124C0DF91CF91089583E090E0FA
:100EC000FACF82E090E0F7CF81E090E0F4CF90E0BD
:100ED00080E0F1CF87E090E0EECF86E090E0EBCFCE
:100EE00085E090E0E8CF84E090E0E5CF8BE090E013
:100EF000E2CF8AE090E0DFCF89E090E0DCCF88E0CD
:100F000090E0D9CFCF93DF93EC016FE272E074DF12
:100F100081114AC066E372E0CE016EDF811141C0EB
:100F20006AE372E0CE0168DF81113EC060E472E0E6
:100F3000CE0162DF81113BC06DE472E0CE015CDF67
:100F4000811135C069E572E0CE0156DF81112FC0F5
:100F500066E672E0CE0150DF811135C06DE672E0C9
:100F6000CE014ADF811126C064E772E0CE0144DF82
:100F7000811123C061E872E0CE013EDF811120C003
:100F80006FE872E0CE0138DF81111DC069E972E0BF
:100F9000CE0132DF811117C090E080E0DF91CF9168
:100FA000089582E090E0FACF85E090E0F7CF84E00A
:100FB00090E0F4CF8CE090E0F1CF8FE090E0EECFC6
:100FC00088E090E0EBCF8AE090E0E8CF0F931F93AA
:100FD000CF93DF93EC0188819981009759F02A81A2
:100FE0003B812617370730F081E0DF91CF911F91C9
:100FF0000F9108958B016F5F7F4F0E94011400973E
:1010000059F0998388831B830A832C813D81232B8C
:1010100059F7FC011082E8CF80E0E7CFEF92FF9212
:101020000F931F93CF93DF936115710541F480E017
:10103000DF91CF911F910F91FF90EF90089541158F
:101040005105A9F07B01EC010C811D81040F151FD6
:10105000B801BCDF882359F3288139818C819D81B7
:10106000B701820F931F0E94EF141D830C8381E050
:10107000DFCFCF93DF93EC0188819981009711F046
:101080000E947813198218821D821C821B821A8288
:10109000DF91CF910895EF92FF920F931F93CF931B
:1010A000DF938C017B01EB0109900020E9F7219788
:1010B000C61BD70BBE018ADF811108C0C801DF91B2
:1010C000CF911F910F91FF90EF90D3CFF801D5836F
:1010D000C483B70180819181DF91CF911F910F91DE
:1010E000FF90EF900C94EF140F931F93CF93DF9327
:1010F000CDB7DEB7A2970FB6F894DEBF0FBECDBF57
:101100008C01CB01BA01F801118210821382128284
:10111000158214822AE0AE014F5F5F4F0E941712C2
:10112000BE016F5F7F4FC801B6DFA2960FB6F8947D
:10113000DEBF0FBECDBFDF91CF911F910F910895FC
:10114000EF92FF920F931F93CF93DF93EC011982DD
:1011500018821B821A821D821C826115710511F191
:101160008B01FB0101900020E9F731977F01E61A1E
:10117000F70AB7012BDF811108C0CE01DF91CF91B3
:101180001F910F91FF90EF9074CFFD82EC82B80118
:1011900088819981DF91CF911F910F91FF90EF90FE
:1011A0000C94EF14DF91CF911F910F91FF90EF906E
:1011B0000895FC0180819181009711F00C947813BF
:1011C0000895CF92DF92EF92FF920F931F93CF93E8
:1011D000DF9300D000D0CDB7DEB77C0137DDDADD9C
:1011E000F70100811181C80190DCB801CE010196A0
:1011F000A7DFCE01019686DE7C01CE010196D9DF04
:10120000EF2871F060E08EE0B7DDB801CE01019605
:1012100097DFCE01019676DEC9DDCE010196C9DFEA
:1012200026960FB6F894DEBF0FBECDBFDF91CF91EB
:101230001F910F91FF90EF90DF90CF9008958F92C4
:101240009F92AF92BF92CF92DF92EF92FF92CF9395
:10125000DF93CDB7DEB762970FB6F894DEBF0FBE4F
:10126000CDBF7C01F3DC96DDF701808191814DDCFF
:10127000F70160817181CE01019662DFCE01019696
:1012800041DE6C01CE01019694DFCD2839F160E09A
:101290008EE072DD80910E0481110DC0F701608136
:1012A0007181CE0101964CDFCE0101962BDE7EDDF1
:1012B000CE0101967EDF80910E0490911104992356
:1012C000F1F081111EC060EB72E084E295E0E3DE94
:1012D00061E080E051DD82EA92E017DC62960FB6B1
:1012E000F894DEBF0FBECDBFDF91CF91FF90EF909E
:1012F000DF90CF90BF90AF909F908F9008958823FC
:1013000069F361E080E038DDA7DB4B015C01F701A8
:1013100060817181CE01079613DFCE010796F2DD61
:10132000DC01A50194010E949112AB01BC01CE0128
:101330000D96DADE6AEA72E0CE01019601DF498994
:101340005A896D857E85CE01019668DE811103C0C4
:10135000CE0101968EDE4D815E8169817A818AE2BD
:1013600095E00E947101CE01019623DFCE010D961A
:1013700020DFCE0107961DDF812C912C54016CDB00
:1013800086169706A806B9060CF05CC060D96B01FA
:10139000E0911E05F0911F0560817181CE010196DB
:1013A000CFDECE0101963DDD9C01220F331F820F5F
:1013B000931F64EB70E080529D4F20DACE010196BE
:1013C000F8DE0D2C000CEE08FF0841D96C197D09E0
:1013D0008E099F09693E734081059105B0F3E09144
:1013E0001E05F0911F0560817181CE010196A8DE76
:1013F000CE01019616DD9C01220F331F820F931F31
:1014000070E060E080529D4FF9D9CE010196D1DEA7
:1014100023DB615071098109910986169706A80698
:10142000B90651F014D96C197D098E099F09613DE7
:10143000774081059105B0F38FEF881A980AA80AC2
:10144000B80A9DCF10920E0460EB72E084E295E042
:1014500022DE44CF1F920F920FB60F9211242F93CA
:101460003F938F939F93AF93BF938091DC029091B2
:10147000DD02A091DE02B091DF023091DB0223E0B9
:10148000230F2D3758F50196A11DB11D2093DB02C6
:101490008093DC029093DD02A093DE02B093DF0222
:1014A0008091D7029091D802A091D902B091DA022E
:1014B0000196A11DB11D8093D7029093D802A093ED
:1014C000D902B093DA02BF91AF919F918F913F9172
:1014D0002F910F900FBE0F901F90189526E8230FA5
:1014E0000296A11DB11DD2CF1F920F920FB60F927F
:1014F00011240BB60F922F933F934F935F936F93EB
:101500007F938F939F93AF93BF93EF93FF9348E2A3
:1015100051E064E271E090E080E0D3D9FF91EF9177
:10152000BF91AF919F918F917F916F915F914F91FB
:101530003F912F910F900BBE0F900FBE0F901F90F9
:1015400018951F920F920FB60F9211240BB60F929F
:101550002F933F934F935F936F937F938F939F93BB
:10156000AF93BF93EF93FF9348EA50E064EA70E0D3
:1015700083E090E0A6D9FF91EF91BF91AF919F9149
:101580008F917F916F915F914F913F912F910F902C
:101590000BBE0F900FBE0F901F9018951F920F92C9
:1015A0000FB60F9211240BB60F922F933F934F93C8
:1015B0005F936F937F938F939F93AF93BF93EF93BB
:1015C000FF9348E950E064E970E082E090E079D967
:1015D000FF91EF91BF91AF919F918F917F916F910B
:1015E0005F914F913F912F910F900BBE0F900FBEC7
:1015F0000F901F9018951F920F920FB60F92112403
:101600000BB60F922F933F934F935F936F937F93FC
:101610008F939F93AF93BF93EF93FF9348E850E06E
:1016200064E870E081E090E04CD9FF91EF91BF91C8
:10163000AF919F918F917F916F915F914F913F916A
:101640002F910F900BBE0F900FBE0F901F9018950B
:10165000CF93DF93CDB7DEB763970FB6F894DEBFB5
:101660000FBECDBF789484B5826084BD84B581609F
:1016700084BD85B5826085BD85B5816085BD80915D
:101680006E00816080936E001092810080918100D5
:1016900082608093810080918100816080938100CD
:1016A000809180008160809380008091B10084608F
:1016B0008093B1008091B00081608093B0008091F0
:1016C000910082608093910080919100816080936D
:1016D0009100809190008160809390008091A100A2
:1016E00082608093A1008091A10081608093A1001D
:1016F0008091A00081608093A00080912101826090
:10170000809321018091210181608093210180914A
:10171000200181608093200180917A008460809311
:101720007A0080917A00826080937A0080917A00BA
:10173000816080937A0080917A00806880937A003B
:101740001092C10082E089DA60E086E10E945F02C7
:1017500060E087E10E945F0260E088E10E945F0232
:1017600060E089E10E945F0269E170E08EEE93E043
:1017700029D868E170E086E094E024D867E170E061
:101780008EEF93E01FD866E170E086EF93E01AD801
:1017900082E390E09093F3038093F20390930B0421
:1017A00080930A0490930304809302049093FB03B4
:1017B0008093FA0381E195E09093E5038093E4033D
:1017C00081EE93E090931905809318058091EC03C6
:1017D0009091ED03892B41F480911C0590911D059A
:1017E0009093ED038093EC0364ED73E081EE93E05E
:1017F00020D981EE93E09093CB038093CA0387ECCA
:1018000093E09093E9038093E8038091D203909151
:10181000D303892B41F48091EC039091ED039093D5
:10182000D3038093D2036AEB73E087EC93E001D992
:1018300087EC93E09093B1038093B0038DEA93E03B
:101840009093CF038093CE038091B8039091B90316
:10185000892B41F48091D2039091D3039093B903E3
:101860008093B80360EA73E08DEA93E0E2D863E91D
:1018700073E0DFD88AEB93E090938A038093890327
:1018800086E893E09093C2038093C1038091910313
:1018900090919203892B41F48091C5039091C603E6
:1018A000909392038093910369E773E086E893E055
:1018B000C0D86CE673E0BDD884ED93E090936303E9
:1018C000809362038FE593E09093DC038093DB03C6
:1018D00080916A0390916B03892B41F48091DF031F
:1018E0009091E00390936B0380936A0362E573E049
:1018F0008FE593E09ED882E593E09093490380932F
:10190000480385E493E090935A03809359038091B0
:10191000500390915103892B41F480915D03909184
:101920005E03909351038093500368E373E085E472
:1019300093E07FD86BE273E07CD88FE593E09093DF
:101940002203809321038EE193E0909367038093B9
:1019500066038091290390912A03892B41F4809199
:101960006A0390916B0390932A038093290361E1AA
:1019700073E08EE193E05DD864E073E05AD881E1D2
:1019800095E00E94360140EEE42E42E0F42E10E095
:1019900000E053E0C52ED12CB601601B710B043062
:1019A00011051CF0B801665F7F4FC7010E949B02C2
:1019B00070E060E0C7010E94FE030F5F1F4F53E01D
:1019C000E50EF11C0C30110539F7412C512C320178
:1019D0004394CE0101967C0181E080937E040E94B5
:1019E000270300916E0410916F04209170043091D0
:1019F0007104AB01BC01401B510B620B730B809156
:101A00007A0490917B04B0E0A0E084179507A607C4
:101A1000B70708F0B8C110E080917804181760F497
:101A2000E0917404F0917504E10FF11D62E0808192
:101A30000E945F021F5FF0CF312C8091790438162D
:101A400008F061C0C32CD12CE0917604F0917704AA
:101A5000EC0DFD1D61E080810E945F02E091760443
:101A6000F0917704EC0DFD1D60E080810E942F0253
:101A7000D301C201032C04C0880F991FAA1FBB1FEA
:101A80000A94D2F74C015C01A094B094212C80916F
:101A90007804281608F5022D10E0E0917404F09106
:101AA0007504E00FF11F80810E9405020C5F1F4F3B
:101AB000000F111FF801EE5EFB4F892B41F480816E
:101AC000918188299929918380832394E0CF808113
:101AD00091818A219B21F7CFE0917604F0917704E0
:101AE000EC0DFD1D61E080810E942F028091760443
:101AF00090917704C80ED91E60E0D6018C910E94A7
:101B00005F0233949ACF02E114E06801F601878DF9
:101B100090A1892B31F4148E8FEF9FEF968F858FD4
:101B200011A296E0C90ED11CAEE4B4E0AC15BD051F
:101B300069F7B12C80917804B81608F053C0A12C35
:101B40008B2C912C880C991CF401E65EFB4F4F0105
:101B500020917904A21608F043C0D4016D917C91C4
:101B60000A2C02C0769567950A94E2F7B29E90011E
:101B700011242A0D311DE2E1F4E080E0458D568DFF
:101B80002417350709F44FC18F5F36968A30B1F7B5
:101B900060FF24C0E2E1F4E090E080E0448D411178
:101BA00018C0E0917204F0917304E20FF31F4081BA
:101BB000B6E0B89FF001B99FF00D1124EE5EFB4F27
:101BC000448F368F258F10A2178E61E00E94330359
:101BD00005C0019636968A30910501F7A394B8CFD7
:101BE000B394A8CFB12CF80181A18111B82E0A5F5E
:101BF0001F4FC016D106B9F70E94270360936E04E9
:101C000070936F048093700490937104BB2009F467
:101C1000BAC080913304882309F4B5C0809131049F
:101C200090913204019709F0AEC080912E049091FA
:101C30001104992309F469C0882309F466C08A3223
:101C400009F463C0833209F460C089831A82009169
:101C50002805109129050F5F1F4FB80184E295E018
:101C6000B5D9882381F020912405309125058091F4
:101C7000280590912905B701820F931FB0D61093C4
:101C80002905009328050E94260684D8E0911E05A8
:101C9000F0911F05808191810E94850560E08EE0B2
:101CA0006BD8E0911E05F0911F0560817181C7011D
:101CB00047DAC70127D97AD8C7017BDA61E080E02B
:101CC0005BD80E942C05AB01BC01C7010DDA62EAAA
:101CD00072E0CE010E9634DA4D815E8169817A819F
:101CE000CE010E969BD9811103C0CE010E96C1D9AB
:101CF0004A895B896E857F858AE295E00E94710141
:101D0000CE010E9656DAC70154DA86E094E00E94BE
:101D100095038EEF93E00E94950386EF93E00E9477
:101D200095038EEE93E00E9495031092100410929A
:101D30000F0486EF93E00E948B03882341F186E134
:101D400090E09093100480930F0420911E05309131
:101D50001F058DE0F901D70101900D928A95E1F7F9
:101D600080910F04909110048631910599F5D90165
:101D700019968D919C91009719F0FC013487238767
:101D80000E94360167C010927E0480E050CF8EEF33
:101D900093E00E948B03882319F087E190E0D1CF74
:101DA00086E094E00E948B03882339F0A8E1B0E03C
:101DB000B0931004A0930F04C8CF8EEE93E00E945E
:101DC0008B03882311F2E9E1F0E0F0931004E09333
:101DD0000F04BBCF8731910529F4D90115968D9158
:101DE0009C91C9CF8931910539F410921104109258
:101DF0000E0481E195E0C4CF489761F5E885F98547
:101E0000309799F0F486E386E0911E05F0911F0566
:101E100087819085009709F4B3CFDC011C96FC9371
:101E2000EE931B97ADCF6170D1CE809111048823C2
:101E300019F081E080930E0480910E0491E08927CF
:101E400080931104E0912205F0912305309711F061
:101E5000C90119951092100410920F0480E090E0CF
:101E6000892B09F4B9CD0E940000B6CD60EB72E079
:101E700084E295E065D91092EE031092EF03109280
:101E8000F0031092F1038AE090E09093F3038093C3
:101E9000F2031092F4031092F503109206041092CC
:101EA0000704109208041092090490930B04809385
:101EB0000A0410920C0410920D041092F603109272
:101EC000F7031092F8031092F9039093FB038093A9
:101ED000FA031092FC031092FD031092FE0310927D
:101EE000FF03109200041092010490930304809366
:101EF000020410920404109205041092140410922B
:101F00001804109217041092190489E292E0909339
:101F1000130480931204EEE2F4E010821482138220
:101F20001582369684E0EA36F807B9F783E092E046
:101F3000909375048093740480E092E0909377040A
:101F40008093760484E08093780483E0809379041E
:101F500087E092E090937304809372048AE090E0AB
:101F600090937B0480937A0484EF91E090937D04B6
:101F700080937C041092800410927F0410926E046F
:101F800010926F04109270041092710410927E04EB
:101F900010922D0510922C058DE192E090932B0567
:101FA00080932A058CE080932E058FEF80932F0578
:101FB0008DE0809330058BE0809331058AE080933B
:101FC000320589E08093330588E0809334051092D0
:101FD000350510923605109237051092380510928B
:101FE000390581E00E942D06E0EEF2E02FEF48EB8C
:101FF0005BE08091D202803308F0EDC191E0980F50
:102000009093D202808390E0DC01AA0FBB1FA80F3F
:10201000B91FAF57BB4F12965C934E9311973396EF
:1020200083E0E430F80729F781EB92E09093120502
:10203000809311051092130510921B0510921A053A
:102040001092190510921805109217051092160596
:10205000109215051092140581E195E090931F05EB
:1020600080931E0581EE98E09093210580932005D2
:102070008FE199E090932305809322058AEB92E00B
:102080009093E2038093E1031092E3031092EB0339
:102090001092EA031092E9031092E8031092E7030A
:1020A0001092E6031092E5031092E40320EC32E074
:1020B0003093C8032093C7031092C9031092D10331
:1020C0001092D0031092CF031092CE031092CD0342
:1020D0001092CC031092CB031092CA038FE292E0CD
:1020E0009093AE038093AD031092AF031092B703A9
:1020F0001092B6031092B5031092B4031092B3037A
:102100001092B2031092B1031092B00386E392E0F2
:102110009093A1038093A0031092A2031092AA03AC
:102120001092A9031092A8031092A7031092A6037D
:102130001092A5031092A4031092A3038AE392E0E5
:1021400090939403809393031092950310929D03B0
:1021500010929C0310929B0310929A031092990381
:1021600010929803109297031092960384EC92E0D9
:102170009093BB038093BA031092BC031092C403E4
:102180001092C3031092C2031092C1031092C003B5
:102190001092BF031092BE031092BD0340E452E0C0
:1021A0005093870340938603109288031092900304
:1021B00010928F0310928E0310928D0310928C0355
:1021C00010928B0310928A03109289034DE452E01F
:1021D00050937A034093790310927B031092830308
:1021E00010928203109281031092800310927F0359
:1021F00010927E0310927D0310927C0349E552E019
:1022000050936D0340936C0310926E03109276030B
:10221000109275031092740310927303109272035C
:10222000109271031092700310926F0349EC52E008
:102230005093D5034093D4031092D6031092DE033B
:102240001092DD031092DC031092DB031092DA038C
:102250001092D9031092D8031092D70330935303EE
:10226000209352031092540310925C0310925B036C
:1022700010925A0310925903109258031092570368
:10228000109256031092550326E632E0309346032F
:10229000209345031092470310924F0310924E0370
:1022A00010924D0310924C0310924B0310924A036C
:1022B00010924903109248032DE632E0309339031F
:1022C0002093380310923A03109242031092410374
:1022D0001092400310923F0310923E0310923D0370
:1022E00010923C0310923B0324E732E030932C031E
:1022F00020932B0310922D03109235031092340378
:102300001092330310923203109231031092300373
:1023100010922F0310922E039093600380935F031B
:102320001092610310926903109268031092670380
:102330001092660310926503109264031092630377
:102340001092620381E892E090931F0380931E0332
:102350001092200310922803109227031092260354
:10236000109225031092240310922303109222034B
:10237000109221038FE892E090931203809311034F
:102380001092130310921B0310921A031092190358
:10239000109218031092170310921603109215034F
:1023A0001092140389E992E090930503809304034B
:1023B0001092060310920E0310920D0310920C035C
:1023C00010920B0310920A03109209031092080353
:1023D000109207030895208322CE84E295E00C94A6
:1023E000D9081F93FC0199278827BC01E894119113
:1023F0001032E9F3193010F01E30C8F31B3249F0E7
:102400001D3241F4689405C020D0610F711D811DFB
:10241000911D119110531A30B8F33EF490958095A8
:10242000709561957F4F8F4F9F4F1F910895BB27E8
:102430002A3051F4992342F4BDE29095809570952D
:1024400061957F4F8F4F9F4F16C0592F482F372FC1
:10245000262F660F771F881F991F660F771F881F0B
:10246000991F620F731F841F951F660F771F881FA8
:10247000991F0895BB27FA01A62F621771058105E0
:102480009105330B30FB66F0AA27660F771F881F74
:10249000991FAA1FA21710F0A21B63953850A9F725
:1024A000A05DAA3308F0A95DA19336F7B111B193ED
:1024B0001082CA0100C0DC01FC01672F71917723F3
:1024C000E1F7329704C07C916D9370836291AE17EF
:1024D000BF07C8F30895052E97FB16F400940FD09C
:1024E00057FD05D024D007FC02D046F408C0509513
:1024F0004095309521953F4F4F4F5F4F08959095F0
:102500008095709561957F4F8F4F9F4F089531D083
:10251000A59F900DB49F900DA49F800D911D112437
:102520000895B7FFF4CFF3DF821B930B0895A1E268
:102530001A2EAA1BBB1BFD010DC0AA1FBB1FEE1F3D
:10254000FF1FA217B307E407F50720F0A21BB30B88
:10255000E40BF50B661F771F881F991F1A9469F704
:1025600060957095809590959B01AC01BD01CF0160
:102570000895A29FB001B39FC001A39F700D811D5C
:102580001124911DB29F700D811D1124911D08957C
:10259000991B79E004C0991F961708F0961B881FB5
:1025A0007A95C9F780950895EE0FFF1F881F8BBF9E
:1025B0000790F691E02D19940F931F93CF93DF931B
:1025C0008230910510F482E090E0E0914405F091B2
:1025D000450530E020E0B0E0A0E0309799F4211507
:1025E000310509F44AC0281B390B24303105D8F5D0
:1025F0008A819B816115710589F1FB019383828337
:10260000FE0111C040815181028113814817590791
:10261000E0F04817590799F4109761F012960C935F
:10262000129713961C933296CF01DF91CF911F9191
:102630000F9108950093440510934505F4CF21159B
:10264000310551F04217530738F0A901DB019A0117
:10265000BD01DF01F801C1CFEF01F9CF909345052E
:1026600080934405CDCFFE01E20FF31F8193919338
:102670002250310939832883D7CF209142053091E8
:102680004305232B41F4209115023091160230931B
:102690004305209342052091130230911402211525
:1026A000310541F42DB73EB7409117025091180201
:1026B000241B350BE0914205F0914305E217F30727
:1026C000A0F42E1B3F0B2817390778F0AC014E5FA2
:1026D0005F4F2417350748F04E0F5F1F5093430597
:1026E00040934205819391939FCFF0E0E0E09CCF2F
:1026F000CF93DF930097E9F0FC01329713821282A7
:10270000A0914405B0914505ED0130E020E010971F
:10271000A1F420813181820F931F209142053091D5
:1027200043052817390709F061C0F0934305E0938A
:102730004205DF91CF910895EA01CE17DF07E8F552
:102740004A815B819E0141155105B1F7E901FB8387
:10275000EA8349915991C40FD51FEC17FD0761F425
:10276000808191810296840F951FE9019983888366
:10277000828193819B838A83F0E0E0E012968D91C1
:102780009C9113970097B9F52D913C911197CD012C
:102790000296820F931F209142053091430528171E
:1027A000390739F6309751F51092450510924405D6
:1027B000B0934305A0934205BCCFD383C28340812D
:1027C0005181840F951FC817D90761F44E5F5F4F81
:1027D00088819981480F591F518340838A819B8149
:1027E000938382832115310509F0B0CFF09345051D
:1027F000E09344059ECFFD01DC01C0CF138212821D
:10280000D7CF4F925F926F927F928F929F92AF92AB
:10281000BF92CF92DF92EF92FF920F931F93CF93CD
:10282000DF938C01009791F4CB01DF91CF911F9141
:102830000F91FF90EF90DF90CF90BF90AF909F905F
:102840008F907F906F905F904F90B6CEFC01E60F17
:10285000F71F9C0122503109E217F30708F4AAC0C0
:10286000D901CD91DC911197C617D70718F1C53062
:10287000D10570F0CE0104978617970748F0C61B64
:10288000D70B2297C193D1936D937C93CF0130DF07
:10289000C801DF91CF911F910F91FF90EF90DF90D2
:1028A000CF90BF90AF909F908F907F906F905F90F0
:1028B0004F9008955B01AC1ABD0A4C018C0E9D1E11
:1028C000A0914405B0914505512C412CF12CE12CEF
:1028D000109731F58091420590914305881599052F
:1028E00009F05CC04616570608F058C080911302E4
:1028F00090911402009741F48DB79EB74091170252
:1029000050911802841B950BE817F90708F052C084
:10291000F0934305E0934205F90171836083B8CFDA
:102920008D919C91119712966C90129713967C90B2
:102930001397A815B90559F56C0142E0C40ED11CD6
:10294000CA14DB0420F1AC014A195B09DA011296C2
:10295000159780F06282738251834083D9016D9311
:102960007C93E114F10471F0D7011396FC93EE937C
:1029700012978ECF22968C0F9D1FF9019183808331
:10298000F301EFCFF0934505E093440581CF48165E
:10299000590608F42C017D01D3019ACFCB010CDE3E
:1029A0007C01009739F0AE01B80107D0C801A0DE64
:1029B00087016ECF10E000E06BCFFB01DC0102C0AD
:1029C00001900D9241505040D8F70895FB01DC0171
:1029D0008D91019080190110D9F3990B0895FB0195
:1029E000DC0101900D920020E1F7089511E0C3E0B1
:1029F000D1E000E005C0802FFE01D6DD2196011D4B
:0E2A0000C430D10780E00807B1F7F894FFCF8B
:102A0E0042434441403F3E31323334353637383914
:102A1E002A302300004605800000000000D1067118
:102A2E0001FB03FA030000000024035C022D0243A5
:102A3E006F6666656500546561004D6F6368610081
:102A4E004F72616E6765204A7569636500417070EB
:102A5E006C65204A756963650043686572727920FA
:102A6E004A7569636500486F74646F6700427572DA
:102A7E006765720043686565736562757267657236
:102A8E00004F6C69766965722053616C6164004316
:102A9E006869636B2048616D004D65617420486103
:102AAE006D00416D6F756E743A00546F74616C3ABF
:102ABE00004D656E75526F6F74004472696E6B00D7
:102ACE00486F7400436F6C640053616E6477696382
:022ADE0068008E
:00000001FF
