:1000000002C1000030C100002EC100002CC1000060
:100010002AC1000028C1000026C1000024C1000040
:1000200022C1000020C100001EC100001CC1000050
:100030001AC1000018C1000016C1000014C1000060
:1000400012C1000010C100000EC100000CC1000070
:100050000AC1000008C1000006C10000C0C40000C1
:1000600002C1000000C10000FEC00000FCC0000092
:10007000FAC00000F8C00000F6C00000F4C00000A4
:10008000F2C00000F0C00000EEC00000ECC00000B4
:10009000EAC00000E8C00000E6C00000E4C00000C4
:1000A000E2C00000E0C00000DEC00000DCC00000D4
:1000B000DAC00000D8C00000D6C00000D4C00000E4
:1000C000D2C00000D0C00000CEC00000CCC00000F4
:1000D000CAC00000C8C00000C6C00000C4C0000004
:1000E000C2C0000000002100240027002A002D00CB
:1000F0003000330001010000040107010A01000083
:100100002200250028002B002E00310034000201BF
:100110000000050108010B0100002000230026005B
:1001200029002C002F00320000010000030106010D
:10013000090105050505070508080808020202026D
:100140000A0A080804040404010101010101010173
:100150000303030303030303040707070C0C0C0C3E
:100160000C0C0C0C02020202060606060606060627
:100170000B0B0B0B0B0B0B0B0102102020080810B4
:100180002040102040800201020108040201010207
:1001900004081020408080402010080402018004E0
:1001A000020180402010080402010804020101023B
:1001B0000408102040800102040810204080000044
:1001C0000A0B02090C0D0E080703040100000000D1
:1001D000000000000000000000000000000000001F
:1001E00000000000000000000000121110000000DC
:1001F00000000000000000000000000000000000FF
:1002000000000000B80911241FBECFEFD1E2DEBF0D
:10021000CDBF00E00CBF12E0A0E0B2E0EAE3F5E100
:1002200000E00BBF02C007900D92AC34B107D9F7C4
:1002300022E0ACE4B2E001C01D92AD3EB207E1F7AE
:1002400011E0C3E0D1E000E006C021970109802F52
:10025000FE010E947A0AC230D10780E00807A9F7A0
:1002600008D40C949B0ACCCE96E0899FD00111242F
:10027000AA59BD4F90967C936E935F9791E09196AB
:100280009C939197E091D302F091D4029091D20285
:10029000992339F0309751F0811108C08091820282
:1002A0001994309719F05C968C91FACF0895CF92FB
:1002B000DF92EF92FF920F931F9396E0899FF001D8
:1002C0001124EA59FD4F11A2278D30A121303105AB
:1002D00049F178F02230310509F44FC0233031055F
:1002E00009F450C01F910F91FF90EF90DF90CF90D5
:1002F00008956623B9F361E070E0B6DF2FB7F89494
:100300008091620290916302A0916402B0916502B3
:100310002FBF8093BE029093BF02A093C002B09300
:10032000C102E0CF9FB7F894C0906202D090630200
:10033000E0906402F09065029FBF0091BE021091B0
:10034000BF022091C0023091C102C01AD10AE20A54
:10035000F30A0091D0021091D10230E020E00C1598
:100360001D052E053F0548F462E070E01F910F91D6
:10037000FF90EF90DF90CF9077CF6111B3CF63E024
:1003800070E0F4CF70E060E0F1CFAF92BF92CF9217
:10039000DF92EF92FF920F931F93CF93DF936C0145
:1003A0007B018B01040F151FEB015E01AE18BF0826
:1003B000C017D10759F06991D601ED91FC910190D8
:1003C000F081E02DC6011995892B79F7C501DF91E0
:1003D000CF911F910F91FF90EF90DF90CF90BF9042
:1003E000AF9008958150823108F05AC0E82FF0E0B4
:1003F0008827E250FE4F8F4F0C947A0A1E02220289
:10040000100216021A02500225022B022F02350298
:1004100039023D024302470250024B02510255028B
:10042000809180008F778093800008958091800074
:100430008F7DF9CF80918000877FF5CF84B58F774E
:1004400084BD089584B58F7DFBCF8091B0008F77F8
:100450008093B00008958091B0008F7DF9CF809196
:1004600090008F77809390000895809190008F7D09
:10047000F9CF80919000877FF5CF8091A0008F7792
:100480008093A00008958091A0008F7DF9CF809186
:10049000A000877FF5CF809120018F778093200186
:1004A0000895809120018F7DF9CF80912001877F71
:1004B000F5CFCF93DF93282F30E0F901E254FE4FC0
:1004C0008491F901E858FE4FD491F901EE5CFE4F9A
:1004D000C491CC2399F0811185DFEC2FF0E0EE0F71
:1004E000FF1FE85EFE4FA591B491EC91ED2381E0F2
:1004F00090E009F480E0DF91CF91089580E090E0F2
:10050000FACF862FD6CF1F93CF93DF93282F30E0DB
:10051000F901E254FE4F8491F901E858FE4FD4915D
:10052000F901EE5CFE4FC491CC23A1F0162F81118E
:1005300059DFEC2FF0E0EE0FFF1FE250FF4FA591C7
:10054000B4918FB7F894EC91111108C0D095DE23C7
:10055000DC938FBFDF91CF911F910895DE2BF8CFF1
:10056000862F642FD0CFCF93DF9390E0FC01E85823
:10057000FE4F24918E5C9E4FFC0184918823C9F02C
:1005800090E0880F991FFC01EC51FF4FA591B491A9
:10059000FC01E250FF4FC591D49161110DC09FB78E
:1005A000F8948C91209582238C938881282328832A
:1005B0009FBFDF91CF910895623051F49FB7F894B7
:1005C0003C91822F809583238C93E8812E2BEFCF53
:1005D0008FB7F894EC912E2B2C938FBFEACF862FF8
:1005E000642FC1CF3FB7F89480914D0290914E0295
:1005F000A0914F02B091500226B5A89B05C02F3F95
:1006000019F00196A11DB11D3FBFBA2FA92F982F38
:100610008827BC01CD01620F711D811D911D42E033
:10062000660F771F881F991F4A95D1F708958F92FB
:100630009F92AF92BF92CF92DF92EF92FF924B01C7
:100640005C01D0DF6B017C01CDDF6C197D098E0967
:100650009F09683E734081059105B0F321E0821A3D
:100660009108A108B10888EEC80E83E0D81EE11CED
:10067000F11C81149104A104B10431F7FF90EF90B3
:10068000DF90CF90BF90AF909F908F900895089586
:1006900090E080E00895FC0101900020E9F7319797
:1006A000AF01481B590BBC0185ED92E06ECECF9394
:1006B000DF93EC0160E08E8126DF61E08E8123DF35
:1006C00060E08E8120DF8BE891E00197F1F7DF9108
:1006D000CF910895CF92DF92EF92FF920F931F93E5
:1006E000CF93DF936C017C0187E0E80EF11CD0E032
:1006F000C0E0062F10E0B8010C2E02C0759567957A
:100700000A94E2F76170F70181917F01FCDE219686
:10071000C430D10581F7C601DF91CF911F910F91B0
:10072000FF90EF90DF90CF90C2CFCF92DF92EF9209
:10073000FF920F931F93CF93DF93EC01F62E642F5C
:100740008C81E1DE8D818F3F11F060E0DCDE0F2DCA
:1007500010E08F8584FF23C06E0187E0C80ED11C96
:10076000F12CE12CB8010E2C02C0759567950A9406
:10077000E2F76170F60181916F01C5DEFFEFEF1ABC
:10078000FF0A88E0E816F10469F7CE01DF91CF9106
:100790001F910F91FF90EF90DF90CF9088CFB8011D
:1007A00084E0759567958A95E1F7CE0193DF6F2D0B
:1007B000CE01DF91CF911F910F91FF90EF90DF90CD
:1007C000CF9088CF40E0682F85ED92E0AECF81E0FA
:1007D000F9DF8BE39FE10197F1F70895CF93DF9362
:1007E000823029F49091E40298609093E40280931F
:1007F000E8021092E90280E48093EA0280E18093AB
:10080000EB0280E58093EC0261E08091D902ABDEDF
:100810008091DA028F3F11F061E0A5DE61E0809106
:10082000DB02A1DEC5EDD2E09E01255D3240809164
:10083000E40284FD0AC084E090E02196281739077D
:100840003CF461E08E818FDEEFCF88E090E0F5CF61
:100850008BE39DE00197F1F760E08091D90253DED0
:1008600060E08091DB024FDE8091DA028F3F11F071
:1008700060E049DE8091E40284FD2CC063E085EDF8
:1008800092E028DFCBE4D6E4CE010197F1F763E0F4
:1008900085ED92E01FDF2197F1F763E085ED92E0AF
:1008A00019DF83E592E00197F1F762E085ED92E0D0
:1008B00011DF8091E402806285DF84E08093E502AD
:1008C0008CE080DF84DF82E08093E60286E0DF91C7
:1008D000CF9178CF806276DF8BE496E40197F1F7D1
:1008E0008091E40280626EDF83E592E00197F1F788
:1008F0008091E402806266DFDCCF41E016DF81E0B8
:1009000090E00895CF92DF92EF92FF920F931F93A2
:10091000CF93DF93CDB7DEB7A1970FB6F894DEBFC4
:100920000FBECDBF6B017C01F7FE39C041E06DE227
:1009300085ED92E0FADE22273327A9012C193D0923
:100940004E095F0919A28E010F5D1F4F9AE0C92E53
:10095000D12CE12CF12CCA01B901A70196018CD54B
:10096000605DF80162938F01211531054105510544
:1009700091F790E080E0309711F0CF018CDE019686
:10098000A1960FB6F894DEBF0FBECDBFDF91CF9119
:100990001F910F91FF90EF90DF90CF900895AC01E1
:1009A0009B0119A28E010F5D1F4F8AE0C82ED12C2A
:1009B000E12CF12CCA01B901A70196015DD5605D5A
:1009C000F80162938F01211531054105510591F719
:1009D00090E080E03097A1F2CF015DDED1CF1F9291
:1009E0000F920FB60F9211242F933F938F939F93E3
:1009F000AF93BF938091620290916302A0916402D1
:100A0000B091650230914C0223E0230F2D3758F549
:100A10000196A11DB11D20934C0280936202909318
:100A20006302A0936402B093650280914D0290919D
:100A30004E02A0914F02B09150020196A11DB11D2E
:100A400080934D0290934E02A0934F02B0935002B8
:100A5000BF91AF919F918F913F912F910F900FBEBA
:100A60000F901F90189526E8230F0296A11DB11D27
:100A7000D2CF789484B5826084BD84B5816084BD12
:100A800085B5826085BD85B5816085BD80916E002C
:100A9000816080936E00109281008091810082605D
:100AA000809381008091810081608093810080919A
:100AB00080008160809380008091B1008460809389
:100AC000B1008091B00081608093B000809191006E
:100AD0008260809391008091910081608093910069
:100AE000809190008160809390008091A10082604D
:100AF0008093A1008091A10081608093A1008091EA
:100B0000A00081608093A000809121018260809389
:100B10002101809121018160809321018091200138
:100B200081608093200180917A00846080937A00B4
:100B300080917A00826080937A0080917A0081604F
:100B400080937A0080917A00806880937A00109276
:100B5000C10082E043DE8EE292E09DDD68EE73E04C
:100B600080E090E064DD33DE62E0462E512C612CA3
:100B7000712C22242A94322C50E0852E50E0952EA0
:100B800081E08093D2028FB7F89440916202509135
:100B9000630260916402709165028FBF8091C2020E
:100BA0009091C302A091C402B091C502481B590B99
:100BB0006A0B7B0B8091CE029091CF02B0E0A0E057
:100BC00084179507A607B70708F084C1C0E0809195
:100BD000CC02C81758F4E091C802F091C902EC0F9A
:100BE000F11D62E08081BFDCCF5FF1CFB12C80913D
:100BF000CD02B81608F05CC00B2D10E0E091CA02DF
:100C0000F091CB02E00FF11F61E08081ACDCE0915C
:100C1000CA02F091CB02E00FF11F60E0808173DC2B
:100C200081E090E0A0E0B0E00B2C04C0880F991F99
:100C3000AA1FBB1F0A94D2F76C017C01E094F094C8
:100C4000A12C8091CC02A816F0F4CA2DD0E0E0913E
:100C5000C802F091C902EC0FFD1F80812ADC2496A6
:100C6000CC0FDD1FCA59DD4F892B41F48881998152
:100C70008C299D2999838883A394E3CF88819981C6
:100C80008E219F21F7CFE091CA02F091CB02E00FB5
:100C9000F11F61E0808137DC8091CA029091CB0224
:100CA000080F191F60E0D8018C915DDCB3949FCFD1
:100CB00026E6C22E22E0D22EE6018F8D98A1892B46
:100CC00021F41C8E3E8E2D8E19A22696E2EAF2E0C9
:100CD000EC17FD0791F710E096E0B92E8091CC0259
:100CE000181708F051C000E0E12EF12CEE0CFF1CAB
:100CF000C70182599D4F7C012091CD02021708F057
:100D000041C0D7016D917C91002E02C07695679508
:100D10000A94E2F7129F90011124200F311DE6E69C
:100D2000F2E080E0458D568D2417350709F41EC387
:100D30008F5F36968A30B1F760FF22C0E6E6F2E0B8
:100D400090E080E0448D411116C0E091C602F09120
:100D5000C702E20FF31F6081B89EF001B99EF00D4B
:100D60001124EA59FD4F648F368F258F10A2178EFC
:100D700061E09DDA05C0019636968A30910511F73B
:100D80000F5FBACF1F5FAACF80E0F60191A191114A
:100D9000892FF6E0CF0ED11CCC15DD05B1F79FB73A
:100DA000F8944091620250916302609164027091E4
:100DB00065029FBF4093C2025093C3026093C40276
:100DC0007093C502882309F485C080918702882327
:100DD00009F480C08091850290918602019709F004
:100DE00079C0C0918202C0936102C11178C0809124
:100DF0006002882309F1809155028B3209F04AC2C2
:100E000080915A0290915B02A0915C02B0915D02C8
:100E100040915602509157026091580270915902C8
:100E2000840F951FA61FB71F809351029093520203
:100E3000A0935302B0935402E1E08091E802811143
:100E4000E0E0E195F0E0EB52FD4F84898068BADC88
:100E500080915F0281117EC260915A0270915B02A3
:100E600080915C0290915D0220915E0221116BC223
:100E700049DD41E060E285ED92E057DC6091560289
:100E80007091570280915802909159023BDDE09198
:100E9000E802E23008F05CC2E150F0E0EB52FD4FB6
:100EA000848980688FDC80916002882361F08FE301
:100EB00092E0F1DB609151027091520280915302F5
:100EC000909154021FDD8114910409F459CE0E94BF
:100ED00000004FCE1092D2021092610288CF77DCD0
:100EE000C33409F057C01092560210925702109264
:100EF00058021092590210925A0210925B021092FC
:100F00005C0210925D0210925102109252021092F5
:100F10005302109254021092600210925E022091CD
:100F20005102309152024091530250915402C73302
:100F300009F04DC0211531054105510509F033C1B6
:100F400087E090E0A0E0B0E08093510290935202DD
:100F5000A0935302B0935402209151023091520257
:100F60004091530250915402C53309F04BC02115F2
:100F700031054105510509F036C185E090E0A0E05A
:100F8000B0E08093510290935202A0935302B09329
:100F90005402D4C020915102309152024091530228
:100FA00050915402C13309F09BC021153105410510
:100FB000510509F085C081E090E0A0E0B0E08093A9
:100FC000510290935202A0935302B0935402209185
:100FD0005102309152024091530250915402C03359
:100FE00009F093C0211531054105510559F0AAE0DA
:100FF000B0E088D260935102709352028093530202
:101000009093540220915102309152024091530228
:1010100050915402C83309F4EEC0CD3309F08EC0AC
:1010200081E0809360022091510230915202409100
:10103000530250915402C93391F4211531054105F1
:10104000510509F016C189E090E0A0E0B0E080937E
:10105000510290935202A0935302B0935402809194
:10106000510290915202A0915302B09154022091EA
:101070005E02222309F405C1809356029093570221
:10108000A0935802B09359028C2F8D7F8D3229F096
:1010900086ED8C0F823008F0AACE81E080935E024C
:1010A0001092510210925202109253021092540266
:1010B000C093550264E670E080E090E0B8DA97CE25
:1010C000AAE0B0E01FD26F5F7F4F8F4F9F4F6093BA
:1010D000510270935202809353029093540277CF3F
:1010E000C43309F01CCF211531054105510509F024
:1010F0004AC084E090E0A0E0B0E080935102909379
:101100005202A0935302B0935402209151023091A5
:1011100052024091530250915402C23309F01CCF45
:10112000211531054105510509F04DC0409251028C
:1011300050925202609253027092540220915102D6
:10114000309152024091530250915402C33309F03E
:1011500063C083E090E0A0E0B0E0211531054105D7
:10116000510509F474CFAAE0B0E0CCD16D5F7F4F98
:101170008F4F9F4F6093510270935202809353029E
:10118000909354026CCFAAE0B0E0BCD16C5F7F4F6B
:101190008F4F9F4F6093510270935202809353027E
:1011A00090935402B2CFAAE0B0E0ACD1695F7F4F18
:1011B0008F4F9F4F6093510270935202809353025E
:1011C00090935402C9CEAAE0B0E09CD16E5F7F4FED
:1011D0008F4F9F4F6093510270935202809353023E
:1011E00090935402ABCFAAE0B0E08CD16B5F7F4FFD
:1011F0008F4F9F4FEFCF211531054105510549F51F
:1012000088E090E0A0E0B0E0809351029093520219
:10121000A0935302B0935402209151023091520294
:101220004091530250915402C63309F0FCCE86E03F
:1012300090E0A0E0B0E0211531054105510509F429
:1012400006CFAAE0B0E05ED16A5F7F4F8F4F9F4F1D
:1012500091CFAAE0B0E056D1685F7F4F8F4F9F4F8C
:101260006093510270935202809353029093540200
:10127000D3CFAAE0B0E046D1675F7F4F8F4F9F4F3B
:1012800079CF80935A0290935B02A0935C02B09353
:101290005D02FACE8D32A9F480915A0290915B02E0
:1012A000A0915C02B0915D024091560250915702AC
:1012B0006091580270915902841B950BA60BB70BD5
:1012C000B3CD8A32D1F420915A0230915B02409121
:1012D0005C0250915D0260915602709157028091BC
:1012E000580290915902B9D0609351027093520202
:1012F00080935302909354029FCD8F3209F09CCD7E
:101300002091560230915702409158025091590253
:10131000211531054105510591F060915A027091F6
:101320005B0280915C0290915D02C8D020935102D3
:101330003093520240935302509354027DCD81E08A
:1013400080935F0279CDDEDA41E06091550293CD62
:10135000E1E0A3CD3CDA82E492E09DD968EE73E04F
:1013600080E090E064D910925F02ADCD617001CD54
:101370001092680210926C0210926B0210926D0231
:1013800088E292E09093670280936602E2E8F2E0DE
:101390001082148213821582369682E0EE3BF807A3
:1013A000B9F784E092E09093C9028093C80280E08C
:1013B00092E09093CB028093CA0284E08093CC02A7
:1013C0008093CD0288E092E09093C7028093C6029A
:1013D0008AE090E09093CF028093CE0284EF91E078
:1013E0009093D1028093D0021092D4021092D30233
:1013F0001092C2021092C3021092C4021092C5024F
:101400001092D2021092D8021092D7028CE192E090
:101410009093D6028093D50288E08093D9028FEF13
:101420008093DA0289E08093DB028AE08093DC0219
:101430008BE08093DD028CE08093DE028DE0809370
:10144000DF021092E0021092E1021092E20210928A
:10145000E3021092E40281E0C1C9DB018F939F9304
:1014600051D0BF91AF91A29F800D911DA39F900D70
:10147000B29F900D11240895A1E21A2EAA1BBB1B46
:10148000FD010DC0AA1FBB1FEE1FFF1FA217B30750
:10149000E407F50720F0A21BB30BE40BF50B661F66
:1014A000771F881F991F1A9469F76095709580952A
:1014B00090959B01AC01BD01CF010895052E97FBCE
:1014C00016F400940FD057FD05D0D6DF07FC02D0EC
:1014D00046F408C050954095309521953F4F4F4FA9
:1014E0005F4F089590958095709561957F4F8F4FD0
:1014F0009F4F0895EE0FFF1F881F8BBF0790F69137
:10150000E02D199409D0A59F900DB49F900DA49F34
:10151000800D911D11240895A29FB001B39FC001B9
:10152000A39F700D811D1124911DB29F700D811D0F
:0A1530001124911D0895F894FFCFD7
:10153A0004050607000102033738392F3435362AE5
:10154A003132332D43303D2B000000007D04C501AC
:10155A004803470300000000EF02B0028102426123
:10156A007369632043616C63756C61746F72003DCB
:0C157A002000496E76616C69642100005D
:00000001FF
