:1000000002C1000030C100002EC100002CC1000060
:100010002AC1000028C1000026C1000024C1000040
:1000200022C1000020C100001EC100001CC1000050
:100030001AC1000018C1000016C1000014C1000060
:1000400012C100005CC600000EC100000CC100001F
:100050000AC1000008C1000006C100007FC5000001
:1000600002C1000000C10000FEC00000FCC0000092
:10007000FAC00000F8C00000F6C00000F4C00000A4
:1000800011C60000F0C00000EEC00000ECC000008F
:10009000EAC00000E8C00000E6C00000E4C00000C4
:1000A000E2C00000E0C00000D0C50000DCC00000DD
:1000B000DAC00000D8C00000D6C0000099C500001A
:1000C000D2C00000D0C00000CEC00000CCC00000F4
:1000D000CAC00000C8C00000C6C00000C4C0000004
:1000E000C2C0000000002100240027002A002D00CB
:1000F0003000330001010000040107010A01000083
:100100002200250028002B002E00310034000201BF
:100110000000050108010B0100002000230026005B
:1001200029002C002F00320000010000030106010D
:10013000090105050505070508080808020202026D
:100140000A0A080804040404010101010101010173
:100150000303030303030303040707070C0C0C0C3E
:100160000C0C0C0C02020202060606060606060627
:100170000B0B0B0B0B0B0B0B0102102020080810B4
:100180002040102040800201020108040201010207
:1001900004081020408080402010080402018004E0
:1001A000020180402010080402010804020101023B
:1001B0000408102040800102040810204080000044
:1001C0000A0B02090C0D0E080703040100000000D1
:1001D000000000000000000000000000000000001F
:1001E00000000000000000000000121110000000DC
:1001F00000000000000000000000000000000000FF
:1002000000000000650911241FBECFEFD1E2DEBF60
:10021000CDBF00E00CBF12E0A0E0B2E0E2EDF4E1FF
:1002200000E00BBF02C007900D92AA32B107D9F7C8
:1002300023E0AAE2B2E001C01D92A635B207E1F7C1
:1002400011E0C3E0D1E000E006C021970109802F52
:10025000FE010E945F0AC230D10780E00807A9F7BB
:100260007BD50C94670ACCCECF92DF92EF92FF92AF
:10027000DC01A03282E0B807D4F5A53BB10514F04B
:10028000A4EBB0E040913C0328E830E0241B3109A6
:1002900047FD3395220F331F220F331F6901330FA0
:1002A000EE08FF0840913D0328E532E0241B3109A8
:1002B00047FD3395220F331F220F331F032E000CEF
:1002C000440B550B2C193D094E095F09B7FF02C0BD
:1002D000B0E0A0E00E941C0A24EB30E040E050E0D7
:1002E0000E94F609C20ED31EE41EF51ED601E0914F
:1002F0003B03E03380F520913C0388E890E0821BCB
:10030000910927FD9395880F991F880F991FA817AA
:10031000B90784F020913D0388E592E0821B9109A2
:1003200027FD9395880F991F880F991FA817B90764
:100330000CF4CD010297880F991F4FB7F8942E2F18
:1003400030E0F901EE0FFF1FE20FF31FE555FD4FFF
:10035000928381834FBFFF90EF90DF90CF900895FD
:1003600096E0899FD0011124A45CBD4F90967C93A8
:100370006E935F9791E091969C939197E091A9027B
:10038000F091AA029091A802992339F0309751F088
:10039000811108C0809158021994309719F05C9629
:1003A0008C91FACF0895CF92DF92EF92FF920F9344
:1003B0001F9396E0899FF0011124E45CFD4F11A288
:1003C000278D30A12130310549F178F022303105F7
:1003D00009F44FC02330310509F450C01F910F912B
:1003E000FF90EF90DF90CF9008956623B9F361E01E
:1003F00070E0B6DF2FB7F8948091380290913902FF
:10040000A0913A02B0913B022FBF80939402909347
:100410009502A0939602B0939702E0CF9FB7F8940D
:10042000C0903802D0903902E0903A02F0903B023E
:100430009FBF0091940210919502209196023091F5
:100440009702C01AD10AE20AF30A0091A60210919B
:10045000A70230E020E00C151D052E053F0548F4ED
:1004600062E070E01F910F91FF90EF90DF90CF90CE
:1004700077CF6111B3CF63E070E0F4CF70E060E05C
:10048000F1CFAF92BF92CF92DF92EF92FF920F9394
:100490001F93CF93DF936C017B018B01040F151F1A
:1004A000EB015E01AE18BF08C017D10759F0699182
:1004B000D601ED91FC910190F081E02DC6011995D6
:1004C000892B79F7C501DF91CF911F910F91FF9093
:1004D000EF90DF90CF90BF90AF9008958150823120
:1004E00008F059C0E82FF0E08827E758FD4F8F4FFC
:1004F000E6C799029D028B0291029502CB02A002EF
:10050000A602AA02B002B402B802BE02C202CB0224
:10051000C602CC02D002809180008F778093800049
:100520000895809180008F7DF9CF80918000877F32
:10053000F5CF84B58F7784BD089584B58F7DFBCFCB
:100540008091B0008F778093B00008958091B000C3
:100550008F7DF9CF809190008F77809390000895E0
:10056000809190008F7DF9CF80919000877FF5CFAB
:100570008091A0008F778093A00008958091A000C3
:100580008F7DF9CF8091A000877FF5CF80912001EA
:100590008F77809320010895809120018F7DF9CF7E
:1005A00080912001877FF5CFCF93DF93282F30E014
:1005B000F901E254FE4F8491F901E858FE4FD491BD
:1005C000F901EE5CFE4FC491CC2399F0811186DFD6
:1005D000EC2FF0E0EE0FFF1FE85EFE4FA591B49107
:1005E000EC91ED2381E090E009F480E0DF91CF9180
:1005F000089580E090E0FACF862FD6CF1F93CF9357
:10060000DF93282F30E0F901E254FE4F8491F90185
:10061000E858FE4FD491F901EE5CFE4FC491CC2313
:10062000A1F0162F81115ADFEC2FF0E0EE0FFF1F23
:10063000E250FF4FA591B4918FB7F894EC9111114E
:1006400008C0D095DE23DC938FBFDF91CF911F913F
:100650000895DE2BF8CF862F642FD0CFCF93DF9372
:1006600090E0FC01E858FE4F24918E5C9E4FFC0107
:1006700084918823C9F090E0880F991FFC01EC5108
:10068000FF4FA591B491FC01E250FF4FC591D49169
:1006900061110DC09FB7F8948C91209582238C93A3
:1006A0008881282328839FBFDF91CF9108956230EE
:1006B00051F49FB7F8943C91822F809583238C93BB
:1006C000E8812E2BEFCF8FB7F894EC912E2B2C9343
:1006D0008FBFEACF862F642FC1CF089590E080E0CE
:1006E0000895AF92BF92CF92DF92EF92FF920F9355
:1006F0001F93CF93DF936B017A01EC01C55DDD4F52
:1007000028813CE0389F8001399F100D1124A09072
:100710002A02B12C27FF1FC0FB01118210828881A1
:100720008F5F888388819801280F311D87FD3A9556
:10073000F6012A153B051CF488818C30BCF18081C0
:100740009181049680349C4908F471C0F60180813F
:10075000918104966EC088819801280F311D87FD14
:100760003A952A153B05DCF68881A801480F511DF2
:1007700087FD5A95FA01EE0FFF1FE40FF51FE555AF
:10078000FD4F808186FFCBCF8881F801E80FF11DF6
:1007900087FDFA95CF01EE0FFF1FE80FF91FE55512
:1007A000FD4F808160E08F7329DFB9CF8081918117
:1007B0002881A801420F511D27FD5A959A01FA017F
:1007C000EE0FFF1FE20FF31FE555FD4F2181328130
:1007D000820F931FF7019183808388819801280FEE
:1007E000311D87FD3A95F901EE0FFF1FE20FF31F50
:1007F000E555FD4F808186FF21C08881080F111DBE
:1008000087FD1A95F801EE0FFF1FE00FF11FE55568
:10081000FD4F808161E08F73DF91CF911F910F9128
:10082000FF90EF90DF90CF90BF90AF90E7CE80E445
:100830009CE9F701918380838FEF8883DF91CF91CB
:100840001F910F91FF90EF90DF90CF90BF90AF90EE
:1008500008958F929F92AF92BF920F931F93CF9361
:10086000DF93CDB7DEB7A1970FB6F894DEBF0FBE0A
:10087000CDBF19A2423008F44AE08E010F5D1F4F30
:10088000842E912CB12CA12CA5019401DBD5E62F4F
:10089000B901CA01EA303CF5E05DD801EE938D0163
:1008A000232B242B252B81F790E080E0109761F01B
:1008B000FD0101900020E9F73197AF014A1B5B0B66
:1008C000BD018EE393E0DDDDA1960FB6F894DEBFA7
:1008D0000FBECDBFDF91CF911F910F91BF90AF9011
:1008E0009F908F900895E95CD8CFCF93DF93EC0170
:1008F00060E08E8183DE61E08E8180DE60E08E814B
:100900007DDE8BE891E00197F1F7DF91CF910895BB
:10091000CF92DF92EF92FF920F931F93CF93DF93CB
:100920006C017C0187E0E80EF11CD0E0C0E0062FEE
:1009300010E0B8010C2E02C0759567950A94E2F795
:100940006170F70181917F0159DE2196C430D10594
:1009500081F7C601DF91CF911F910F91FF90EF902A
:10096000DF90CF90C2CFCF92DF92EF92FF920F93A2
:100970001F93CF93DF93EC01F62E642F8C813EDE24
:100980008D818F3F11F060E039DE0F2D10E08F85F3
:1009900084FF23C06E0187E0C80ED11CF12CE12C2E
:1009A000B8010E2C02C0759567950A94E2F7617044
:1009B000F60181916F0122DEFFEFEF1AFF0A88E056
:1009C000E816F10469F7CE01DF91CF911F910F91E5
:1009D000FF90EF90DF90CF9088CFB80184E07595BD
:1009E00067958A95E1F7CE0193DF6F2DCE01DF91F8
:1009F000CF911F910F91FF90EF90DF90CF9088CF14
:100A0000CF93DF93823029F490914D0398609093B7
:100A10004D03809351031092520380E4809353035B
:100A200080E18093540380E58093550361E08091D9
:100A3000420314DE809143038F3F11F061E00EDE2C
:100A400061E0809144030ADECEE3D3E09E012E53A1
:100A5000334080914D0384FD0AC084E090E02196EC
:100A6000281739073CF461E08E81F8DDEFCF88E08C
:100A700090E0F5CF8BE39DE00197F1F760E0809186
:100A80004203BCDD60E080914403B8DD8091430304
:100A90008F3F11F060E0B2DD60914D0364FD3DC019
:100AA00063E08EE393E034DFCBE4D6E4CE0101973C
:100AB000F1F763E08EE393E02BDF2197F1F763E03A
:100AC0008EE393E025DF83E592E00197F1F762E0A2
:100AD0008EE393E01DDF60914D03606240E08EE3A2
:100AE00093E041DF84E080934E0340E06CE08EE3CE
:100AF00093E039DF40E061E08EE393E034DF8BE3A5
:100B00009FE10197F1F782E080934F0340E066E0B8
:100B10008EE393E0DF91CF9126CF606240E08EE3D9
:100B200093E021DF8BE496E40197F1F760914D03A8
:100B3000606240E08EE393E016DF83E592E0019788
:100B4000F1F760914D03606240E08EE393E00BDFCC
:100B5000C2CF41E008DF81E090E008951F920F923C
:100B60000FB60F9211242F933F938F939F93AF93C0
:100B7000BF938091380290913902A0913A02B091CE
:100B80003B023091330223E0230F2D3758F50196B5
:100B9000A11DB11D20933302809338029093390236
:100BA000A0933A02B0933B0280912F0290913002C1
:100BB000A0913102B09132020196A11DB11D809326
:100BC0002F0290933002A0933102B0933202BF9172
:100BD000AF919F918F913F912F910F900FBE0F90EA
:100BE0001F90189526E8230F0296A11DB11DD2CFA4
:100BF0001F920F920FB60F9211240BB60F922F93E4
:100C00003F934F935F936F937F938F939F93AF9394
:100C1000BF93EF93FF9348E251E064E271E090E00C
:100C200080E05FDDFF91EF91BF91AF919F918F9138
:100C30007F916F915F914F913F912F910F900BBEDC
:100C40000F900FBE0F901F9018951F920F920FB626
:100C50000F9211240BB60F922F933F934F935F93F4
:100C60006F937F938F939F93AF93BF93EF93FF9374
:100C700048EA50E064EA70E083E090E032DDFF9102
:100C8000EF91BF91AF919F918F917F916F915F9104
:100C90004F913F912F910F900BBE0F900FBE0F9071
:100CA0001F9018951F920F920FB60F9211240BB63A
:100CB0000F922F933F934F935F936F937F938F93F5
:100CC0009F93AF93BF93EF93FF9348E950E064E99C
:100CD00070E082E090E005DDFF91EF91BF91AF9170
:100CE0009F918F917F916F915F914F913F912F9144
:100CF0000F900BBE0F900FBE0F901F9018951F9274
:100D00000F920FB60F9211240BB60F922F933F93B1
:100D10004F935F936F937F938F939F93AF93BF9303
:100D2000EF93FF9348E850E064E870E081E090E0E2
:100D3000D8DCFF91EF91BF91AF919F918F917F91FF
:100D40006F915F914F913F912F910F900BBE0F903C
:100D50000FBE0F901F901895789484B5826084BD63
:100D600084B5816084BD85B5826085BD85B58160AF
:100D700085BD80916E00816080936E00109281002D
:100D800080918100826080938100809181008160E8
:100D900080938100809180008160809380008091A9
:100DA000B10084608093B1008091B0008160809335
:100DB000B0008091910082608093910080919100B9
:100DC0008160809391008091900081608093900079
:100DD0008091A10082608093A1008091A100816038
:100DE0008093A1008091A00081608093A0008091F9
:100DF0002101826080932101809121018160809393
:100E000021018091200181608093200180917A00EE
:100E1000846080937A0080917A00826080937A0067
:100E200080917A00816080937A0080917A00806856
:100E300080937A001092C10082E0E2DDC09035021A
:100E4000D09036020D2C000CEE08FF084AE0C701D6
:100E5000B601F7FE0DC041E06DE28EE393E083DD65
:100E600066277727CB016C197D098E099F094AE017
:100E7000F0DC80913B03803308F052C061E087E0F2
:100E8000EDDB80913B03282F30E0F901EE0FFF1FCF
:100E9000E20FF31FE555FD4F9081907C97609083A2
:100EA0009EE890933C0394E690933D032CE0622FE0
:100EB000FAD2829FB001112430E020E0AB01420F52
:100EC000531FFA01EE0FFF1FE40FF51FE555FD4F0D
:100ED000908196FD17C02F5F3F4F2C30310571F781
:100EE000813009F064C01092800082E0809381001C
:100EF0001092850010928400B19A80916F008260F8
:100F000080936F00E0913B038E2F90E0FC01EE0F89
:100F1000FF1FE80FF91FE555FD4F80818064808336
:100F200080913502909136029FD9812C912C5401E9
:100F300083944BE3242E4FE1342E50E0652E50E095
:100F4000752E51E05093A8028FB7F8944091380263
:100F50005091390260913A0270913B028FBF8091AB
:100F6000980290919902A0919A02B0919B02481B1D
:100F7000590B6A0B7B0B8091A4029091A502B0E003
:100F8000A0E084179507A607B70708F04AC1C0E09C
:100F90008091A202C817B8F5E0919E02F0919F02DD
:100FA000EC0FF11D62E0808159DBCF5FF1CF823021
:100FB00061F410929000809391001092950010922D
:100FC000940088BB809371009DCF833069F41092A8
:100FD000A00082E08093A1001092A5001092A400CE
:100FE00089BB809372008ECF81118CCF109220012B
:100FF00082E08093210110922501109224018ABB86
:10100000809373007FCF512C8091A302581608F073
:101010005AC0052D10E0E091A002F091A102E00F6E
:10102000F11F61E080811ADBE091A002F091A10242
:10103000E00FF11F60E08081E1DAD501C401052CE9
:1010400004C0880F991FAA1FBB1F0A94D2F76C0116
:101050007C01E094F094412C8091A2024816F0F4B7
:10106000C42DD0E0E0919E02F0919F02EC0FFD1F95
:1010700080819ADA2496CC0FDD1FC45CDD4F892B6A
:1010800041F4888199818C299D299983888343948F
:10109000E3CF888199818E219F21F7CFE091A00233
:1010A000F091A102E00FF11F61E08081A7DA809149
:1010B000A0029091A102080F191F60E0F801808141
:1010C000CDDA5394A1CF0CE312E0E8018F8D98A103
:1010D000892B31F41C8E8FEF9FEF9E8F8D8F19A27D
:1010E000269692E0C837D90789F7F12C8091A202A1
:1010F000F81608F052C0E12CCF2CD12CCC0CDD1C02
:10110000F601EC5BFD4F6F012091A302E21608F09F
:1011100042C0F601608171810E2C02C07695679500
:101120000A94E2F7F29E900111242E0D311DECE39A
:10113000F2E080E0458D568D2417350709F4C3C0D1
:101140008F5F36968A30B1F760FF23C0ECE3F2E0A0
:1011500090E080E0448D411117C0E0919C02F09135
:101160009D02E20FF31F408156E0589FF001599F06
:10117000F00D1124E45CFD4F448F368F258F10A2B3
:10118000178E61E010D905C0019636968A30910518
:1011900009F7E394B9CFF394A9CF80E0F80191A1C6
:1011A0009111892F0A5F1F4FC017D107B9F79FB759
:1011B000F894409138025091390260913A0270914E
:1011C0003B029FBF409398025093990260939A020A
:1011D00070939B02882329F180915D02882309F195
:1011E00080915B0290915C020197D9F4C091580202
:1011F000C0933702C1111AC080913402882351F084
:101200008091350290913602853B910518F4109239
:1012100034022AD86114710409F493CE0E940000AC
:1012200090CE1092A80210923702E6CF40E061E023
:101230008EE393E098DBC1010197F1F780ED8C0F0D
:101240008A30B8F520913502309136028C2FCC0FC0
:10125000990BC0972115310519F5909336028093AB
:101260003502F1E0F0933402C0903502D09036029E
:101270000D2C000CEE08FF084AE0C701B601F7FE8E
:101280000DC041E06DE28EE393E06DDB66277727CA
:10129000CB016C197D098E099F094AE0DADAACCFDF
:1012A0006AE0629FA001639F500D1124840F951F77
:1012B000D4CFC334C9F6109236021092350251E0F1
:1012C00050933402D1CF61705DCF80912A02803378
:1012D00008F088C091E0980F90932A0280933B0316
:1012E00090E0FC01EE0FFF1FE80FF91FE555FD4FE1
:1012F00088EB9BE09283818310923E02109242021F
:10130000109241021092430283E292E090933D02D8
:1013100080933C02E8E5F2E0108214821382158289
:10132000369682E0E439F807B9F783E092E09093CB
:101330009F0280939E0280E092E09093A1028093AE
:10134000A00284E08093A20283E08093A30287E05E
:1013500092E090939D0280939C028AE090E09093AB
:10136000A5028093A40284EF91E09093A70280935A
:10137000A6021092AA021092A9021092980210924C
:10138000990210929A0210929B021092A802109257
:1013900041031092400387E192E090933F038093D2
:1013A0003E0388E0809342038FEF8093430389E0FC
:1013B000809344038AE0809345038BE08093460347
:1013C0008CE0809347038DE080934803109249039B
:1013D00010924A0310924B0310924C0310924D034B
:1013E00081E00ECB8FEF80933B0386CF052E97FBDA
:1013F00016F400940FD057FD05D024D007FC02D07E
:1014000046F408C050954095309521953F4F4F4F79
:101410005F4F089590958095709561957F4F8F4FA0
:101420009F4F089531D0A59F900DB49F900DA49F1C
:10143000800D911D11240895B7FFF4CFF3DF821BB7
:10144000930B0895A1E21A2EAA1BBB1BFD010DC030
:10145000AA1FBB1FEE1FFF1FA217B307E407F50764
:1014600020F0A21BB30BE40BF50B661F771F881F40
:10147000991F1A9469F760957095809590959B01D6
:10148000AC01BD01CF010895A29FB001B39FC0017F
:10149000A39F700D811D1124911DB29F700D811DA0
:1014A0001124911D0895991B79E004C0991F961786
:1014B00008F0961B881F7A95C9F780950895EE0F5E
:1014C000FF1F881F8BBF0790F691E02D1994F894A9
:0214D000FFCF4C
:1014D2000405060001020337383934353631323318
:1014E20043303D00000000A90541026E036D030078
:0A14F2000000006A032B03FC020057
:00000001FF
