:1000000004C1000033C1000031C100002FC1000055
:100010002DC100002BC1000029C1000027C1000034
:1000200025C1000023C1000021C100001FC1000044
:100030001DC100008DC7000019C1000017C10000DC
:1000400015C100000C94170911C100000FC1000078
:100050000DC100000BC1000009C100000C9446084E
:1000600005C1000003C1000001C10000FFC0000085
:10007000FDC00000FBC00000F9C00000F7C0000098
:100080000C94EA08F3C00000F1C00000EFC00000CB
:10009000EDC00000EBC00000E9C00000E7C00000B8
:1000A000E5C00000E3C000000C94BD08DFC0000004
:1000B000DDC00000DBC00000D9C000000C94900837
:1000C000D5C00000D3C00000D1C00000CFC00000E8
:1000D000CDC00000CBC00000C9C00000C7C00000F8
:1000E000C5C0000000002100240027002A002D00C8
:1000F0003000330001010000040107010A01000083
:1001000020002300260029002C002F0032000001CF
:10011000000003010601090100000A0B02090C0D91
:100120000E080703040100000000000000000000AA
:1001300000000000000000000000000000000000BF
:10014000000000001211100000000000000000007C
:10015000000000000000000000000000000001029C
:1001600010202008081020401020408002010201C9
:100170000804020101020408102040808040201081
:1001800008040201800402018040201008040201DA
:100190000804020101020408102040800102040842
:1001A0001020408000002200250028002B002E0097
:1001B0003100340002010000050108010B010505B2
:1001C0000505070508080808020202020A0A0808CD
:1001D00004040404010101010101010103030303FB
:1001E00003030303040707070C0C0C0C0C0C0C0C8A
:1001F0000202020206060606060606060B0B0B0B9B
:100200000B0B0B0B0200530DEB0D11241FBECFEF98
:10021000D1E2DEBFCDBF00E00CBF12E0A0E0B2E053
:10022000E2EFF1E200E00BBF02C007900D92A038B0
:10023000B107D9F723E0A0E8B2E001C01D92A03ECB
:10024000B207E1F711E0C4E0D1E000E006C0219779
:100250000109802FFE010E94C60EC330D10780E045
:100260000807A9F70E9444090C94E810C9CE8F92A0
:100270009F92AF92BF92FF920F931F93CF93DF9302
:10028000F090C1032FE22F1508F44CC02091C30356
:1002900008E512E0021B110927FD1395000F111F3D
:1002A000000F111F2091C203C8E8D0E0C21BD10982
:1002B00027FDD395CC0FDD1FCC0FDD1F4E010D2E7A
:1002C000000CAA08BB089801012E000C440B550B2A
:1002D000281939094A095B09DC010E94830E24EBC5
:1002E00030E040E050E00E945D0E820E931EA41E9E
:1002F000B51E8C169D062CF0E801801691060CF4B4
:10030000E4012297CC0FDD1F2FB7F8948F2D90E0DA
:10031000FC01EE0FFF1FE80FF91FEF5CFC4FD283CB
:10032000C1832FBFDF91CF911F910F91FF90BF909D
:10033000AF909F908F90089596E0899FD0011124EF
:10034000AE55BD4F90967C936E935F9791E09196DA
:100350009C939197E0910F03F091100390910E03FD
:10036000992339F0309751F0811108C08091BE0275
:100370001994309719F05C968C91FACF0895AF924A
:10038000BF92CF92DF92EF92FF920F931F93CF9382
:10039000DF936C017B018B01040F151FEB015E01E4
:1003A000AE18BF08C017D10759F06991D601ED9179
:1003B000FC910190F081E02DC6011995892B79F708
:1003C000C501DF91CF911F910F91FF90EF90DF90CA
:1003D000CF90BF90AF900895FC014481558160811A
:1003E000718184EC93E0CBCF8150823108F05AC008
:1003F000E82FF0E08827E050FE4F8F4F0C94C60E98
:1004000020022402120218021C02520227022D02AC
:10041000310237023B023F024502490252024D02BD
:1004200053025702809180008F7780938000089557
:10043000809180008F7DF9CF80918000877FF5CFFC
:1004400084B58F7784BD089584B58F7DFBCF80916F
:10045000B0008F778093B00008958091B0008F7DB9
:10046000F9CF809190008F778093900008958091CC
:1004700090008F7DF9CF80919000877FF5CF80919C
:10048000A0008F778093A00008958091A0008F7DB9
:10049000F9CF8091A000877FF5CF809120018F77E1
:1004A000809320010895809120018F7DF9CF809164
:1004B0002001877FF5CFCF93DF93282F30E0F9011C
:1004C000E85EFE4F8491F901E25AFE4FD491F901A2
:1004D000E254FE4FC491CC2399F0811185DFEC2FBB
:1004E000F0E0EE0FFF1FE250FF4FA591B491EC91A9
:1004F000ED2381E090E009F480E0DF91CF91089551
:1005000080E090E0FACF862FD6CF1F93CF93DF9372
:10051000282F30E0F901E85EFE4F8491F901E25A9C
:10052000FE4FD491F901E254FE4FC491CC23A1F0C7
:10053000162F811159DFEC2FF0E0EE0FFF1FEC5565
:10054000FE4FA591B4918FB7F894EC91111108C0AA
:10055000D095DE23DC938FBFDF91CF911F9108955B
:10056000DE2BF8CF862F642FD0CFCF93DF9390E090
:10057000FC01E25AFE4F249182549E4FFC0184916B
:100580008823C9F090E0880F991FFC01EC51FF4FC0
:10059000A591B491FC01EC55FE4FC591D491611128
:1005A0000DC09FB7F8948C91209582238C938881FD
:1005B000282328839FBFDF91CF910895623051F4A3
:1005C0009FB7F8943C91822F809583238C93E88188
:1005D0002E2BEFCF8FB7F894EC912E2B2C938FBF4F
:1005E000EACFCF9380911502833121F08F3FC1F084
:1005F000CF910895E4E0F2E0C491C7FDF9CF61E046
:1006000083E1B3DFCC2309F4DDC0C23009F0F2C0CE
:100610008091B100887F84608093B10089EF7EC1B2
:1006200083E180931502E4E0F2E0C4918C2FCF3F88
:10063000F9F2C23009F467C058F4CC2371F1C1302B
:1006400009F443C087FDD4CF61E083E18EDFDDCFC5
:10065000C43009F499C008F478C0C53099F71092F5
:100660002001109221018091210188608093210155
:1006700080912101816080932101E1EDF1E0E4911D
:10068000F0E0EE0FFF1FEC55FE4F85919491E1E7EE
:10069000F1E0E491E0931103B2CF14BC15BC84B532
:1006A000826084BD85B5816085BDE1EDF1E0E491B6
:1006B000F0E0EE0FFF1FEC55FE4F85919491E1E7BE
:1006C000F1E0E491E09318039ACF10928000109229
:1006D00081008091810088608093810080918100F9
:1006E000816080938100E1EDF1E0E491F0E0EE0FB4
:1006F000FF1FEC55FE4F85919491E1E7F1E0E49105
:10070000E09317037CCF1092B0001092B10080915B
:10071000B00082608093B0008091B10081608093CE
:10072000B100E1EDF1E0E491F0E0EE0FFF1FEC55D8
:10073000FE4F859194919093160380931503E1E702
:10074000F1E0E491E09314035ACF109290001092DC
:100750009100809191008860809391008091910038
:10076000816080939100E1EDF1E0E491F0E0EE0F23
:10077000FF1FEC55FE4F85919491E1E7F1E0E49184
:10078000E0931303C3E03BCF1092A0001092A100AE
:100790008091A10088608093A1008091A100816078
:1007A0008093A100E1EDF1E0E491F0E0EE0FFF1F96
:1007B000EC55FE4F85919491E1E7F1E0E491E093EF
:1007C00012031DCF85B5887F836085BD89EF87BD06
:1007D00084E690E0A0E0B0E080932D0390932E0398
:1007E000A0932F03B093300380916E0082608093BA
:1007F0006E00FECEC130F1F480918100887F81606F
:10080000809381008FE79EE3909389008093880016
:1008100084E690E0A0E0B0E08093290390932A035F
:10082000A0932B03B0932C0380916F008260809380
:100830006F00DECEC330F1F480919100887F81603B
:10084000809391008FE79EE39093990080939800A6
:1008500084E690E0A0E0B0E080932103909322032F
:10086000A0932303B093240380917100826080934E
:100870007100BECEC430F1F48091A100887F816008
:100880008093A1008FE79EE39093A9008093A80036
:1008900084E690E0A0E0B0E080931D0390931E03F7
:1008A000A0931F03B0932003809172008260809315
:1008B00072009ECEC530F1F480912101887F816065
:1008C000809321018FE79EE3909329018093280173
:1008D00084E690E0A0E0B0E08093190390931A03BF
:1008E000A0931B03B0931C038091730082608093DC
:1008F00073007ECEC23089F034F4CC2361F0C13075
:1009000009F076CE7FCFC43009F4BCCF0CF49ACF77
:10091000C530C1F26DCE8FE75ACF8FE78093B30019
:1009200084E690E0A0E0B0E0809325039093260356
:10093000A0932703B0932803809170008260809376
:10094000700056CE862F642F10CE3FB7F89480915A
:100950008A0290918B02A0918C02B0918D0226B5F3
:10096000A89B05C02F3F19F00196A11DB11D3FBFE7
:10097000BA2FA92F982F8827BC01CD01620F711DB6
:10098000811D911D42E0660F771F881F991F4A95B0
:10099000D1F708952FB7F89460918602709187027D
:1009A00080918802909189022FBF08950F931F9321
:1009B000CF93DF93C82FD62F86E0C89FF001112474
:1009C000EE55FD4F11A2878D90A181309105E1F088
:1009D00058F082309105D1F1039709F43CC0DF91C2
:1009E000CF911F910F9108956623C9F361E070E0E4
:1009F0008C2FA2DCCFDF6093FA027093FB0280930E
:100A0000FC029093FD02EBCFC5DF0091FA0210913A
:100A1000FB022091FC023091FD02AB01BC01401BA6
:100A2000510B620B730B80910C0390910D03B0E09E
:100A3000A0E084179507A607B70740F462E070E0CE
:100A40008C2FDF91CF911F910F9176CC63E070E0F6
:100A5000D111C5CFF5CF70E060E0F2CF089590E0FE
:100A600080E00895AF92BF92CF92DF92EF92FF9213
:100A70000F931F93CF93DF936B017A01EC01CF5754
:100A8000DD4F28813CE0389F8001399F100D1124F3
:100A9000A0908002B12C27FF1FC0FB0111821082A1
:100AA00088818F5F888388819801280F311D87FD99
:100AB0003A95F6012A153B051CF488818C30BCF16F
:100AC00080819181049680349C4908F471C0F601BC
:100AD0008081918104966EC088819801280F311D14
:100AE00087FD3A952A153B05DCF68881A801480F59
:100AF000511D87FD5A95FA01EE0FFF1FE40FF51FF8
:100B0000EF5CFC4F808186FFCBCF8881F801E80F36
:100B1000F11D87FDFA95CF01EE0FFF1FE80FF91FBA
:100B2000EF5CFC4F808160E08F73EFDCB9CF808198
:100B300091812881A801420F511D27FD5A959A01E4
:100B4000FA01EE0FFF1FE20FF31FEF5CFC4F218154
:100B50003281820F931FF7019183808388819801EE
:100B6000280F311D87FD3A95F901EE0FFF1FE20FA7
:100B7000F31FEF5CFC4F808186FF21C08881080F46
:100B8000111D87FD1A95F801EE0FFF1FE00FF11FF1
:100B9000EF5CFC4F808161E08F73DF91CF911F91FB
:100BA0000F91FF90EF90DF90CF90BF90AF90ADCCC2
:100BB00080E49CE9F701918380838FEF8883DF9144
:100BC000CF911F910F91FF90EF90DF90CF90BF904A
:100BD000AF900895FC0101900020E9F73197AF0133
:100BE000481B590BBC0184EC93E0C9CBCF93DF9336
:100BF000EC0160E08E8189DC61E08E8186DC60E062
:100C00008E8183DC8BE891E00197F1F7DF91CF9142
:100C10000895CF92DF92EF92FF920F931F93CF939D
:100C2000DF936C017C0187E0E80EF11CD0E0C0E0AE
:100C3000062F10E0B8010C2E02C0759567950A9436
:100C4000E2F76170F70181917F015FDC2196C4308A
:100C5000D10581F7C601DF91CF911F910F91FF90D0
:100C6000EF90DF90CF90C2CFCF92DF92EF92FF92C2
:100C70000F931F93CF93DF93EC01F62E642F8C819B
:100C800044DC8D818F3F11F060E03FDC0F2D10E0E0
:100C90008F8584FF23C06E0187E0C80ED11CF12C24
:100CA000E12CB8010E2C02C0759567950A94E2F705
:100CB0006170F60181916F0128DCFFEFEF1AFF0AE6
:100CC00088E0E816F10469F7CE01DF91CF911F911A
:100CD0000F91FF90EF90DF90CF9088CFB80184E024
:100CE000759567958A95E1F7CE0193DF6F2DCE015B
:100CF000DF91CF911F910F91FF90EF90DF90CF90F8
:100D000088CF40E0682F84EC93E0AECF81E0F9DF3C
:100D10008BE39FE10197F1F70895CF93DF93823042
:100D200029F49091D30398609093D3038093D703D1
:100D30001092D80380E48093D90380E18093DA0392
:100D400080E58093DB0361E08091C8030EDC809135
:100D5000C9038F3F11F061E008DC61E08091CA03B4
:100D600004DCC4ECD3E09E01245C33408091D303C7
:100D700084FD0AC084E090E02196281739073CF4EE
:100D800061E08E81F2DBEFCF88E090E0F5CF8BE37E
:100D90009DE00197F1F760E08091C803B6DB60E069
:100DA0008091CA03B2DB8091C9038F3F11F060E0EC
:100DB000ACDB8091D30384FD2CC063E084EC93E032
:100DC00028DFCBE4D6E4CE010197F1F763E084ECB1
:100DD00093E01FDF2197F1F763E084EC93E019DFE4
:100DE00083E592E00197F1F762E084EC93E011DF94
:100DF0008091D303806285DF84E08093D4038CE00C
:100E000080DF84DF82E08093D50386E0DF91CF919D
:100E100078CF806276DF8BE496E40197F1F78091DA
:100E2000D30380626EDF83E592E00197F1F7809152
:100E3000D303806266DFDCCF9091D703891710F06F
:100E40008FEF890FE82FF0E0EC53FC4F8489806826
:100E500058CF41E009DF81E090E00895CF93DF9320
:100E6000EC0188819981009711F00E946A0F198224
:100E700018821D821C821B821A82DF91CF910895F5
:100E8000FC0180819181009711F00C946A0F089504
:100E90000F931F93CF93DF93EC0188819981009783
:100EA00059F02A813B812617370730F081E0DF9126
:100EB000CF911F910F9108958B016F5F7F4F0E941B
:100EC000F30F009759F0998388831B830A832C8141
:100ED0003D81232B59F7FC011082E8CF80E0E7CF5A
:100EE000EF92FF920F931F93CF93DF93EC017B015F
:100EF0008A01BA01CDDF81110AC0CE01AFDFCE0178
:100F0000DF91CF911F910F91FF90EF9008951D8376
:100F10000C83B701888199810E94E110F0CFFB0119
:100F200001900020E9F73197AF01461B570BD8CF4E
:100F3000FC01118210821382128215821482FB013D
:100F400001900020E9F73197AF01461B570BC8CF3E
:100F50001F920F920FB60F9211240BB60F922F9380
:100F60003F934F935F936F937F938F939F93AF9331
:100F7000BF93EF93FF938091250390912603A09157
:100F80002703B0912803892B8A2B8B2BE1F19091B9
:100F90001403E0911503F091160380818927808363
:100FA0008091250390912603A0912703B0912803F7
:100FB000181619061A061B069CF4809125039091B9
:100FC0002603A0912703B09128030197A109B10935
:100FD0008093250390932603A0932703B0932803BF
:100FE000FF91EF91BF91AF919F918F917F916F9101
:100FF0005F914F913F912F910F900BBE0F900FBEBD
:101000000F901F90189580911502E4E0F2E0E491B2
:101010009FEF90931502E230E1F038F4EE2381F077
:10102000E13089F060E071DADBCFE43049F110F1B2
:10103000E530C1F7909173009D7F90937300F2CFDC
:1010400010926E00EFCF90916F009D7F90936F0094
:10105000E9CF909170009D7F9093700091E0909304
:10106000B0009091B100987F94609093B10010927D
:10107000B300D8CF909171009D7F90937100D2CF33
:10108000909172009D7F90937200CCCF1F920F922F
:101090000FB60F9211242F933F938F939F93AF938B
:1010A000BF938091860290918702A0918802B091AF
:1010B00089023091850223E0230F2D3758F50196E0
:1010C000A11DB11D20938502809386029093870213
:1010D000A0938802B093890280918A0290918B023A
:1010E000A0918C02B0918D020196A11DB11D80933B
:1010F0008A0290938B02A0938C02B0938D02BF91D1
:10110000AF919F918F913F912F910F900FBE0F90B4
:101110001F90189526E8230F0296A11DB11DD2CF6E
:101120001F920F920FB60F9211240BB60F922F93AE
:101130003F934F935F936F937F938F939F93AF935F
:10114000BF93EF93FF9348E251E064E271E090E0D7
:1011500080E088DCFF91EF91BF91AF919F918F91DB
:101160007F916F915F914F913F912F910F900BBEA7
:101170000F900FBE0F901F9018951F920F920FB6F1
:101180000F9211240BB60F922F933F934F935F93BF
:101190006F937F938F939F93AF93BF93EF93FF933F
:1011A00048EA50E064EA70E083E090E05BDCFF91A5
:1011B000EF91BF91AF919F918F917F916F915F91CF
:1011C0004F913F912F910F900BBE0F900FBE0F903C
:1011D0001F9018951F920F920FB60F9211240BB605
:1011E0000F922F933F934F935F936F937F938F93C0
:1011F0009F93AF93BF93EF93FF9348E950E064E967
:1012000070E082E090E02EDCFF91EF91BF91AF9112
:101210009F918F917F916F915F914F913F912F910E
:101220000F900BBE0F900FBE0F901F9018951F923E
:101230000F920FB60F9211240BB60F922F933F937C
:101240004F935F936F937F938F939F93AF93BF93CE
:10125000EF93FF9348E850E064E870E081E090E0AD
:1012600001DCFF91EF91BF91AF919F918F917F91A1
:101270006F915F914F913F912F910F900BBE0F9007
:101280000FBE0F901F901895CF93DF93CDB7DEB7A9
:10129000A7970FB6F894DEBF0FBECDBF789484B584
:1012A000826084BD84B5816084BD85B5826085BD62
:1012B00085B5816085BD80916E00816080936E00F0
:1012C00010928100809181008260809381008091E2
:1012D0008100816080938100809180008160809393
:1012E00080008091B10084608093B1008091B00053
:1012F00081608093B0008091910082608093910022
:101300008091910081608093910080919000816034
:10131000809390008091A10082608093A1008091D1
:10132000A10081608093A1008091A00081608093E2
:10133000A000809121018260809321018091210190
:101340008160809321018091200181608093200140
:1013500080917A00846080937A0080917A00826024
:1013600080937A0080917A00816080937A008091E6
:101370007A00806880937A001092C10060E08DE06E
:10138000F4D860E08AE0F1D860E088E0EED861E06F
:1013900085E1EBD861E084E1E8D882E0BEDC84E955
:1013A00092E01AD88091C103803308F052C061E006
:1013B00086E0DBD88091C103282F30E0F901EE0FE1
:1013C000FF1FE20FF31FEF5CFC4F9081907C966053
:1013D00090839EE89093C20394E69093C3032CE01D
:1013E000622FC8D4829FB001112430E020E0AB010D
:1013F000420F531FFA01EE0FFF1FE40FF51FEF5CC2
:10140000FC4F908196FD17C02F5F3F4F2C30310568
:1014100071F7813009F053C01092800082E0809310
:1014200081001092850010928400B19A80916F0023
:10143000826080936F00E091C1038E2F90E0FC01E9
:10144000EE0FFF1FE80FF91FEF5CFC4F80818064F7
:10145000808390E080E00E943701412C512C3201C2
:10146000439421E020930E0395DA0091FE0210913F
:10147000FF022091000330910103AB01BC01401B2E
:10148000510B620B730B80910A0390910B03B0E038
:10149000A0E084179507A607B70708F063C110E01E
:1014A000809108031817B8F5E0910403F091050343
:1014B000E10FF11D62E0808158D81F5FF1CF8230CB
:1014C00061F4109290008093910010929500109218
:1014D000940088BB80937100AECF833069F4109282
:1014E000A00082E08093A1001092A5001092A400B9
:1014F00089BB809372009FCF81119DCF10922001F4
:1015000082E08093210110922501109224018ABB70
:101510008093730090CF312C80910903381608F026
:1015200060C0E32CF12CE0910603F0910703EE0D6F
:10153000FF1D61E0808119D8E0910603F091070357
:10154000EE0DFF1D60E080810E948502D301C20183
:10155000032C04C0880F991FAA1FBB1F0A94D2F73F
:101560004C016C01C094D094212C80910803281662
:1015700008F5022D10E0E0910403F0910503E00F5F
:10158000F11F80810E945B020C5F1F4F000F111F33
:10159000F801EE55FD4F892B41F480819181882916
:1015A0009929918380832394E0CF808191818C213C
:1015B0009D21F7CFE0910603F0910703EE0DFF1D8B
:1015C00061E080810E94850280910603909107036B
:1015D000E80EF91E60E0F70180810E94B5023394A5
:1015E0009BCF02EA12E07801F701878D90A1892B49
:1015F00031F4148E8FEF9FEF968F858F11A296E0B6
:10160000E90EF11CEEEDEE16E2E0FE0669F7D12CD4
:1016100080910803D81608F052C0C12C8D2C912C53
:10162000880C991CC40186559D4F4C0120910903DB
:10163000C21608F042C0F401608171810C2C02C016
:10164000769567950A94E2F7D29E900111242C0DAD
:10165000311DE2EAF2E080E0458D568D2417350712
:1016600009F41FC28F5F36968A30B1F760FF23C03E
:10167000E2EAF2E090E080E0448D411117C0E09191
:101680000203F0910303E20FF31F408156E0589FDD
:10169000F001599FF00D1124EE55FD4F448F368F08
:1016A000258F10A2178E61E081D905C0019636966C
:1016B0008A30910509F7C394B9CFD394A9CFD12C1F
:1016C000F80181A18111D82E0A5F1F4FE016F106A3
:1016D000B9F760D96093FE027093FF028093000314
:1016E00090930103DD2009F43DC01091C302112342
:1016F000C9F18091C1029091C202019799F50091C0
:10170000BE020093A102011132C08091A002882381
:1017100009F416C1FBDA8FE592E05CDA81E0809390
:101720009F021092A00236D970939E0260939D0290
:101730000E94F10284EB90E00E94370161E084E1B5
:101740000E94850260E085E10E94850280919F02EF
:10175000811148C180E090E0892B09F482CE0E947B
:1017600000007FCE10920E031092A102CECFCEDAEF
:1017700080ED800F8A3028F509831A820091980243
:10178000109199020F5F1F4FB80184E992E080DB4E
:10179000882391F0209194023091950280919802D3
:1017A00090919902BE016F5F7F4F820F931F09D501
:1017B000109399020093980284E992E00E94EC0150
:1017C000A4CF0A3209F0A1CF80919A0290919B0296
:1017D000009709F078C01A8219821C821B821E822F
:1017E0001D8260919402709195026115710539F026
:1017F0004091980250919902CE01019671DB68E602
:1018000072E084E992E08BDB2D813E81809192022F
:10181000909193022817390701F589819A81609187
:101820008E0270918F02009751F06115710509F0D9
:1018300048C0232B99F0FC01808190E00BC061151A
:10184000710561F0232B51F0FB01808190E09195AF
:101850008195910911E0892B09F010E0CE010196E4
:101860000FDB1093A00252DA82E392E0111102C062
:101870008AE392E0AFD969D84B015C0184EFC82EAE
:10188000DD24D394E12CF12C60D8681979098A09F8
:101890009B09683E734081059105B0F3F1E0CF1AD2
:1018A000D108E108F10828EE820E23E0921EA11C67
:1018B000B11CC114D104E104F10431F780E0BCDAB9
:1018C00024CF76D4C7CF8130910519F581E0B4DA01
:1018D000609194027091950261157105B1F040918B
:1018E0009802509199028EE892E0FADA84E492E04C
:1018F00071D980E0A1DA68E672E084E992E00FDB5A
:1019000010929B0210929A0200CF8EE892E0A6DA23
:10191000EDCF029709F0F9CE81E08EDA8091940242
:1019200090919502009741F05CD1709314026093FE
:10193000130281E592E0DCCF60E070E0CB01F5CFEF
:1019400080919F02882309F405CF80919C0288230F
:1019500079F1DCD989E692E03DD981E06DDA1AD8D7
:1019600020919D0230919E02621B730B81099109A7
:101970001BA21AA21DA21CA21FA21EA22AE0AE0137
:101980004F5F5F4F69D1BE016F5F7F4FCE0182967F
:10199000C6DA63E772E0CE010196CADAEAA0FBA0DC
:1019A000E114F10409F047C0CE01019657DA5DC099
:1019B0000E94CA0420919D0230919E02AB01BC019D
:1019C000421B530B6109710980911302909114021B
:1019D000092E000CAA0BBB0B481759076A077B0797
:1019E00008F0B7CF8DE00E945B02019719F491E0F7
:1019F00090939C028AE00E945B028130910549F439
:101A000090939B0280939A0268E672E084E992E0E8
:101A100086DA88E00E945B02019709F09BCEE2E043
:101A2000F0E0F0939B02E0939A0268E672E084E9AA
:101A300092E075DA8FCE0EA11FA101151105A9F054
:101A40008D819E81080F191FB801CE01019620DA01
:101A5000882309F4A9CF29813A818D819E81B7011C
:101A6000820F931FAED31E830D83CE0101960E9479
:101A7000EC01CE01019604DACE01829601DA80E013
:101A8000DBD910929F0210929C020E94F10290E01A
:101A900080E00E94370160E084E10E94850261E0FD
:101AA00052CE617001CECF9368E672E084E992E095
:101AB0003FDA69E772E08EE892E03ADA1092A40227
:101AC0001092A8021092A7021092A9028CE292E052
:101AD0009093A3028093A202EEEBF2E010821482B4
:101AE00013821582369682E0EA3FF807B9F783E061
:101AF00092E0909305038093040380E092E090933A
:101B000007038093060394E09093080383E0809397
:101B1000090327E032E030930303209302032AE015
:101B200030E030930B0320930A0324EF31E030932D
:101B30000D0320930C031092100310920F031092C8
:101B4000FE021092FF021092000310920103109205
:101B50000E031092C7031092C60320E232E03093C6
:101B6000C5032093C4039093C803CFEFC093C90368
:101B700095E09093CA038093CB0382E08093CC03DB
:101B800081E08093CD031092CE031092CF03109288
:101B9000D0031092D1031092D2031092D303BDD878
:101BA000809180028033A0F491E0980F909380029E
:101BB0008093C10390E0FC01EE0FFF1FE80FF91FB7
:101BC000EF5CFC4F88EB9BE092838183CF9108957B
:101BD000C093C103FBCF8EE892E052D984E992E032
:101BE0004FC91F93FC0199278827BC01E8941191E4
:101BF0001032E9F3193010F01E30C8F31B3249F0EF
:101C00001D3241F4689405C012D0610F711D811D11
:101C1000911D119110531A30B8F33EF490958095B0
:101C2000709561957F4F8F4F9F4F1F910895592F4A
:101C3000482F372F262F660F771F881F991F660F93
:101C4000771F881F991F620F731F841F951F660FD0
:101C5000771F881F991F0895BB27FA01A62F6217C7
:101C6000710581059105330B30FB66F0AA27660FDD
:101C7000771F881F991FAA1FA21710F0A21B639538
:101C80003850A9F7A05DAA3308F0A95DA19336F7F3
:101C9000B111B1931082CA0100C0DC01FC01672FB1
:101CA00071917723E1F7329704C07C916D93708333
:101CB0006291AE17BF07C8F30895052E97FB16F47F
:101CC00000940FD057FD05D024D007FC02D046F475
:101CD00008C050954095309521953F4F4F4F5F4F2D
:101CE000089590958095709561957F4F8F4F9F4F88
:101CF000089531D0A59F900DB49F900DA49F800DA5
:101D0000911D11240895B7FFF4CFF3DF821B930BCD
:101D10000895A1E21A2EAA1BBB1BFD010DC0AA1F2C
:101D2000BB1FEE1FFF1FA217B307E407F50720F044
:101D3000A21BB30BE40BF50B661F771F881F991FBF
:101D40001A9469F760957095809590959B01AC0108
:101D5000BD01CF010895A29FB001B39FC001A39F11
:101D6000700D811D1124911DB29F700D811D1124D4
:101D7000911D0895991B79E004C0991F961708F0EA
:101D8000961B881F7A95C9F780950895EE0FFF1F5F
:101D9000881F8BBF0790F691E02D19940F931F9326
:101DA000CF93DF938230910510F482E090E0E091D0
:101DB000DE03F091DF0330E020E0B0E0A0E03097F8
:101DC00099F42115310509F44AC0281B390B243038
:101DD0003105D8F58A819B816115710589F1FB0177
:101DE00093838283FE0111C040815181028113815E
:101DF00048175907E0F04817590799F4109761F010
:101E000012960C93129713961C933296CF01DF9182
:101E1000CF911F910F9108950093DE031093DF037C
:101E2000F4CF2115310551F04217530738F0A901BD
:101E3000DB019A01BD01DF01F801C1CFEF01F9CF4C
:101E40009093DF038093DE03CDCFFE01E20FF31FFB
:101E5000819391932250310939832883D7CF2091E0
:101E6000DC033091DD03232B41F4209118023091E3
:101E700019023093DD032093DC0320911602309188
:101E800017022115310541F42DB73EB740911A02D2
:101E900050911B02241B350BE091DC03F091DD0314
:101EA000E217F307A0F42E1B3F0B2817390778F031
:101EB000AC014E5F5F4F2417350748F04E0F5F1F90
:101EC0005093DD034093DC03819391939FCFF0E027
:101ED000E0E09CCFCF93DF930097E9F0FC013297CD
:101EE00013821282A091DE03B091DF03ED0130E096
:101EF00020E01097A1F420813181820F931F20915F
:101F0000DC033091DD032817390709F061C0F09335
:101F1000DD03E093DC03DF91CF910895EA01CE1752
:101F2000DF07E8F54A815B819E0141155105B1F754
:101F3000E901FB83EA8349915991C40FD51FEC173E
:101F4000FD0761F4808191810296840F951FE9015C
:101F500099838883828193819B838A83F0E0E0E088
:101F600012968D919C9113970097B9F52D913C9104
:101F70001197CD010296820F931F2091DC033091BF
:101F8000DD032817390739F6309751F51092DF0332
:101F90001092DE03B093DD03A093DC03BCCFD383A8
:101FA000C28340815181840F951FC817D90761F4FE
:101FB0004E5F5F4F88819981480F591F518340833D
:101FC0008A819B81938382832115310509F0B0CFEB
:101FD000F093DF03E093DE039ECFFD01DC01C0CF71
:101FE00013821282D7CF4F925F926F927F928F921D
:101FF0009F92AF92BF92CF92DF92EF92FF920F9398
:102000001F93CF93DF938C01009791F4CB01DF9165
:10201000CF911F910F91FF90EF90DF90CF90BF90E5
:10202000AF909F908F907F906F905F904F90B6CEC3
:10203000FC01E60FF71F9C0122503109E217F3075C
:1020400008F4AAC0D901CD91DC911197C617D70722
:1020500018F1C530D10570F0CE01049786179707A7
:1020600048F0C61BD70B2297C193D1936D937C93F5
:10207000CF0130DFC801DF91CF911F910F91FF9009
:10208000EF90DF90CF90BF90AF909F908F907F9018
:102090006F905F904F9008955B01AC1ABD0A4C01A0
:1020A0008C0E9D1EA091DE03B091DF03512C412CBC
:1020B000F12CE12C109731F58091DC039091DD0338
:1020C0008815990509F05CC04616570608F058C0F7
:1020D0008091160290911702009741F48DB79EB738
:1020E00040911A0250911B02841B950BE817F907C7
:1020F00008F052C0F093DD03E093DC03F901718333
:102100006083B8CF8D919C91119712966C90129725
:1021100013967C901397A815B90559F56C0142E008
:10212000C40ED11CCA14DB0420F1AC014A195B09AE
:10213000DA011296159780F0628273825183408390
:10214000D9016D937C93E114F10471F0D7011396DA
:10215000FC93EE9312978ECF22968C0F9D1FF90160
:1021600091838083F301EFCFF093DF03E093DE03ED
:1021700081CF4816590608F42C017D01D3019ACF6E
:10218000CB010CDE7C01009739F0AE01B80107D01D
:10219000C801A0DE87016ECF10E000E06BCFFB012D
:1021A000DC0102C001900D9241505040D8F70895D3
:1021B000FB01DC018D91019080190110D9F3990B7D
:1021C0000895FB01DC0101900D920020E1F70895D4
:1021D00011E0C4E0D1E000E005C0802FFE01D6DDB3
:1021E0002196011DC530D10780E00807B1F7F894AA
:0221F000FFCF1F
:1021F2003C3B3A3D3938373132333435363738396A
:102202002A3023204EFF0000E0038000000000007F
:102212002907BF012F052E0500000000A204B2020B
:102222008302436F727265637400496E636F7272E8
:1022320065637400536574206E65772070617373F3
:1022420000536574206E65772074696D6572004F66
:1022520050454E45442E2E2E00434C4F5345442E9E
:102262002E2E0054696D653A003132333435000048
:00000001FF
